:020000040800F2
:1000000010040020212B0008FD2A0008FF2A000808
:1000100000000000000000000000000000000000E0
:10002000000000000000000000000000012B00089C
:100030000000000000000000032B0008052B000852
:10004000671F0008FB1F0008FF1F00088329000826
:10005000DB2A0008E72A00084D2B00084F2B000878
:1000600000000000512B0008532B0008552B0008FE
:10007000572B0008592B00085B2B00085D2B00084C
:100080005F2B0008612B0008632B000800000000B4
:10009000652B0008672B0008692B00086B2B0008F4
:1000A0006D2B00086F2B0008712B0008732B0008C4
:1000B000752B0008772B00080000000000000000EE
:1000C0000000000000000000000000000000000030
:1000D0000000000000000000000000000000000020
:1000E00000000800080008000800080008000800D8
:1000F00008000800000008000800000000000000E0
:100100000000220022002200220000000000000067
:1001100000000000000000000000000000000000DF
:10012000000009000900120012007F801200240064
:10013000FF80240024004800480000000000000068
:1001400004001F0034002400240014000C000600EA
:1001500007000500050025003E0004000000000027
:1001600000007040888089008A0072000400080046
:1001700013801440244044408380000000000000AD
:1001800000001C002200220026001C003000484015
:100190008C408480828043003F800000000000008B
:1001A000000008000800080008000000000000002F
:1001B000000000000000000000000000000000003F
:1001C0000000018006000C00080010001000100064
:1001D00010001000100008000C0006000180000054
:1001E0000000600018000C00040002000200020081
:1001F00002000200020004000C0018006000000071
:100200000000080008006B00360014001C001400F9
:1002100000000000000000000000000000000000DE
:1002200000000000000000000000080008000800B6
:100230000800FF800800080008000000000000001F
:1002400000000000000000000000000000000000AE
:10025000000000000000180018000800080010004E
:10026000000000000000000000000000000000008E
:100270003F0000000000000000000000000000003F
:10028000000000000000000000000000000000006E
:10029000000000000000180018000000000000002E
:1002A00000000080010001000200020004000400C0
:1002B000080008001000100020002000400000008E
:1002C00000001C00220022004100410041004100CA
:1002D00041004100220022001C000000000000003C
:1002E0000000080078000800080008000800080066
:1002F00008000800080008007F000000000000005F
:1003000000007C0042000200020002000400040021
:1003100008001000200040007E00000000000000E7
:1003200000003C0002000200020002001C0002006B
:1003300002000200020002003C0000000000000079
:10034000000004000C0014001400240044004400C9
:100350008400FF000400040004000000000000000E
:1003600000003E00200020002000380004000200B1
:10037000020002000200040038000000000000003B
:1003800000001E002000200040005C0062004100D0
:1003900041004100410022001C000000000000005C
:1003A00000007F00010002000400040008000800B3
:1003B00010001000100020002000000000000000CD
:1003C00000003E00410041004100260018002600C8
:1003D00042004100410042003C00000000000000DB
:1003E00000001C00220041004100410041002300A8
:1003F0001D000100020002003C000000000000009F
:1004000000000000000000000000180018000000BC
:1004100000000000000018001800000000000000AC
:10042000000000000000000000001800180000009C
:10043000000000000000180018000800080010006C
:1004400000000000000000000000008003000C001D
:10045000300030000C0003000080000000000000AD
:1004600000000000000000000000000000007F808D
:10047000000000007F80000000000000000000007D
:1004800000000000000000000000400030000C00F0
:10049000030003000C0030004000000000000000DA
:1004A00000007E004300410001000200040008003B
:1004B00010001000000010001000000000000000FC
:1004C00000001E0021004700C90091009100930028
:1004D000930097004DC062003E0000000000000045
:1004E00000000000000008001C00140012002200A0
:1004F00021007F004080408080400000000000001C
:100500000000000000007E004100410042007C002D
:1005100042004100410041007E0000000000000058
:100520000000000000001F0061004000800080000B
:1005300080008000400060001F00000000000000FC
:100540000000000000007C0042004100410041002A
:1005500041004100410042007C000000000000001A
:100560000000000000007F0040004000400040000C
:100570007E004000400040007F00000000000000BE
:100580000000000000007F004000400040004000EC
:100590007E004000400040004000000000000000DD
:1005A0000000000000000F8030802000400040006C
:1005B00043804080208030800F80000000000000D9
:1005C00000000000000041004100410041004100E6
:1005D0007F00410041004100410000000000000098
:1005E0000000000000007F0008000800080008006C
:1005F00008000800080008007F000000000000005C
:100600000000000000001E000200020002000200C4
:1006100002000200020002003C0000000000000096
:10062000000000000000410042004400480070004B
:1006300050004800460041004080000000000000DB
:10064000000000000000400040004000400040006A
:1006500040004000400040007F000000000000001B
:10066000000000000000C300C300E300A500A500D7
:10067000B500990099008100810000000000000091
:1006800000000000000041006100510051004900DD
:100690004900450045004300410000000000000003
:1006A0000000000000001E002100408040804080CB
:1006B00040804080408021001E00000000000000BB
:1006C0000000000000007E004100410041004200A7
:1006D0007C0040004000400040000000000000009E
:1006E0000000000000001E0021004080408040808B
:1006F00040804080408021001E00020001800000F8
:100700000000000000007C00420042004200440063
:100710007800480044004200410000000000000052
:100720000000000000003F00410040006000180091
:1007300006000100010043007C00000000000000F2
:10074000000000000000FF8008000800080008000A
:100750000800080008000800080000000000000071
:100760000000000000004100410041004100410044
:1007700041004100410022003C0000000000000058
:1007800000000000000080404080408021002100E7
:100790002200120012000C000C00000000000000FB
:1007A0000000000000008040804048804C804C8069
:1007B000548052803300330021000000000000000C
:1007C00000000000000080404080210012000C006A
:1007D0000C0012002100408080400000000000005A
:1007E0000000000000008040408021002200140032
:1007F00008000800080008000800000000000000D1
:100800000000000000007F80008001000200040062
:1008100008001000200040007F8000000000000061
:1008200000001F0010001000100010001000100049
:100830001000100010001000100010001F00000039
:1008400000004000200020001000100008000800F8
:10085000040004000200020001000100008000000A
:1008600000007C00040004000400040004000400F4
:100870000400040004000400040004007C000000E4
:100880000000040004000C000A001A00120011000D
:100890002100210040800000000000000000000056
:1008A0000000000000000000000000000000000048
:1008B00000000000000000000000FFC00000000079
:1008C000080004000000000000000000000000001C
:1008D0000000000000000000000000000000000018
:1008E000000000000000000000003C0002000200C8
:1008F0001E002200420046003B00000000000000F5
:10090000000040004000400040005E0062004100E6
:1009100041004100410062005C0000000000000056
:10092000000000000000000000001F002000400048
:1009300040004000400020001F00000000000000B8
:10094000000001000100010001001D002300410022
:1009500041004100410023003D0000000000000074
:10096000000000000000000000001E002100410007
:100970007F004000400020001F0000000000000039
:10098000000007801800100010007F801000100089
:100990001000100010001000100000000000000007
:1009A000000000000000000000001D0023004100C6
:1009B00041004100410023003D00010002003C00D5
:1009C000000040004000400040004E005100610027
:1009D00041004100410041004100000000000000D2
:1009E000000018001800000000007800080008004F
:1009F00008000800080008000800000000000000CF
:100A000000000C000C00000000003C00040004008A
:100A10000400040004000400040004000400780042
:100A200000004000400040004000410046004800F7
:100A3000700050004C004200410000000000000027
:100A400000003C0004000400040004000400040052
:100A50000400040004000400040000000000000082
:100A600000000000000000000000B300CC8088807F
:100A7000888088808880888088800000000000004E
:100A8000000000000000000000004E007100610046
:100A90004100410041004100410000000000000011
:100AA000000000000000000000001C0022004100C7
:100AB00041004100410022001C0000000000000035
:100AC000000000000000000000005E006200410025
:100AD00041004100410062005C00400040004000D5
:100AE000000000000000000000001D002300410085
:100AF00041004100410023003D00010001000100D0
:100B00000000000000000000000027002900310064
:100B10002000200020002000200000000000000035
:100B2000000000000000000000003E004000400007
:100B300030000C00020042007C00000000000000B9
:100B4000000000000000100010007F0010001000E6
:100B500010001000100010000F0000000000000046
:100B600000000000000000000000420042004200BF
:100B700042004200420046003A000000000000002F
:100B800000000000000000000000808041004100E3
:100B900042002200240014001800000000000000A1
:100BA00000000000000000000000804088404C80F1
:100BB0004C80528052803300210000000000000071
:100BC0000000000000000000000040802100120032
:100BD0000C000C001200210040800000000000000A
:100BE00000000000000000000000804040804080C5
:100BF0002100320012000C000C0008001000E00080
:100C0000000000000000000000007F8001000200E2
:100C100004000800100020007F8000000000000099
:100C2000000007000800080008000800080008008D
:100C30003000080008000800080008000700000055
:100C4000000008000800080008000800080008006C
:100C5000080008000800080008000800080000005C
:100C60000000380004000400040004000400040034
:100C70000300040004000400040004003800000025
:100C800000000000000000000000000000007040B4
:100C90008C40838000000000000000000000000085
:100CA00000000000000008001C00140012002200D8
:100CB00021007F0040804080804000000000000054
:100CC0000000000000003E002000200020003E0048
:100CD00021002100210021003E0000000000000052
:100CE0000000000000007E004100410042007C0046
:100CF00042004100410041007E0000000000000071
:100D00000000000000003F802000200020002000A4
:100D10002000200020002000200000000000000033
:100D20000000000000001F00110011001100110060
:100D30001100210021002100FF80808080800000C0
:100D40000000000000007F00400040004000400024
:100D50007E004000400040007F00000000000000D6
:100D6000000000000000C98049002A002A001C0081
:100D70002A002A006B004900C98000000000000022
:100D80000000000000007E000100010001001E00C4
:100D900001000100010001007E00000000000000D1
:100DA00000000000000041004300450045004900EC
:100DB00049005100510061004100000000000000A6
:100DC00022001C000000410043004500450049008E
:100DD0004900510051006100410000000000000086
:100DE0000000000000004100420044004800700084
:100DF00048004400440042004100000000000000A0
:100E00000000000000001F0011001100110011007F
:100E1000110011001100210061000000000000001D
:100E2000000000000000C300C300E300A500A5000F
:100E3000B5009900990081008100000000000000C9
:100E4000000000000000410041004100410041005D
:100E50007F0041004100410041000000000000000F
:100E60000000000000001E00210040804080408003
:100E700040804080408021001E00000000000000F3
:100E80000000000000007F004100410041004100DF
:100E9000410041004100410041000000000000000D
:100EA0000000000000007E004100410041004200BF
:100EB0007C004000400040004000000000000000B6
:100EC0000000000000001F00610040008000800062
:100ED00080008000400060001F0000000000000053
:100EE000000000000000FF80080008000800080063
:100EF00008000800080008000800000000000000CA
:100F000000000000000080404080410021001200ED
:100F100012000C0008001800700000000000000023
:100F2000000000000000080008003E00C980888022
:100F30008880C9803E000800080000000000000012
:100F400000000000000080404080210012000C00E2
:100F50000C001200210040808040000000000000D2
:100F6000000000000000410041004100410041003C
:100F700041004100410041007FC0004000400000AE
:100F80000000000000004200420042004200420017
:100F900046003A00020002000200000000000000CB
:100FA0000000000000008880888088808880888019
:100FB0008880888088808880FF8000000000000092
:100FC00000000000000088808880888088808880F9
:100FD0008880888088808880FFC0004000400000B2
:100FE000000000000000F0001000100010001F00C2
:100FF00010801080108010801F0000000000000092
:1010000000000000000040804080408040807880E8
:1010100044804480448044807880000000000000C8
:1010200000000000000040004000400040007E0042
:1010300041004100410041007E000000000000002E
:101040000000000000007C000200010001001F0001
:1010500001000100010002007C000000000000000F
:101060000000000000008700888090409040F04021
:101070009040904090408880870000000000000071
:101080000000000000003E0042004200420042001A
:101090003E0012002200420082000000000000001A
:1010A000000000000000000000003C000200020000
:1010B0001E002200420046003B000000000000002D
:1010C00000001E002000200040005E006200410081
:1010D00041004100410022001C000000000000000F
:1010E000000000000000000000003E002100210080
:1010F0003E002100210021003E0000000000000011
:10110000000000000000000000003F8020002000E0
:10111000200020002000200020000000000000002F
:10112000000000000000000000001E00120012007D
:101130001200120022002200FFC080408040000008
:10114000000000000000000000001E00210041001F
:101150007F004000400020001F0000000000000051
:101160000000000000000000000049002A002A00E2
:101170001C002A004900490088800000000000008F
:10118000000000000000000000007C0002000200DF
:101190001C000200020002007C00000000000000B1
:1011A0000000000000000000000041004300450076
:1011B00049004900510061004100000000000000AA
:1011C000000022001C000000000041004300450018
:1011D000490049005100610041000000000000008A
:1011E0000000000000000000000043004200440036
:1011F000480070004C004200410000000000000068
:10120000000000000000000000001F00110011009D
:101210001100110011002100410000000000000039
:1012200000000000000000000000410063006300B7
:101230005500550055004900410000000000000025
:1012400000000000000000000000410041004100DB
:101250007F0041004100410041000000000000000B
:10126000000000000000000000001C0022004100FF
:1012700041004100410022001C000000000000006D
:10128000000000000000000000003F0021002100DD
:1012900021002100210021002100000000000000A9
:1012A000000000000000000000005E00620041003D
:1012B00041004100410062005C00400040004000ED
:1012C000000000000000000000001F00200040009F
:1012D00040004000400020001F000000000000000F
:1012E000000000000000000000007F8008000800EF
:1012F00008000800080008000800000000000000C6
:10130000000000000000000000008040408040809D
:101310002100320012000C000C0008001000E00058
:10132000000008000800080008007F00888088800E
:1013300088808880888088807F00080008000800F6
:1013400000000000000000000000408021001200AA
:101350000C000C0012002100408000000000000082
:1013600000000000000000000000420042004200B7
:1013700042004200420042007FC0004000400000A6
:101380000000000000000000000042004200420097
:1013900042003E00020002000200000000000000C7
:1013A0000000000000000000000088808880888025
:1013B0008880888088808880FF800000000000008E
:1013C0000000000000000000000088808880888005
:1013D0008880888088808880FFC0004000400000AE
:1013E00000000000000000000000F00010001000ED
:1013F0001E001100110011001E000000000000007E
:10140000000000000000000000004080408040809C
:101410007880448044804480788000000000000090
:10142000000000000000000000002000200020005C
:101430003E002100210021003E00000000000000CD
:10144000000000000000000000007C00020001001D
:101450001F000100010002007C00000000000000ED
:101460000000000000000000000047804CC0484021
:1014700078404840484044C04780000000000000D9
:10148000000000000000000000001F0021002100FB
:1014900021001F0011002100410000000000000099
:1014A0000A0000000A0020000A0040000A00600054
:1014B0000A0080000A00A0000A00C0000A00E00044
:1014C0000A0000010A0020010A0040010A00600130
:1014D0000A0080010A00A0010A00C0010A00E00120
:1014E0000A0000020A0020020A0040020A0060020C
:1014F0000A0080020A00A0020A00C0020A00E002FC
:101500000A0000030A0020030A0040030A006003E7
:101510000A0080030A00A0030A00C0030A00E003D7
:101520000A0000040A0020040A0040040A006004C3
:101530000A0080040A00A0040A00C0040A00E004B3
:101540000A0000050A0020050A0040050A0060059F
:101550000A0080050A00A0050A00C0050A00E0058F
:101560000A0000060A0020060A0040060A0060067B
:101570000A0080060A00A0060A00C0060A00E0066B
:101580000A0000070A0020070A0040070A00600757
:101590000A0080070A00A0070A00C0070A00E00747
:1015A0000A0000080A0020080A0040080A00600833
:1015B0000A0080080A00A0080A00C0080A00E00823
:1015C0000A0000090A0020090A0040090A0060090F
:1015D0000A0080090A00A0090A00C0090A00E009FF
:1015E0000A00000A0A00200A0A00400A0A00600AEB
:1015F0000A00800A0A00A00A0A00C00A0A00E00ADB
:101600000A00000B0A00200B0A00400B0A00600BC6
:101610000A00800B0A00A00B0A00C00B0A000000A1
:101620000A0000000A0000000A0000000A00000092
:101630000A0000000A0000000A0000000A00000082
:101640000A0000000A0000000A0000000A00000072
:101650000A0000000A0000000A0000000A00000062
:101660000A0000000A0000000A0000000A00000052
:101670000A0000000A0000000A0000000A00000042
:101680000A0000000A0000000A0000000A00000032
:101690000A0000000A0000000A0000000A00000022
:1016A0000A0000000A0000000A0000000A00000012
:1016B0000A0000000A0000000A0000000A00000002
:1016C0000A0000000A0000000A0000000A000000F2
:1016D0000A0000000A0000000A0000000A000000E2
:1016E0000A0000000A0000000A0000000A000000D2
:1016F0000A0000000A0000000A0000000A000000C2
:101700000A0000000A0000000A0000000A000000B1
:101710000A0000000A0000000A0000000A000000A1
:101720000A00E00B0A00000C0A00200C0A00400C22
:101730000A00600C0A00800C0A00A00C0A00C00C11
:101740000A00E00C0A00000D0A00200D0A00400DFE
:101750000A00600D0A00800D0A00A00D0A00C00DED
:101760000A00E00D0A00000E0A00200E0A00400EDA
:101770000A00600E0A00800E0A00A00E0A00C00EC9
:101780000A00E00E0A00000F0A00200F0A00400FB6
:101790000A00600F0A00800F0A00A00F0A00C00FA5
:1017A0000A00E00F0A0000100A0020100A00401092
:1017B0000A0060100A0080100A00A0100A00C01081
:1017C0000A00E0100A0000110A0020110A0040116E
:1017D0000A0060110A0080110A00A0110A00C0115D
:1017E0000A00E0110A0000120A0020120A0040124A
:1017F0000A0060120A0080120A00A0120A00C01239
:101800000A00E0120A0000130A0020130A00401325
:101810000A0060130A0080130A00A0130A00C01314
:101820001020FF02A0140008C0000008F8B5040052
:10183000B34D2078C0074FD58027BF02E8680C2140
:101840000140082907D0E8680C2101400C290AD181
:10185000E868C00307D5286807403DD060680028C5
:101860003AD10120F2BD60687908884201D1286828
:1018700009E0A021C9028842286806D17900014305
:1018800029602868790801430AE0AA4901402960D3
:10189000286879080840009000982868A649014007
:1018A0002960606800280BD000F0ECFA0600286878
:1018B000384011D100F0E6FA801B6528F7D396E195
:1018C00000F0E0FA06002868384005D000F0DAFAA7
:1018D000801B6528F7D38AE12078800719D5AF4FA0
:1018E000E8680C210140042907D0E8680C21014078
:1018F0000C2935D1E868C00332D42868400702D5E6
:10190000E0680128ADD168680740206900023843CB
:101910006860AF0D2078C00668D5E8680C210140EA
:101920007AD12868800502D5A069002899D0206A5C
:101930006968E02212020A40824235D200F060FA61
:1019400000288ED16868AC490140206A084368606D
:1019500068680002000AE16909060143696034E031
:10196000E068002810D029680922914308432860C4
:1019700000F088FA060028684007C4D400F082FA14
:10198000801B0328F7D332E12868012188432860AF
:1019900000F078FA060028684007BAD500F072FA1D
:1019A000801B0328F7D322E16968934A0A40104359
:1019B000686068680002000AE1690906014369601D
:1019C000206A00F01DFA0028BBD10120216A490BD2
:1019D000491C8840C0038949EA681206120F895CD5
:1019E000C84087490860002000F052FA20780007BC
:1019F00050D560690028286D3DD00121014329653B
:101A000000F040FA0600286D800743D400F03AFA4F
:101A1000801B0328F7D3EAE0A069002828681BD0C0
:101A20003843286000F02EFA06002868800505D4A7
:101A300000F028FA801B0328F7D3D8E068686E49C5
:101A40000140206A0843686068680002000AE16992
:101A5000090601436960C9E76A490140296000F04D
:101A600011FA060028688005C0D500F00BFA801B2B
:101A70000328F7D3BBE001218843286500F002FA70
:101A80000600286D800705D500F0FCF9801B0328AF
:101A9000F7D3ACE02078400763D5002000903805EC
:101AA000A96B014004D1A96B0843A86301200090F1
:101AB00055480068384011D15348006838435249AE
:101AC000086000F0DFF906004F480068384005D193
:101AD00000F0D8F9801B6528F6D388E0A168B942E8
:101AE0000AD0A24800290DD0A022D200914209D1EB
:101AF000286D290D01432965286D07432F6508E0EE
:101B000000100240296D3F4A0A402A65296D0840AD
:101B10002865974FA068002810D000F0B3F90600A0
:101B2000286D800516D400F0ADF9801BB842F7D3BC
:101B30005DE000BFFFFFFEFFFFFFFBFF00F0A2F92B
:101B40000600286D800505D500F09CF9801BB84281
:101B5000F7D34CE00098002803D0A86B85490140DA
:101B6000A963606A002844D0E9680C220A400C2A64
:101B700000D176E68027BF047F490228286829D152
:101B80000140296000F07EF906002868384007D03F
:101B900000F078F9801B0328F7D328E0FFE0FFFF6F
:101BA000E86893490140A06A0843E16A0143206B59
:101BB0000843E860286879080143296000F062F969
:101BC00006002868384014D100F05CF9801B032817
:101BD000F7D30CE00140296000F054F906002868B2
:101BE000384006D000F04EF9801B0328F7D30320BD
:101BF000F2BD0020F2BD0000FF1FFFFF2C2A0008ED
:101C000004000020FFFEFFFF00700040F2B582B02C
:101C100004000127FF4301257648006828408842D8
:101C20000AD2744800683840014372480160006875
:101C300028400299884274D16F4E2078800705D5DC
:101C4000F068F0218843A1680143F16020682840D2
:101C500055D06068022802D13168890308E0032862
:101C600002D13168890103E00128316802D14907B6
:101C700002D456E0890554D5F16803229143084304
:101C8000F06000F0FFF80090606802280CD1F06866
:101C90000C210140082932D000F0F4F80099401AD4
:101CA00033498842F3D328E003280CD1F0680C2193
:101CB00001400C2923D000F0E5F80099401A2C4986
:101CC0008842F3D319E001280CD1F0680C210140BF
:101CD000042914D000F0D6F80099401A244988420B
:101CE000F3D30AE0F0680C21014008D000F0CAF8F4
:101CF0000099401A1E498842F4D30320FEBD029881
:101D00003C490968294088420DD23A48006807409A
:101D100002983843374908600868054002988542B0
:101D200001D00120FEBD2078400705D5F068334979
:101D30000140E0680843F0602078000706D5F068AD
:101D4000474901402069C0000843F06000F016F8E0
:101D50004449F2681206120F895CC8404249086083
:101D6000002000F095F80020FEBD0000FFFBFFFF03
:101D700089130000FFFFFFEFFFFFFFFEF0B51E4DD0
:101D8000E9683B4A9308102654080C2008400428B0
:101D900004D0082809D00C2809D01DE02868064086
:101DA00001D01800F0BD1000F0BD2000F0BD31489A
:101DB0008F023F0FC05D0902890F491CEF68FF03C6
:101DC00001D5604305E02C68264001D0584300E06F
:101DD000504300F071F8F0BD686801210004400F25
:101DE000401C8140C803F0BD1F48006870470000D8
:101DF000FFFF02FF0020024000100240FFF8FFFF3B
:101E0000F0B500220121194B1C68F025254018D19E
:101E1000C0246401194D0E07DF6A374002D02D68D7
:101E2000254008E0DF6A3E43DE622D682540DE6A19
:101E3000134F3740DF62A54203D1E300984200D13F
:101E400001220D4803680124A34313430360006883
:101E50000140914201D00120F0BD0020F0BD000002
:101E6000FFC7FFFF2C2A0008040000200C100240CE
:101E70000024F4003C2A00080020024000700040CA
:101E8000FFFFFFEF01480068704700BF0800002017
:101E900010B5040007480068FA21890000F00CF82A
:101EA00000F080F8002221000020C04300F076F806
:101EB000002010BD040000200022030A8B420BD238
:101EC00003098B4219D243088B422ED2411A00D209
:101ED0000146524110467047FF2209023FD01206C8
:101EE0008B4205D3121209028B4201D3121209024E
:101EF00003098B4219D300E0090AC3098B4201D3BD
:101F0000CB01C01A524183098B4201D38B01C01A05
:101F1000524143098B4201D34B01C01A524103097C
:101F20008B4201D30B01C01A5241C3088B4201D32B
:101F3000CB00C01A524183088B4201D38B00C01AD8
:101F4000524143088B4201D34B00C01A5241884290
:101F500000D3401A5241CFD201461046704708B50F
:101F600000F04CF808BDFEE710B5C200182313407E
:101F7000FF249C40E2438907090E9940002804D5BC
:101F80001A4B0007000F083800E0194B800880004A
:101F9000181803681A401143016010BD80B5FFF79F
:101FA000E3FF01BD10B5401E80214904884201D3E2
:101FB000012010BD0F4C606003210020C043FFF7DB
:101FC000D3FF0020A0600721216010BD094904282B
:101FD000086803D1042202430A6070470422904338
:101FE0000860704780B500F007F801BD1CED00E007
:101FF00000E400E010E000E07047FEE77047FEE715
:1020000000B583B000F010FA00F04CF800F083F84F
:1020100000F010F900220121A020C00500F0DEFA36
:10202000804800F0EFFA804800F044FC642000F0A3
:10203000E9FA012000F01EFB642000F0E3FA002022
:1020400001900090794B1E221E2100BF0FA000F0CE
:102050006FFB002001900090C823C82264216420F7
:1020600000F0F9FB01200190FF2000020090B42352
:10207000B4227821782000F0EEFBF0231B023222FC
:102080009621962000F024FCFEE70000C1E8E1EB79
:10209000E8EEF2E5EAE020E4EBFF204C4744503460
:1020A0003533320010B592B061480168CC4A0A401D
:1020B000C10C114301601020059001200B900024F9
:1020C0000C94A02000020D900E9405A8FFF7AEFB23
:1020D000002800D0FEE70F200090019402940394A2
:1020E000049400216846FFF791FD002800D0FEE728
:1020F000FFF77AFEFA218900FFF7DEFEFFF752FFB5
:102100000420FFF763FF002200210020C043FFF7F7
:1021100045FF12B010BDF0B587B00421B148026888
:102120000A43026002681140009100998021026810
:102130000A4302600268114000910099012601687B
:102140003143016001683140009100990227016824
:102150003943016000683840009000980022032154
:10216000A14800F03BFA01220121A020C00500F0A7
:1021700035FA00226E219D4800F030FA012210212C
:102180009A4800F02BFA7003019000240294039403
:1021900001A9974800F058F9032501950296039488
:1021A000049401A9904800F04FF901960296039417
:1021B000049401A9A020C00500F046F90C2001906C
:1021C0000297039404950620059001A9A020C0055C
:1021D00000F03AF9102001900294039401A9A02084
:1021E000C00500F031F9E0200190029703940495B6
:1021F000059401A9A020C00500F026F9FF20823037
:1022000001900294039401A9784800F01DF97E2002
:10221000019002960394049401A9744800F014F903
:1022200007B0F0BD10270000FFFF00008F880000FE
:102230000070004010B56D4C00224021200000F0DD
:10224000CDF90A2000F091FB01224021200000F08E
:10225000C5F90A2000F089FB0121002000F0D8F91F
:102260000A2000F0CFF93021152000F0D1F94021EB
:10227000112000F0CDF95F49102000F0C9F90021CC
:10228000122000F0C5F95C49132000F0C1F90A20C2
:1022900000F0B8F91021122000F0BAF90A2000F07D
:1022A000B1F95649102000F0B3F95549132000F058
:1022B000AFF90A2000F0A6F980214900012000F0C2
:1022C000A7F9C0218900022000F0A2F94D4903209E
:1022D00000F09EF94C49082000F09AF900210920ED
:1022E00000F096F908210A2000F092F9022141201D
:1022F00000F08EF99C218901602000F089F901210C
:10230000612000F085F9C1214900902000F080F99A
:102310000121932000F07CF91021A32000F078F92E
:102320000A2000F06FF90021302000F071F93749E0
:10233000312000F06DF93649322000F069F9354955
:10234000332000F065F90421342000F061F93249AE
:10235000352000F05DF93149362000F059F9304957
:10236000372000F055F92F4C2100382000F050F9AB
:102370002100392000F04CF90A2000F043F9012136
:10238000072000F045F90A2000F03CF92121072040
:1023900000F03EF92321072000F03AF90A2000F06E
:1023A00031F93321072000F033F90A2000F02AF92F
:1023B000FF213431072000F02BF90021502000F0DC
:1023C00027F9EF21512000F023F90021522000F0DD
:1023D0001FF9FF214031532000F01AF910BD000011
:1023E000FFE7FFFF2C100240001C005000040050CB
:1023F00000080050281600004D10000020260000A4
:102400004D340000301000000406000002050000FA
:102410000703000005030000020400000707000096
:10242000030500000515000080B50648016840223C
:102430000A4302600020FFF72BFD00F0A3FA002002
:1024400002BD000000200240FFB5002329E0062560
:102450006F46BF78BD403543039E35605E4D2E68A4
:10246000E5432E404F68FF0300D526435A4F3E6098
:102470007E682E404F68BF0300D52643564F7E60CE
:10248000BE682E404F68FF0200D52643524FBE6003
:10249000FE6835404E68B60201D52C432500FD602C
:1024A0005B1C0D682C00DC4000D194E001249C40B2
:1024B00002942C40F4D09D006E4675704D68022D3C
:1024C00001D0122D1AD1DD08AD0045192E6A0196F2
:1024D0006E4677781C263E406F463E70019FBC4694
:1024E0006E4637780F26BE406746B743BC460F6935
:1024F0006E463678B740664637432F625E00032744
:10250000B740FD4301954D68012D05D0022D03D044
:10251000112D01D0122D11D18768019D3D40CF684A
:10252000B7402F4387604768029DAF43BC464F6862
:10253000FD06ED0F9D4067463D4345600768019DE0
:102540003D400F79BF07BF0FB7402F430760C768F3
:10255000019D3D408F68BC4637006646BE402E4315
:10256000C6604D68ED009BD51F4D2D6801262E439A
:102570001D4D2E601D4D9E08B600AD1903952E68A9
:102580006D466F780C253D406F46BD706D46AF7847
:102590000F25BD40AE43A025ED05A84201D1002581
:1025A00056E7134DA84201D1012551E7114DA8422C
:1025B00001D102254CE7104DA84201D1032547E780
:1025C0000E4DA84201D1042542E70D4DA84200D08E
:1025D0003DE705253CE7FFBD00040140002A01D08E
:1025E00081617047816270473410024008000140E9
:1025F0000004005000080050000C00500010005073
:10260000001C0050002100E0491C8142FCD37047AF
:10261000C022D2051080034801807047014908801C
:102620007047000000000260DCB502000C00A0262C
:1026300076003D4F3F78012F17D1F02914DAB042D0
:1026400012DA0A00711E0C1A11002020FFF7E0FFB9
:10265000A1B22120FFF7DCFF2220C021C90508809C
:1026600068460088FFF7DAFFD3BDF028FCDAB142F4
:10267000EADBD3BD2C4908707047F9B585B02B480B
:102680000068002805D043789A4202D384789442A7
:1026900001D2002045E0D21A12064368920D9A1822
:1026A0001388DBB202930378049380685288801801
:1026B00000900F00002003E07F1C68460079401C5A
:1026C00069460871684600790499884227DA6846A5
:1026D000858A802424020098007800994978009A1D
:1026E000921C009200020843039000260CE00DA803
:1026F0000078002805D06846028EB9B2A8B2FFF76C
:1027000093FF6D1C6408761CF6B202988642D3DAF9
:10271000039880B22042EAD06846028BEDE7029827
:10272000C0B207B0F0BD00000C0000200000002087
:10273000F8B584B007000D00160000F043F90290D0
:1027400000240EE00BA8007801906846008D0090F0
:102750006846038A3A5D3100A8B2FFF78EFF2D1854
:10276000641C02988442EDDB05B0F0BDF8B584B07E
:1027700006000D001700BE4219D19D420BDA2C0055
:102780006846028DA1B2B0B2FFF74EFF641C0498F8
:1027900084425EDAF4E71C4606E06846028DA1B288
:1027A000B0B2FFF741FF641CAC42F6DB51E09D4242
:1027B00017D1BE420ADA34006846028DA9B2A0B22F
:1027C000FFF732FF641CBC4243DAF5E73C00684681
:1027D000028DA9B2A0B2FFF727FF641CB442F6DB5A
:1027E00037E0581BB91B00D549420191002800D59C
:1027F000404200900021C9430120BE4201DA03900B
:1028000000E003919D4201DA029000E002910198FC
:102810000099441A6846028D99B2B8B2FFF704FFD6
:102820006846028DA9B2B0B2FFF7FEFE60000099C3
:102830004A42824202DA641A039976180199884260
:1028400002DA641802982D18BE42E9D10498854234
:10285000E6D105B0F0BDF4B582B007000C001E0053
:10286000089D099800280AD0A64222D3009523008B
:10287000029A21003800FFF779FF641CF4E7009505
:1028800023003800FFF772FF00953300029A210001
:102890001046FFF76BFF00953300029A31003800B5
:1028A000FFF764FF009533003A0021003800FFF77E
:1028B0005DFFF7BD38B504002220C021C90508809E
:1028C00096256D022000FFF7A9FE6D1EFAD131BDDD
:1028D000FBB582B00025160002205100441A03E027
:1028E000761E7000241A641E002E07D505B0F0BDB8
:1028F000012934DA05006800401C2418684669463E
:102900000989491901806946898989194180028AA2
:1029100041880088FFF788FE68468089871B6846E3
:10292000028AB9B20088FFF77FFE684669460989C6
:10293000491B0180028AB9B20088FFF775FE68461C
:10294000028A41880088FFF76FFEA0194100491EE6
:10295000681C002CCCD4012C01DB0129C0DA050055
:10296000A81B40002418761EBEE711B581B0FFF702
:1029700089FA0400FFF786FA001B01998842F9D30F
:1029800013BDFEE780B50E48016801220A430260CC
:102990004168802252050A4342600022002104203F
:1029A000C043FFF7FBFA002200210120C043FFF7DC
:1029B000F5FA002200210020C043FFF7EFFA01BD25
:1029C00034100240010000E0491C0A78002AFBD1C3
:1029D000081A70470F480168820D0A430260C168F7
:1029E0000D4A0A40C26001680C4A0A4002608168D0
:1029F0000122914381600168094A0A400260C1686E
:102A0000084A0A40C2600021016180200005064991
:102A100008607047001002400C40FF88F6FFF6FE89
:102A2000FFFFFBFFFFFF02FF08ED00E000000000DA
:102A30000000000001020304060708090304060859
:102A40000C1018203000000030B401210268001D75
:102A5000002A0FD00368C318446808300C4202D023
:102A60004D466D1E64191D6825601B1D241D121F17
:102A7000ECD0F8E730BC704710B5074979441831FD
:102A8000064C7C44163404E0081D0A6889188847FF
:102A90000100A142F8D110BD08000000180000009C
:102AA000A9FFFFFF100000008800000000000020C8
:102AB0000000000000F00BF8002801D0FFF7DCFF59
:102AC000002000BF00BFFFF79BFA00F002F80120D2
:102AD000704780B500F002F801BDFEE707463846B2
:102AE00000F002F8FBE7FEE780B500BF00BF024A36
:102AF00011001820ABBEFBE7260002007047FEE77E
:102B00007047704780B500F003F8FFF76BFA01BD1E
:102B100002480168491C0160704700BF080000209E
:102B20000148804701480047D5290008412B00088B
:102B30002018000880841E00000000000000000033
:102B400000BF00BF00BF00BFFFF7B4FFFEE7FEE716
:102B5000FEE7FEE7FEE7FEE7FEE7FEE7FEE7FEE74D
:102B6000FEE7FEE7FEE7FEE7FEE7FEE7FEE7FEE73D
:082B7000FEE7FEE7FEE7FEE7C9
:0400000508002B4183
:00000001FF
