:020000040800F2
:10000000401400203DE600083DE500083FE50008FB
:1000100000000000000000000000000000000000E0
:1000200000000000000000000000000041E50008A2
:10003000000000000000000043E5000845E500085E
:10004000DF340008033A000851E50008B7550008FE
:10005000B756000861E500084B730008E373000819
:100060000000000013A1000887BA000863BB000865
:100070002FCE0008E12C00085FD0000883D40008D0
:1000800073D500086BE500082FE6000800000000AB
:100090003BE6000859E600085BE600085DE600085C
:1000A0005FE6000861E6000863E6000865E6000810
:1000B00067E6000869E60008000000000000000094
:1000C000F8B5254C2178212002F0B7FC6178222078
:1000D00002F0B3FCA178232002F0AFFCE1782520E8
:1000E00002F0ABFCE088010AB520400002F0A5FC5C
:1000F000E188C9B2FF206C3002F09FFC2179B22068
:10010000400002F09AFCFF273F1D7E1E741E651EF4
:1001100012480078002808D001280DD0022813D0FA
:10012000032815D015281BD0162801D100F088FE11
:10013000182800D154E2192801D101F0D1F81A2869
:1001400001D100F02FFC1B2801D101F00FFB1D286D
:1001500001D101F037FDF1BD203000207B020020ED
:100160000421102002F069FC0321112002F065FC3B
:100170000621122002F061FC0121262002F05DFC24
:1001800001216E2002F059FC0121280002F055FCEB
:10019000FC21200002F051FC7F21300002F04DFCD8
:1001A0000021380002F049FC7F21E01C02F045FCF0
:1001B000F321F01C02F041FC0021F81C02F03DFC90
:1001C0000021FF20083002F038FC0021842040008C
:1001D00002F033FC8021FF200A3002F02EFC0021C7
:1001E0008520400002F029FC0021FF200C3002F0A5
:1001F00024FC0021FF20163002F01FFCF421FF2018
:10020000183002F01AFCE9219020400002F015FCA1
:100210008421FF20223002F010FCF92192204000BE
:1002200002F00BFC8421FF20263002F006FC0321A3
:100230009320400002F001FC4621FF20283002F00C
:10024000FCFB0A219420400002F0F7FB1F21FF2055
:100250002A3002F0F2FB1F219520400002F0EDFB56
:100260000621FF202C3002F0E8FB00219620400000
:1002700002F0E3FB0021FF202E3002F0DEFB002124
:10028000FF20303002F0D9FBE9219820400002F035
:10029000D4FB8421FF20323002F0CFFB00219920D3
:1002A000400002F0CAFB0021FF20343002F0C5FB01
:1002B000F7219A20400002F0C0FB8321FF20363056
:1002C00002F0BBFB03219B20400002F0B6FB46215D
:1002D000FF20383002F0B1FB0A219C20400002F0E0
:1002E000ACFB1F21FF203A3002F0A7FB1F219D200D
:1002F000400002F0A2FB0621FF203C3002F09DFBF3
:1003000000219E20400002F098FB0021FF203E309B
:1003100002F093FB16219F20400002F08EFB00218B
:10032000FF20403002F089FBFF21A820400002F0AE
:1003300084FB8421FF20523002F07FFB0021A920A2
:10034000400002F07AFB0021FF20543002F075FBE0
:10035000F621AA20400002F070FB8221FF205630D7
:1003600002F06BFB0321AB20400002F066FB46214C
:10037000FF20583002F061FB0A21AC20400002F05F
:100380005CFB1F21FF205A3002F057FB1F21AD20DC
:10039000400002F052FB0621FF205C3002F04DFBD2
:1003A0000021AE20400002F048FB0021FF205E301B
:1003B00002F043FB1621AF20400002F03EFB00217B
:1003C000FF20603002F039FB0021FF20623002F094
:1003D00034FB0021B120400002F02FFB0021FF2060
:1003E000643002F02AFB0021FF20663002F025FB7A
:1003F0000021B320400002F020FB8121FF20683063
:1004000002F01BFB9921C020400002F016FB0421E2
:10041000FF20843002F011FB0F21C420400002F0C5
:100420000CFB7721FF208A3002F007FB8021880037
:1004300002F003FB0021504802F0FFFA882160001F
:1004400002F0FBFAC8214D4802F0F7FAFF218420A0
:10045000800002F0F2FA0021494802F0EEFA002191
:10046000484802F0EAFA0021474802F0E6FA07217C
:100470008520800002F0E1FA0721444802F0DDFA0D
:10048000FF218620800002F0D8FAFF21404802F0C8
:10049000D4FA0A218720800002F0CFFA0A213D48D1
:1004A00002F0CBFA3E218820800002F0C6FA31210A
:1004B000394802F0C2FA3E21384802F0BEFA312132
:1004C0008920800002F0B9FA0021354802F0B5FA1F
:1004D0007F21344802F0B1FA03218A20800002F023
:1004E000ACFA1221304802F0A8FACB212F4802F0D2
:1004F000A4FA00212E4802F0A0FA0D218C208000E1
:1005000002F09BFA20212B4802F097FA00212A489A
:1005100002F093FA0021CC20800002F08EFA002134
:10052000264802F08AFA0321254802F086FA0421BF
:10053000F120000102F081FA0021224802F07DFA48
:100540000721214802F079FA6821204802F075FA63
:10055000FF211F4802F071FA84211E4802F06DFA53
:1005600098211D4802F069FA08211C4802F065FA3A
:10057000122100F020FC00BF010200000302000075
:100580001102000012020000130200001602000017
:10059000190200001E0200002102000023020000D8
:1005A00025020000260200002A0200002D020000A1
:1005B0002F0200003302000031030000320300006C
:1005C0000D0F0000110F00001C0F0000210F000094
:1005D000220F0000230F0000260F0000340F000040
:1005E0000421102002F029FA0321112002F025FA3B
:1005F0000621122002F021FA0121262002F01DFA24
:1006000001216E2002F019FA0021280002F015FAEB
:10061000FC21200002F011FA6621300002F00DFAF0
:100620000021380002F009FA2721E01C02F005FA47
:10063000D421F01C02F001FA0021F81C02F0FDF9AF
:100640000021FF20083002F0F8F90021842040004A
:1006500002F0F3F98021FF200A3002F0EEF90021C8
:100660008520400002F0E9F90021FF200C3002F063
:10067000E4F90021FF20163002F0DFF9F421FF2019
:10068000183002F0DAF9D7219020400002F0D5F9B5
:100690008421FF20223002F0D0F9982192204000DE
:1006A00002F0CBF9A221FF20263002F0C6F9C321C7
:1006B0009320400002F0C1F94621FF20283002F0CB
:1006C000BCF90A219420400002F0B7F91F21FF2055
:1006D0002A3002F0B2F91F219520400002F0ADF956
:1006E0000621FF202C3002F0A8F9002196204000BE
:1006F00002F0A3F90021FF202E3002F09EF9002124
:10070000FF20303002F099F9D7219820400002F004
:1007100094F98421FF20323002F08FF900219920D2
:10072000400002F08AF90021FF20343002F085F900
:1007300096219A20400002F080F9A121FF20363056
:1007400002F07BF9C3219B20400002F076F946219C
:10075000FF20383002F071F90A219C20400002F09D
:100760006CF91F21FF203A3002F067F91F219D200C
:10077000400002F062F90621FF203C3002F05DF9F2
:1007800000219E20400002F058F90021FF203E3059
:1007900002F053F916219F20400002F04EF900218B
:1007A000FF20403002F049F9FF21A820400002F06C
:1007B00044F98421FF20523002F03FF90021A920A2
:1007C000400002F03AF90021FF20543002F035F9E0
:1007D0009521AA20400002F030F9A021FF205630D8
:1007E00002F02BF9C321AB20400002F026F946218C
:1007F000FF20583002F021F90A21AC20400002F01D
:100800001CF91F21FF205A3002F017F91F21AD20DB
:10081000400002F012F90621FF205C3002F00DF9D1
:100820000021AE20400002F008F90021FF205E30D8
:1008300002F003F91621AF20400002F0FEF800217B
:10084000FF20603002F0F9F80021FF20623002F052
:10085000F4F80021B120400002F0EFF80021FF2061
:10086000643002F0EAF80021FF20663002F0E5F87B
:100870000421B320400002F0E0F80821FF20683096
:1008800002F0DBF89921C020400002F0D6F80421E4
:10089000FF20843002F0D1F80F21C420400002F084
:1008A000CCF87721FF208A3002F0C7F88021880039
:1008B00002F0C3F800212E4802F0BFF88821600042
:1008C00002F0BBF8FE212B4802F0B7F8FF2184208C
:1008D000800002F0B2F80021274802F0AEF80021B3
:1008E000264802F0AAF80021254802F0A6F80721C0
:1008F0008520800002F0A1F80721224802F09DF82F
:10090000FF218620800002F098F8FF211E4802F0A7
:1009100094F80A218720800002F08FF80A211B48F2
:1009200002F08BF83E218820800002F086F8312109
:10093000174802F082F83E21164802F07EF8312175
:100940008920800002F079F80021134802F075F840
:100950007F21124802F071F803218A20800002F002
:100960006CF812210E4802F068F8DD21E0E100BFCA
:100970000102000003020000110200001202000048
:100980001302000016020000190200001E020000FF
:1009900021020000230200002502000026020000C0
:1009A0002A0200000421102002F047F80321112040
:1009B00002F043F80621122002F03FF80121262020
:1009C00002F03BF801216E2002F037F803212800E5
:1009D00002F033F85C21200002F02FF80C213000E7
:1009E00002F02BF80021380002F027F82A21E01C41
:1009F00002F023F85121F01C02F01FF80021F81C2E
:100A000002F01BF80021FF20083002F016F8002148
:100A10008420400002F011F88021FF200A3002F00B
:100A20000CF800218520400002F007F80021FF208B
:100A30000C3002F002F80021FF20163001F0FDFF1B
:100A4000F421FF20183001F0F8FFA421902040008D
:100A500001F0F3FF8421FF20223001F0EEFFA821F6
:100A60009220400001F0E9FFA221FF20263001F092
:100A7000E4FFC3219320400001F0DFFF4621FF2067
:100A8000283001F0DAFF0A219420400001F0D5FF60
:100A90001F21FF202A3001F0D0FF1F2195204000A8
:100AA00001F0CBFF0621FF202C3001F0C6FF002112
:100AB0009620400001F0C1FF0021FF202E3001F000
:100AC000BCFF0021FF20303001F0B7FFA4219820A7
:100AD000400001F0B2FF8421FF20323001F0ADFF71
:100AE00000219920400001F0A8FF0021FF203430B0
:100AF00001F0A3FFA6219A20400001F09EFFA12152
:100B0000FF20363001F099FFC3219B20400001F007
:100B100094FF4621FF20383001F08FFF0A219C20EE
:100B2000400001F08AFF1F21FF203A3001F085FFCD
:100B30001F219D20400001F080FF0621FF203C3056
:100B400001F07BFF00219E20400001F076FF002194
:100B5000FF203E3001F071FF16219F20400001F080
:100B60006CFF0021FF20403001F067FFFF21A8202B
:100B7000400001F062FF8421FF20523001F05DFF50
:100B80000021A920400001F058FF0021FF2054302F
:100B900001F053FFA521AA20400001F04EFFA02143
:100BA000FF20563001F049FFC321AB20400001F087
:100BB00044FF4621FF20583001F03FFF0A21AC20BE
:100BC000400001F03AFF1F21FF205A3001F035FFAD
:100BD0001F21AD20400001F030FF0621FF205C30D6
:100BE00001F02BFF0021AE20400001F026FF002184
:100BF000FF205E3001F021FF1621AF20400001F000
:100C00001CFF0021FF20603001F017FF0021FF20B2
:100C1000623001F012FF0021B120400001F00DFF11
:100C20000021FF20643001F008FF0021FF20663022
:100C300001F003FF2021B320400001F0FEFE44211B
:100C4000FF20683001F0F9FE9921C020400001F03A
:100C5000F4FE0421FF20843001F0EFFE0F21C420B8
:100C6000400001F0EAFE7721FF208A3001F0E5FE26
:100C70008021880001F0E1FE0021544801F0DDFEF2
:100C80008821600001F0D9FEC821514801F0D5FE4D
:100C9000FF218420800001F0D0FE00214D4801F0AA
:100CA000CCFE00214C4801F0C8FE00214B4801F069
:100CB000C4FE07218520800001F0BFFE07214848BF
:100CC00001F0BBFEFF218620800001F0B6FEFF216F
:100CD000444801F0B2FE0A218720800001F0ADFEF9
:100CE0000A21414801F0A9FE3E218820800001F040
:100CF000A4FE31213D4801F0A0FE3E213C4801F018
:100D00009CFE31218920800001F097FE00213948A6
:100D100001F093FE7F21384801F08FFE03218A20E5
:100D2000800001F08AFE1221344801F086FEE321A2
:100D3000334801F082FE0021324801F07EFE0D2191
:100D40008C20800001F079FE20212F4801F075FEF3
:100D500000212E4801F071FE0021CC20800001F01E
:100D60006CFE00212A4801F068FE0321294801F0A9
:100D700064FE0421F120000101F05FFE00212648FD
:100D800001F05BFE0721254801F057FE6821244849
:100D900001F053FEFF21234801F04FFE8421224839
:100DA00001F04BFE9821214801F047FE0821204820
:100DB00001F043FE11211F4801F03FFE25211E488E
:100DC00001F03BFEE1211D484CE200BF01020000A2
:100DD00003020000110200001202000013020000D2
:100DE00016020000190200001E020000210200008D
:100DF0002302000025020000260200002A02000053
:100E00002D0200002F020000330200003103000019
:100E1000320300000D0F0000110F00001C0F000036
:100E2000210F0000220F0000230F0000260F0000FA
:100E3000340F0000350F0000440F00005F0F00006A
:100E40000421102001F0F9FD0021112001F0F5FD31
:100E50006421122001F0F1FD3321182001F0EDFD95
:100E60000121262001F0E9FD01216E2001F0E5FDC0
:100E70000121280001F0E1FDF821200001F0DDFD55
:100E80007F21300001F0D9FD0021380001F0D5FDAF
:100E90007F21E01C01F0D1FDF321F01C01F0CDFD1C
:100EA0000021F81C01F0C9FD0021FF20083001F0ED
:100EB000C4FD00218420400001F0BFFD8021FF20FF
:100EC0000A3001F0BAFD00218520400001F0B5FD97
:100ED0000021FF200C3001F0B0FD0021FF20163072
:100EE00001F0ABFDF421FF20183001F0A6FDE9214F
:100EF0009020400001F0A1FD8421FF20223001F06C
:100F00009CFDF9219220400001F097FD8421FF20F3
:100F1000263001F092FD03219320400001F08DFD69
:100F20004621FF20283001F088FD0A21942040004E
:100F300001F083FD1F21FF202A3001F07EFD1F21DB
:100F40009520400001F079FD0621FF202C3001F0B2
:100F500074FD00219620400001F06FFD0021FF206C
:100F60002E3001F06AFD0021FF20303001F065FDD8
:100F7000E9219820400001F060FD8421FF203230FB
:100F800001F05BFD00219920400001F056FD002199
:100F9000FF20343001F051FDF7219A20400001F08C
:100FA0004CFD8321FF20363001F047FD03219B20BB
:100FB000400001F042FD4621FF20383001F03DFDA8
:100FC0000A219C20400001F038FD1F21FF203A300B
:100FD00001F033FD1F219D20400001F02EFD062170
:100FE000FF203C3001F029FD00219E20400001F04F
:100FF00024FD0021FF203E3001F01FFD16219F201F
:10100000400001F01AFD0021FF20403001F015FDE5
:10101000FF21A820400001F010FD8421FF20523064
:1010200001F00BFD0021A920400001F006FD002188
:10103000FF20543001F001FDF621AA20400001F00C
:10104000FCFC8221FF20563001F0F7FC0321AB208D
:10105000400001F0F2FC4621FF20583001F0EDFC89
:101060000A21AC20400001F0E8FC1F21FF205A308B
:1010700001F0E3FC1F21AD20400001F0DEFC062161
:10108000FF205C3001F0D9FC0021AE20400001F0CF
:10109000D4FC0021FF205E3001F0CFFC1621AF20F0
:1010A000400001F0CAFC0021FF20603001F0C5FCC7
:1010B0000021FF20623001F0C0FC0021B12040007F
:1010C00001F0BBFC0021FF20643001F0B6FC0021E0
:1010D000FF20663001F0B1FC0021B320400001F098
:1010E000ACFC8121FF20683001F0A7FC0421FF2027
:1010F000843001F0A2FC0F21C420400001F09DFCCF
:101100007721FF208A3001F098FC8121680001F0EE
:1011100094FC8021554801F090FC0021600001F012
:101120008CFCF021524801F088FCAA218420800028
:1011300001F083FCCC214F4801F07FFCAA214E48EE
:1011400001F07BFCCC214D4801F077FC7E2186200C
:10115000800001F072FC7E21494801F06EFC8A217A
:101160008720800001F069FC0A21464801F065FCF7
:101170003E218820800001F060FC3121424801F0CE
:101180005CFC3E21414801F058FC3121892080005F
:1011900001F053FC00213E4801F04FFC7F213D4807
:1011A00001F04BFC03218A20800001F046FC17214E
:1011B000394801F042FCDD21384801F03EFC0021B5
:1011C000374801F03AFC0D218C20800001F035FCFD
:1011D0002021344801F031FC0021334801F02DFC7E
:1011E0000021CC20800001F028FC00212F4801F0D4
:1011F00024FC03212E4801F020FC0421F1200001F1
:1012000001F01BFC00212B4801F017FC07212A48A4
:1012100001F013FC6821294801F00FFCFF21284848
:1012200001F00BFC8421274801F007FC9821264897
:1012300001F003FC1221254801F0FFFB2521244881
:1012400001F0FBFBE121234801F0F7FB2248007885
:10125000002800D04DE29721C020400001F0EDFBB6
:1012600028211E4801F0E9FBF1BD00BF010200008A
:10127000030200001102000012020000130200002D
:10128000190200001E0200002102000023020000DB
:1012900025020000260200002A0200002D020000A4
:1012A0002F0200003302000031030000320300006F
:1012B0000D0F0000110F00001C0F0000210F000097
:1012C000220F0000230F0000260F0000350F000042
:1012D000440F00005F0F00007C020020340F00006C
:1012E0000421102001F0A9FB0021112001F0A5FB31
:1012F0006421122001F0A1FB3321182001F09DFB95
:101300000121262001F099FB01216E2001F095FBBF
:101310000121280001F091FBF821200001F08DFB54
:101320007F21300001F089FB0021380001F085FBAE
:101330003321E01C01F081FB2E21F01C01F07DFB2C
:101340000021F81C01F079FB0021FF20083001F09A
:1013500074FB00218420400001F06FFB8021FF20FE
:101360000A3001F06AFB00218520400001F065FB96
:101370000021FF200C3001F060FB0021FF2016301F
:1013800001F05BFBF421FF20183001F056FBE8214F
:101390009020400001F051FB8421FF20223001F019
:1013A0004CFBC8219220400001F047FBC221FF20E6
:1013B000263001F042FB83219320400001F03DFBE9
:1013C0004621FF20283001F038FB0A2194204000FC
:1013D00001F033FB1F21FF202A3001F02EFB1F21DB
:1013E0009520400001F029FB0621FF202C3001F060
:1013F00024FB00219620400001F01FFB0021FF206C
:101400002E3001F01AFB0021FF20303001F015FBD7
:10141000E8219820400001F010FB8421FF203230A9
:1014200001F00BFB00219920400001F006FB002198
:10143000FF20343001F001FBC6219A20400001F06A
:10144000FCFAC121FF20363001F0F7FA83219B20FE
:10145000400001F0F2FA4621FF20383001F0EDFAA9
:101460000A219C20400001F0E8FA1F21FF203A30B9
:1014700001F0E3FA1F219D20400001F0DEFA062171
:10148000FF203C3001F0D9FA00219E20400001F0FD
:10149000D4FA0021FF203E3001F0CFFA16219F2020
:1014A000400001F0CAFA0021FF20403001F0C5FAE7
:1014B000FF21A820400001F0C0FA8421FF20523013
:1014C00001F0BBFA0021A920400001F0B6FA00218A
:1014D000FF20543001F0B1FAC521AA20400001F0EC
:1014E000ACFAC021FF20563001F0A7FA8321AB20CF
:1014F000400001F0A2FA4621FF20583001F09DFA89
:101500000A21AC20400001F098FA1F21FF205A3038
:1015100001F093FA1F21AD20400001F08EFA062160
:10152000FF205C3001F089FA0021AE20400001F07C
:1015300084FA0021FF205E3001F07FFA1621AF20EF
:10154000400001F07AFA0021FF20603001F075FAC6
:101550000021FF20623001F070FA0021B12040002C
:1015600001F06BFA0021FF20643001F066FA0021DF
:10157000FF20663001F061FA0121B320400001F044
:101580005CFA4321FF20683001F057FA0421FF2064
:10159000843001F052FA0F21C420400001F04DFACE
:1015A0007721FF208A3001F048FA8121680001F09C
:1015B00044FA8021514801F040FA0021600001F016
:1015C0003CFAF0214E4801F038FAAA21842080002C
:1015D00001F033FACC214B4801F02FFAAA214A48F6
:1015E00001F02BFACC21494801F027FA7E21862010
:1015F000800001F022FA7E21454801F01EFA8A217E
:101600008720800001F019FA0A21424801F015FAFA
:101610003E218820800001F010FA31213E4801F07F
:101620000CFA3E213D4801F008FA31218920800062
:1016300001F003FA00213A4801F0FFF97F2139480F
:1016400001F0FBF903218A20800001F0F6F917214F
:10165000354801F0F2F9DD21344801F0EEF90021BE
:10166000334801F0EAF90D218C20800001F0E5F902
:101670002021304801F0E1F900212F4801F0DDF987
:101680000021CC20800001F0D8F900212B4801F086
:10169000D4F903212A4801F0D0F90421F1200001F6
:1016A00001F0CBF90021274801F0C7F907212648AE
:1016B00001F0C3F96821254801F0BFF9FF21244852
:1016C00001F0BBF98421234801F0B7F998212248A1
:1016D00001F0B3F91221214801F0AFF9252120488A
:1016E00001F0ABF9E1211F4801F0A7F91E4800788D
:1016F000002801D000F072FCADE500BF010200003F
:101700000302000011020000120200001302000098
:10171000190200001E020000210200002302000046
:1017200025020000260200002A0200002D0200000F
:101730002F020000330200003103000032030000DA
:101740000D0F0000110F00001C0F0000210F000002
:10175000220F0000230F0000260F0000350F0000AD
:10176000440F00005F0F00007C02002004211020C5
:1017700001F063F90021112001F05FF964211220CA
:1017800001F05BF93321182001F057F901212620DF
:1017900001F053F901216E2001F04FF900212800DA
:1017A00001F04BF9FC21200001F047F92021300025
:1017B00001F043F90021380001F03FF92821E01C35
:1017C00001F03BF9A021F01C01F037F90021F81CD1
:1017D00001F033F90021FF20083001F02EF900213B
:1017E0008420400001F029F98021FF200A3001F017
:1017F00024F900218520400001F01FF90021FF207D
:101800000C3001F01AF90021FF20163001F015F913
:10181000F421FF20183001F010F9C521902040007C
:1018200001F00BF98421FF20223001F006F9A821F4
:101830009220400001F001F9A221FF20263001F0A2
:10184000FCF8C3219320400001F0F7F84621FF2067
:10185000283001F0F2F80A219420400001F0EDF860
:101860001F21FF202A3001F0E8F81F2195204000B9
:1018700001F0E3F80621FF202C3001F0DEF8002112
:101880009620400001F0D9F80021FF202E3001F011
:10189000D4F80021FF20303001F0CFF8C521982086
:1018A000400001F0CAF88421FF20323001F0C5F871
:1018B00000219920400001F0C0F80021FF203430C1
:1018C00001F0BBF8A6219A20400001F0B6F8A12152
:1018D000FF20363001F0B1F8C3219B20400001F019
:1018E000ACF84621FF20383001F0A7F80A219C20EF
:1018F000400001F0A2F81F21FF203A3001F09DF8CE
:101900001F219D20400001F098F80621FF203C3067
:1019100001F093F800219E20400001F08EF8002194
:10192000FF203E3001F089F816219F20400001F091
:1019300084F80021FF20403001F07FF8FF21A8202B
:10194000400001F07AF88421FF20523001F075F850
:101950000021A920400001F070F80021FF20543040
:1019600001F06BF8A521AA20400001F066F8A02143
:10197000FF20563001F061F8C321AB20400001F098
:101980005CF84621FF20583001F057F80A21AC20BE
:10199000400001F052F81F21FF205A3001F04DF8AD
:1019A0001F21AD20400001F048F80621FF205C30E7
:1019B00001F043F80021AE20400001F03EF8002184
:1019C000FF205E3001F039F81621AF20400001F011
:1019D00034F80021FF20603001F02FF80021FF20B3
:1019E000623001F02AF80021B120400001F025F812
:1019F0000021FF20643001F020F80021FF20663034
:101A000001F01BF80C21B320400001F016F89A21D8
:101A1000FF20683001F011F80421FF20843001F02C
:101A20000CF80F21C420400001F007F87721FF20B7
:101A30008A3001F002F88121680000F0FEFF802169
:101A4000484800F0FAFF0021600000F0F6FFF021A6
:101A5000454800F0F2FFAA218420800000F0EDFF4D
:101A6000CC21424800F0E9FFAA21414800F0E5FFFF
:101A7000CC21404800F0E1FF7E218620800000F06C
:101A8000DCFF7E213C4800F0D8FF8A2187208000BF
:101A900000F0D3FF0A21394800F0CFFF3E21882013
:101AA000800000F0CAFF3121354800F0C6FF3E211A
:101AB000344800F0C2FF31218920800000F0BDFFD2
:101AC0000021314800F0B9FF7F21304800F0B5FF18
:101AD00003218A20800000F0B0FF17212C4800F07D
:101AE000ACFFDD212B4800F0A8FF00212A4800F0C0
:101AF000A4FF0D218C20800000F09FFF20212748AB
:101B000000F09BFF0021264800F097FF0021CC2029
:101B1000800000F092FF0021224800F08EFF032198
:101B2000214800F08AFF0421F120000100F085FF28
:101B300000211E4800F081FF07211D4800F07DFFB5
:101B400068211C4800F079FFFF211B4800F075FF59
:101B500084211A4800F071FF9821194800F06DFFA8
:101B60001121B8E50102000003020000110200008B
:101B70001202000013020000190200001E02000001
:101B800021020000230200002502000026020000BE
:101B90002A0200002D0200002F0200003302000084
:101BA00031030000320300000D0F0000110F000090
:101BB0001C0F0000210F0000220F0000230F000067
:101BC000260F00000421102000F037FF0021112013
:101BD00000F033FF6421122000F02FFF3321182082
:101BE00000F02BFF0121262000F027FF01216E20AD
:101BF00000F023FF0B21280000F01FFFD12120005F
:101C000000F01BFF0221300000F017FF0021380018
:101C100000F013FF3821E01C00F00FFF6C21F01CD6
:101C200000F00BFF0021F81C00F007FF0021FF204F
:101C3000083000F002FF00218420400000F0FDFE8B
:101C40008021FF200A3000F0F8FE002185204000AE
:101C500000F0F3FE0021FF200C3000F0EEFE00212A
:101C6000FF20163000F0E9FEF421FF20183000F0CC
:101C7000E4FE83219020400000F0DFFE8421FF205D
:101C8000223000F0DAFEE8219220400000F0D5FE7C
:101C9000E221FF20263000F0D0FE83219320400077
:101CA00000F0CBFE4621FF20283000F0C6FE0A21BE
:101CB0009420400000F0C1FE1F21FF202A3000F0D8
:101CC000BCFE1F219520400000F0B7FE0621FF203A
:101CD0002C3000F0B2FE00219620400000F0ADFE56
:101CE0000021FF202E3000F0A8FE0021FF20303020
:101CF00000F0A3FE83219820400000F09EFE842186
:101D0000FF20323000F099FE00219920400000F0C1
:101D100094FE0021FF20343000F08FFEE6219A204F
:101D2000400000F08AFEE121FF20363000F085FE01
:101D300083219B20400000F080FE4621FF203830A8
:101D400000F07BFE0A219C20400000F076FE1F215F
:101D5000FF203A3000F071FE1F219D20400000F06E
:101D60006CFE0621FF203C3000F067FE00219E2023
:101D7000400000F062FE0021FF203E3000F05DFEDA
:101D800016219F20400000F058FE0021FF20403027
:101D900000F053FEFF21A820400000F04EFE8421F9
:101DA000FF20523000F049FE0021A920400000F041
:101DB00044FE0021FF20543000F03FFEE521AA2020
:101DC000400000F03AFEE021FF20563000F035FEE2
:101DD0008321AB20400000F030FE4621FF20583028
:101DE00000F02BFE0A21AC20400000F026FE1F214F
:101DF000FF205A3000F021FE1F21AD20400000F0EE
:101E00001CFE0621FF205C3000F017FE0021AE20F2
:101E1000400000F012FE0021FF205E3000F00DFEB9
:101E20001621AF20400000F008FE0021FF206030A6
:101E300000F003FE0021FF20623000F0FEFD0021D3
:101E4000B120400000F0F9FD0021FF20643000F0D7
:101E5000F4FD0021FF20663000F0EFFD9121B3205A
:101E6000400000F0EAFD3021FF20683000F0E5FD81
:101E70000421FF20843000F0E0FD0F21C420400049
:101E800000F0DBFD7721FF208A3000F0D6FD8121B4
:101E9000680000F0D2FD8021814800F0CEFD0021D5
:101EA000600000F0CAFDF0217E4800F0C6FDAA21C6
:101EB0008420800000F0C1FDCC217B4800F0BDFDF6
:101EC000AA217A4800F0B9FDCC21794800F0B5FD8F
:101ED0007E218620800000F0B0FD7E21754800F054
:101EE000ACFD8A218720800000F0A7FD0A219748D9
:101EF00000F0A3FD3E218820800000F09EFD3121EE
:101F0000934800F09AFD3E21924800F096FD312161
:101F10008920800000F091FD0021964800F08DFDA1
:101F20007F21954800F089FD03218A20800000F080
:101F300084FD1721914800F080FDE821904800F0D1
:101F40007CFD00218F4800F078FD0D218C20800061
:101F500000F073FD00218C4800F06FFD00218B48DC
:101F600000F06BFD0021CC20800000F066FD002118
:101F7000874800F062FD0321864800F05EFD0421E1
:101F8000F120000100F059FD00219E4800F055FDB0
:101F900007219D4800F051FD68219C4800F04DFD4F
:101FA000FF219B4800F049FD84219A4800F045FD3F
:101FB0009821994800F041FD1121984800F03DFD1D
:101FC0002521974800F039FDE121964800F035FDC4
:101FD00095480078002801D1FFF73DF99921C020EC
:101FE000400000F02AFD0821FFF73BF980B50021F1
:101FF000C220400000F021FD0F21080200F01DFD6D
:1020000006218A4800F019FD894800788649097838
:10201000002915D0022826D9C01E0BD0123801285D
:1020200021D9C01E01281ED9801E03D0401E1AD0FF
:10203000801E34D10921302000F0FFFC022117E07E
:1020400002281AD9C01E1ED012380CD0401E14D03F
:10205000801E08D0401E10D0401EEBD0401E0CD079
:10206000801E10D001BD0721302000F0E6FC1221B7
:10207000312000F0E2FC20210EE00B21302000F0A6
:10208000DCFC102104E00921302000F0D6FC022104
:10209000312000F0D2FC2421322000F0CEFC01BD22
:1020A0000102000003020000110200001202000001
:1020B000130200001902000010B55C4C5A48007869
:1020C000002814D15A48007802281ED9C01E22D0F8
:1020D00012380CD0401E18D0801E08D0401E14D0DC
:1020E000401E04D0401E10D0801E14D023E00721D3
:1020F000302000F0A2FC0821312000F09EFC2021BD
:10210000322000F09AFC062112E00B21302000F072
:1021100094FC102104E00921302000F08EFC012104
:10212000312000F08AFC2421322000F086FC0221BC
:10213000200000F082FC0021C220400000F07DFC65
:102140000F21080200F079FC10BD00001E02000003
:10215000210200002302000080B50021354800F074
:102160006CFC0021344800F068FC00215B4800F062
:1021700064FC01BD25020000260200002A020000C6
:102180002D0200002F020000330200003103000086
:10219000320300000D0F000080B5FF21FF20183032
:1021A00000F04BFC0021AE20400000F046FC002176
:1021B000FF205E3000F041FCA82040001C49097857
:1021C000002912D0491E16D0491E12D0491E0ED029
:1021D0001239012909D9C91E01290CD9891E0CD02F
:1021E000491E06D0891E02D001BDE92106E0A521C5
:1021F00004E0E72102E0E82100E0C62100F01DFC38
:1022000001BD0000110F00001C0F0000210F000095
:10221000220F0000230F0000260F0000350F0000E2
:10222000440F00005F0F00007C020020180F000028
:102230007B020020270200002902000010B50100E7
:1022400024D40816C0B20A02120E0B041B0EC9B227
:10225000A524614330245C430919E8245443091937
:10226000090AA5246343C91830235343C918E82336
:102270004343C918A5235A4330234343D2181202BB
:102280008918A52250430004081810BD48420100D7
:102290000816C0B20A02120E0B041B0EC9B2A42407
:1022A000E443614330245C43091BE8245443091B85
:1022B0000912A5246343C91A30235343C91AE823DA
:1022C0004343C91AA5235A4330234343D218120269
:1022D000891AA52250430004081A10BD31020000DB
:1022E000801181104018C91040188910401870479B
:1022F00010B50C002749097803290DD9153913D0D9
:10230000491E09D0891E0FD0491E05D0491E0BD089
:10231000491E01D0891E09D10022D243210000F0BC
:1023200079FC1D49884201D1200010BD002010BD5C
:1023300038B504000D0017480078032810D9153867
:102340000CD0401E0CD0801E08D0401E08D0401E6D
:1023500004D0401E04D0801E02D018E0280032BDF8
:102360000022D243200000F055FC6419C1B2CA43D8
:1023700022700104090ECA4362700102090ECA43A9
:10238000A270000EC143E1702D1DA8B232BD002025
:1023900032BD00007B020020E320BBDEF8B5B4486C
:1023A0000078694608700020FF240A2107250226CC
:1023B0000122B04BB04F3F78002F08D0012F0AD038
:1023C000022F0DD0032F0ED0152F0FD0162F71D046
:1023D000182F0BD0192F00D1DBE01A2F06D01B2F9E
:1023E00000D14BE11D2F00D1C8E1F1BD1A7058702A
:1023F0009A70DC4A5A63D970992119715871412138
:102400009963402199713A21D9713421C9431972D4
:102410009D8458729872D872D88460211985588525
:1024200098851C73182159739873D873187458744D
:102430009874DC741875882159759875D8750821B9
:102440001976C9491A0020320D681560182159768D
:1024500098765521D963E4311964DE761C77587774
:102460008021D985A021C902596431219964F021C4
:102470000903D964B421C903196596214904596532
:10248000BA4919860B2199770321D9770021B84AD7
:102490008C0015591C19A565491C0329F8DBB549A1
:1024A00082008C589A185466401C0328F8DBB24806
:1024B0001867F1BD1A7058709A70587120279F6381
:1024C00040279F713A27DF712227FF431F729D84A7
:1024D00058729872D872DA8460251D855A8548250D
:1024E0009D857E251D7338255D739873D8731E7482
:1024F0005A749A74DC74187558759C75D8752025B3
:102500001D76D64D1E0020362F68376018255D7663
:102510009876FF253A351D64D8761C778024DC85B3
:10252000CF4C5C6431249C64CE4CDC64B424E40362
:102530001C65962464045C65CB4C1C860B249C773C
:102540000324DC770024C94DA600AF599E19B76556
:10255000641C032CF8DB0024C54DA600AF599E195E
:102560007766641C032CF8DBC24C1C676C4624782D
:10257000002C06D0C0485863D97099201871BF4804
:10258000E3E0BF4959630921D97097211971BD4909
:10259000E5E01A7058709A70587151279F63402770
:1025A0009F713A27DF712227FF431F729D84587263
:1025B0009872D872DA8488251D855A8548259D85AC
:1025C0007E251D7338255D739873D8731E745A74F5
:1025D0009A74DC74187558759C75D87520251D760D
:1025E000A94D1E0020362F68376018255D76987635
:1025F000FF253A351D64D8761C778024DC85984CFD
:102600005C6431249C64974CDC64B424E4031C6552
:10261000962464045C65944C1C860B249C770324EC
:10262000DC770024994DA600AF599E19B765641C4C
:10263000032CF8DB0024964DA600AF599E1977664F
:10264000641C032CF8DB934C1C676C462478002C2C
:1026500006D089485863D970992018718E4874E063
:10266000874959630921D970972119718B4976E0FF
:102670007C020020000000207B0200201A705870AD
:102680009A705871864F9F6340279F713927DF7179
:102690002227FF431F729D8458729872D8720325B7
:1026A000DD84A0251D855A8548259D857E251D73C1
:1026B00038255D739873D8731E745A749A74DC74D9
:1026C000187558759C75D87520251D76754D1E009A
:1026D00020362F68376018255D769876FF253A35C5
:1026E0001D64D8761C778024DC855D4C5C643124C5
:1026F0009C645C4CDC64B424E4031C659624640490
:102700005C65594C1C860B249C770324DC770024E1
:10271000654DA600AF599E19B765641C032CF8DB04
:102720000024624DA600AF599E197766641C032CE5
:10273000F8DB5F4C1C676C462478002C08D04E48B0
:102740005863D970992018718420D8635A77F1BDE5
:102750004B4959630921D970972119718021D96397
:102760005877F1BDA1176A21C4E30008A316000041
:10277000C8E30008D4E300085D5F01001A705870D8
:102780009A7058714B4F9F6340279F713927DF71B3
:102790001727FF431F729D8458729872D8721C25A8
:1027A000DD8448251D855A859D857E251D73382528
:1027B0005D739873D8731E745A749A74DC741875A8
:1027C00058759C75D87520251D763B4D1E0020360A
:1027D0002F68376018255D7698760E25DD63FF2516
:1027E0003A351D64D8761C775A778022DA854A03F9
:1027F0005A6431229A64F0229202DA64B422D2033B
:102800001A65962252045A652C4A1A860B229A7728
:102810000322DA7700222A4C950066595D19AE65CD
:10282000521C032AF8DB274A840015591C196566D7
:10283000401C0328F8DB2448186768460078002805
:1028400004D00D485863D970992004E00C485863AF
:102850000920D87097201871F1BD00BFE0E300088F
:102860007FEA02007DBF0800CF0F0000E4E300080C
:10287000F0E300081F450200B1133B219E0C00004D
:10288000776227112D0C0000FCE3000800E400082B
:102890000CE4000873E800000E050000E1040000ED
:1028A0002703000018E400081CE4000828E40008DE
:1028B0003F1700004C24000034E40008590A0000CF
:1028C00038E4000844E40008F1030000D04A0A2874
:1028D0001DD801A31B5C9F440A0E12161A1E222645
:1028E0002A2E320011607047516070479160704726
:1028F000D1607047116170475161704791617047B5
:10290000D1617047116270475162704791627047A0
:1029100080B50021022000F090F80121022000F093
:102920008CF801BD80B523E080B58021022000F045
:1029300084F80021022000F080F8002000F0A8F8C0
:10294000512801D0012002BD5521012000F075F869
:10295000012000F09DF8552808D1AA21012000F09F
:102960006CF8012000F094F8AA2801D0022002BDE2
:1029700000F004F8002800D0032002BD38B500F0B4
:1029800049FA0121242000F058F8A14D2869804718
:1029900004000021242000F050F828698047050039
:1029A0000321242000F049F8002C01D0002D07D08D
:1029B0000221242000F041F800F027FA012032BD66
:1029C00000F023FA002032BD3EB504000D0000F0F7
:1029D00021FA002000F035FA29206946087001210B
:1029E000684600F026FA04E00121200000F01DFAFC
:1029F000641C2800451E0006F6D118E03EB5040010
:102A00000D0000F007FA002000F01BFAA92069462B
:102A100008700121684600F00CFA04E00121200052
:102A200000F007FA641C2800451E0006F6D10120BC
:102A300000F007FA00F0E9F937BDF0B587B00400FF
:102A40000F0000F0E7F9802503AE702C0DD32000B5
:102A5000E024E4010443002000F0F3F9200A0543D8
:102A600035707470B770032206E0002000F0E9F9B9
:102A70002543357077700222694603A800F0DDF91E
:102A8000012000F0DEF900F0C0F9012007B0F0BD30
:102A9000F0B587B0040000F0BDF900256F4603AE25
:102AA000702C16D32000E024E4010443002000F041
:102AB000C8F9200A30707470B5700322694603A803
:102AC00000F0BBF9012000F0BCF900F09EF9B878E5
:102AD0000FE0002000F0B5F93470757002226946ED
:102AE00003A800F0AAF9012000F0ABF900F08DF97D
:102AF000787807B0F0BDF0B587B0040000F08AF92F
:102B000000256F4603AE702C18D32000E024E401AA
:102B10000443002000F095F9200A3070747075802D
:102B20000422694603A800F088F9012000F089F921
:102B300000F06BF9B8780002F97812E0002000F09C
:102B400080F934707570B5700322694603A800F0EF
:102B500074F9012000F075F900F057F97878000257
:102B6000B978084307B0F0BDF0B587B0040000F0B5
:102B700051F900256F4603AE702C1CD32000E024D1
:102B8000E4010443002000F05CF9200A3070747006
:102B9000758035710522694603A800F04EF90120C1
:102BA00000F04FF900F031F9B8780004F978090223
:102BB0000143387915E0002000F043F93470757056
:102BC00075800422694603A800F037F9012000F05F
:102BD00038F900F01AF978780004B978090201434D
:102BE000F878084307B0F0BD80B501002620FFF754
:102BF00024FF01BD0648806A002800D1704780B5D7
:102C0000002000F02AF9012000F027F901BD0000A2
:102C1000182F002038B505000C001000210006D048
:102C2000297800F069FA6D1C641E2104F8D132BDC8
:102C300010B5AD4CB8482060822040006060002094
:102C4000A060E0602061606180218900A161E06195
:102C500020626062A0620720E062200000F056FA65
:102C6000002804D0662100BF10A000F037FC2068C7
:102C7000016840220A43026010BD000080B5A848E8
:102C8000A849416000218160A0221201C260A64AC9
:102C9000826141628162C162001D00F021FC002856
:102CA00003D0772101A000F019FC01BD433A5C5527
:102CB000736572735C5365726765795C446F6375A5
:102CC0006D656E74735C4941525C4465764B697402
:102CD0005C5372635C726164696F2E630000000074
:102CE0008F484068012102680A4000D1704780B5D2
:102CF000416000F077FC01BDF3B581B000200021F8
:102D0000894AFA239B006F461DE0774C2468E060F7
:102D10006D462B80A568ED0705D46D462D88AE184D
:102D20003E80002DF6D16D462B80A5682D0605D579
:102D30006D462D88AE183E80002DF6D1E468019DC9
:102D400089B26C54491C6D462D898CB2AC42DCD3DF
:102D5000F7BDF1B582B00020734AFA239B006F469D
:102D600021E0614C2468029D80B22D5CE5606D46D7
:102D70002B80A568AD0705D46D462D88AE183E8022
:102D8000002DF6D16D462B80A5682D0605D56D4624
:102D90002D88AE183E80002DF6D1E5680195A46817
:102DA0000194019C401C84B28C42DAD3F7BDF3B588
:102DB00081B000205C49FA239B006F461EE04A4C1C
:102DC0002468019D2D5CE5606D462B80A568ED07AC
:102DD00005D46D462D886E183E80002DF6D16D46C7
:102DE0002B80A5682D0605D56D462D886E183E8072
:102DF000002DF6D1E468029D2C54401C9042DEDB8D
:102E0000F7BD62B6704772B6704780B5052000F016
:102E1000C9FC01BD80B5052000F0CBFC01BD80B52B
:102E20000121864800F0C4FD02BD80B5FFF764FFB4
:102E300001BD80B5FFF78DFF01BD80B5FFF7B7FF7E
:102E400001BD80B501007D48002901D0012200E0CC
:102E50000022022100F0B2FD01BD704730484068F9
:102E6000816801220A43826070472D48406881686A
:102E70000122914381607047294840684161704751
:102E800027484068406980B2704710B5244A5068AE
:102E9000C16910888BB2834204D289B2431A684C4C
:102EA000A34201DB118088B210BD1D484068016853
:102EB000C807C00F704701210170704700210170E1
:102EC0007047002101707047002100BF78A2535C59
:102ED0004354491C3429FAD1704780B534225949EA
:102EE00000F090FD01BD0000282E002038B505003F
:102EF00000F0B6FD00280ED100242A5D51482118AB
:102F0000002000F0C0FD002803D1641CE4B2342C82
:102F1000F3D100F0B1FD31BD003001407047000039
:102F2000B42E0020007C0040FFFF000030B585B0CB
:102F3000FFF7A4FE4449454800F026FBFFF778FE62
:102F4000434D29000020FFF7C1FC424C2100012025
:102F5000FFF7BCFC40490220FFF7B8FC3F490320C3
:102F6000FFF7B4FC3E490420FFF7B0FC3D490520C3
:102F7000FFF7ACFC3C490620FFF7A8FC3B490720C3
:102F8000FFF7A4FC3A490820FFF7A0FC39490A20C2
:102F9000FFF79CFC01220221284800F00FFD2900C8
:102FA000002000F005FB2100012000F001FB324968
:102FB000022000F0FDFA3149032000F0F9FA30490F
:102FC000042000F0F5FA2F49052000F0F1FA2E490F
:102FD000062000F0EDFA2D49072000F0E9FA00F094
:102FE00024FB2B49012000F07DFD2A49022000F03E
:102FF00079FD2949032000F075FD2849042000F0DF
:1030000071FD2749062000F06DFD2649072000F0DC
:1030100069FD2549052000F065FD684631A11422AF
:1030200000F004FD214800680090684602F0BEF8F8
:10303000002001F05BFC05B030BD00000004005032
:103040001027000000140808FFFF0000B82E002021
:10305000032E0008072E00080B2E0008152E00086E
:103060001F2E00082B2E0008332E00083B2E0008D0
:10307000432E00085B2E00085D2E00086B2E000812
:10308000792E0008812E00088B2E0008AB2E000838
:10309000B72E0008BD2E0008C32E00081D2F000803
:1030A000DB2E0008ED2E0008C92E000880FF010865
:1030B00002150001010208000000000000FF0000EE
:1030C0000000000000000000000000000000000000
:1030D00000000F006054FF005874C83300987F331D
:1030E000000000000000000084FF0108000FFF0046
:1030F00001000000008D2700020A034BC0B24140CE
:1031000088001858504070471CDF000870B5040054
:1031100001D1012070BD25005035002668780028B7
:1031200003D12E70200002F09DF802206870206804
:1031300001684022914301606068A1680143E06832
:1031400008432169014360690843A169D200114025
:103150000143E0690843216A0143A06A08432168EA
:103160000860A069000C04210840616A01432068DE
:103170004160E06A216808612068C169034A0A4029
:10318000C2616E6001206870002070BDFFF7FFFF14
:103190000120C24908707047704738B502F08CF8BA
:1031A00000F05BF800F0F5F8BD4DBE4828608220C5
:1031B000400068600024AC60EC602C616C61802091
:1031C000C002A861EC612C626C62AC620720E8620C
:1031D0002800FFF79BFF002800D0FEE7B248A86553
:1031E000EC65A02000012866B048E866AC67EC6793
:1031F00080202C502800583000F072F9002800D0B0
:10320000FEE700F07EF800220021052000F0C6FA5B
:10321000052000F0C7FA002201210D2000F0BEFABF
:103220000D2000F0BFFAFFF781FE02F0BEF9012089
:1032300002F034FA03F0DEF803F0CCF8974D02F018
:10324000CCF92978014304D02C7000F03AFA03F04D
:10325000C1F8012000F04AFDF1E710B59AB0944C96
:10326000944801682140C20C0A43026003F01AF935
:10327000914801680C40046006200D90FA300F90D0
:103280000120109010201190022016900024179415
:1032900040041890000119900DA803F00FF90028C0
:1032A00000D0FEE70F2000900320019002940394C9
:1032B00004940121684603F0F1FA002800D0FEE7EB
:1032C000A0200590802040020690C02000030C90B2
:1032D00005A803F01FFC002800D0FEE703F0CCFB9C
:1032E000FA21890003F001FD00F06AFA042000F0E1
:1032F0007BFA002201210020C04300F04FFA1AB0EF
:1033000010BD70B590B06D4D6D48286000246C60A4
:103310007F20A860FF20E8602C616C61AC61EC61EB
:10332000280003F039FD002800D0FEE70BA8048038
:1033300084700E940F9400220BA9280003F07CFDEA
:10334000002800D0FEE701266846067046708670A9
:10335000C47000226946280003F013FE002800D044
:10336000FEE701A8048084700294049405945549F2
:1033700006910794089420214654C8000A90002220
:1033800001A9280003F084FE002800D0FEE710B059
:1033900070BDF0B587B004214B4802680A43026053
:1033A0000268114000910099802102680A4302607E
:1033B00002681140009100990124016821430160D5
:1033C000016821400091009902270168394301609A
:1033D0000068384000900098002203213B4800F02C
:1033E000EDFA01220121A020C00500F0E7FA002239
:1033F0006E21374800F0E2FA01221021344800F033
:10340000DDFA6003019000250295039401A931487B
:1034100000F004FA0326019602940395049501A98D
:103420002A4800F0FBF9019402940395049501A940
:10343000A020C00500F0F2F90C200190029703953E
:1034400004960620059001A9A020C00500F0E6F929
:10345000102001900295039401A9A020C00500F05E
:10346000DDF901941C480290039501A9184800F069
:10347000D5F97E20019002940395049501A9144882
:1034800000F0CCF9F00101900295039401A91048D5
:1034900000F0C4F907B0F0BD00000000403000208B
:1034A000202D002000300140007C0040FFFF000084
:1034B000FFE7FFFF0070004050100240442F002043
:1034C00000280040808080802C100240001C0050AA
:1034D000000400500008005000001110FEE7FEE755
:1034E000F8B5040001D10120F2BD25002D35687822
:1034F000002803D12870200001F094FE022068709B
:103500002168CF686268012A01D11E208743636960
:103510001A4EB34202D03800194F074019483840BC
:103520001043A7680743206A3843676A0743A06AC5
:103530003843012A04D10700E26820691043384368
:10354000B34205D00600A2691A43E0691043304334
:10355000C860012068700020F2BD036801221C6968
:1035600014431C610368996101680B6904241C43BE
:103570000C612E214254002010BD0000FFFF00000E
:103580003F1FFFFFFEF119FF10B502222E23C25488
:103590004268012A09D0826A80231B049A4204D11E
:1035A0000268D368014C1C40D460D6E7FFF1FFFFEE
:1035B0005C4A072815D801A31B5C9F44060A0E121B
:1035C000161A1E2211607047516070479160704753
:1035D000D1607047116170475161704791617047C8
:1035E000D161704780B50020FFF73FFC00F04CF838
:1035F00000F02BF801BD70B504000020FFF735FC8A
:103600000025494EB561002C03D0B58000F03CF890
:1036100005E00020FFF739FCB0803560B56000F0B0
:1036200014F80020FFF71AFC70BD80B5FFE70020FA
:10363000FFF7E1FF01BD3D4900E011000A68002AE3
:10364000FBD1086000210160704710B5364C03E0E3
:103650000168A160FFF7EFFFA068002808D021688B
:103660008268891AF4D53248814201DBA08802E0E1
:10367000A08880214901411A89B20020FFF7FCFB94
:103680000020FFF7EBFB10BD80B50020FFF7FDFB2E
:1036900025498A888880801A020403D00A6880B28B
:1036A0001018086001BD10B5224900E011000A6839
:1036B000002A03D0836894681B1BF7D5026008605A
:1036C00010BD38B50024FFF79EFBFFF7DDFFFFF7C5
:1036D000BCFF09E029688161FFF793FB641C2800A7
:1036E00069688847FFF78FFB0F488569002DF1D186
:1036F0000020FFF7CAFB05000020FFF7C1FB281AD6
:1037000080B280214901884204DB0020FFF7CDFB15
:10371000050000D00125FFF774FB002DD3D1E0B2E6
:1037200032BD0000682F0020882F0020A02F00202D
:103730000010FFFF902F0020F8B504000F001500C7
:103740001E0003F03DFEA660002D04D003F028FE0D
:10375000A1680818A060380000D06760200003F05E
:1037600005FEF1BD0020704710B5C20018231340BC
:10377000FF249C40E2438907090E9940002804D5A4
:10378000214B0007000F083800E0204B8008800024
:10379000181803681A401143016010BD80B5FFF787
:1037A000E3FF01BD0121C006C00E81401848016041
:1037B00070470121C006C00E814016480160704765
:1037C00010B5401E80214904884201D3012010BD5C
:1037D000114C606003210020C043FFF7C5FF0020AB
:1037E000A0600721216010BD0B490428086803D19F
:1037F000042202430A607047042290430860704725
:1038000080B5FFF7C9FC01BD1CED00E000E400E05D
:1038100000E100E080E100E010E000E0FFB50023FF
:1038200029E006256F46BF78BD403543039E3560CD
:103830005E4D2E68E5432E404F68FF0300D52643BA
:103840005A4F3E607E682E404F68BF0300D5264326
:10385000564F7E60BE682E404F68FF0200D526435B
:10386000524FBE60FE6835404E68B60201D52C430B
:103870002500FD605B1C0D682C00DC4000D194E04D
:1038800001249C4002942C40F4D09D006E4675703B
:103890004D68022D01D0122D1AD1DD08AD00451959
:1038A0002E6A01966E4677781C263E406F463E7023
:1038B000019FBC466E4637780F26BE406746B74329
:1038C000BC460F696E463678B740664637432F626E
:1038D0005E000327B740FD4301954D68012D05D0DB
:1038E000022D03D0112D01D0122D11D18768019D19
:1038F0003D40CF68B7402F4387604768029DAF4384
:10390000BC464F68FD06ED0F9D4067463D43456050
:103910000768019D3D400F79BF07BF0FB7402F4398
:103920000760C768019D3D408F68BC46370066460A
:10393000BE402E43C6604D68ED009BD5284D2D68D6
:1039400001262E43264D2E60264D9E08B600AD1949
:1039500003952E686D466F780C253D406F46BD700F
:103960006D46AF780F25BD40AE43A025ED05A842BA
:1039700001D1002556E71C4DA84201D1012551E790
:103980001A4DA84201D102254CE7194DA84201D198
:10399000032547E7174DA84201D1042542E7164DFC
:1039A000A84200D03DE705253CE7FFBD00040140EB
:1039B0000069084000D00120C0B27047002A01D041
:1039C00081617047816270470C4A1368034000D1DF
:1039D000704780B5106000F013F801BD00000000D2
:1039E000341002400800014000040050000800505C
:1039F000000C005000100050001C00501404014046
:103A00007047FEE7124207D08B0706D00B78491C9F
:103A10000370401C521EF7D87047830706D00B78FE
:103A2000491C0370401C521EF9D1704770B4103A03
:103A300003D378C9103A78C0FBD2530701D318C911
:103A400018C001D508C908C0D20704D30B88038069
:103A5000891C801C002A01D50B78037070BC70474C
:103A60001C480168C90705D51B4981601B49816055
:103A700000207047012070471648016801220A4360
:103A8000026000207047F2B507001400104D287C3A
:103A9000012801D10220F2BD01202874104803F052
:103AA000A1FC0026010010D16E610099022F01D106
:103AB0000C600AE0012F01D10C8006E0002F01D13B
:103AC0000C7002E0064803F08DFC2E74F2BD00007D
:103AD000A42F002004200240EFCDAB89050403028F
:103AE00050C300007F4A401E0B2820D801A31B5C56
:103AF0009F4400BF0C1014181C2024282C3034388C
:103B0000D16370471164704751647047D162704748
:103B100091647047D1647047116570475165704773
:103B200091657047D165704711667047516670475F
:103B3000F1B584B00D000020009068460572402465
:103B400003F08AFD241AE4B267488679AE4203D3B3
:103B50000079C01C844249DB2800310003F0C2F820
:103B6000C01C844242DBB54228D2681CC0B203F0BC
:103B7000C7FC04003AD06079802101436171680676
:103B8000400E8038A0712A000499E01DFFF73AFF2B
:103B9000022020705448C078607052484068C106C6
:103BA000C90E401C4F4A50606079E0220240114328
:103BB00061714D48C078002862D18DE000274A48E5
:103BC00080790326EAB2904207D20099002900D1F9
:103BD0000327C01BC0B2019001E0EDB2019501982E
:103BE000C019C0B203F08CFC040001D1042076E0BF
:103BF0000098002800D10026019A04993A4B9B793D
:103C00005843801B0918E019801DFFF7FBFE0220B6
:103C100020703548C078607032484168C806C00ED0
:103C2000491C304A51606179E0220A4010436071BA
:103C300020260199EDB2A94213DA30436071009950
:103C400000290ED18021014361710220A0716846D4
:103C5000007A401CE0716846017A049803F02AFF5C
:103C6000207201982D1A0098401CC0B200902806BE
:103C70001AD10098012817D11B48C07800282BD0F2
:103C8000184840681849097903F02FF8002903D033
:103C900079480078401C19E0607940210143617146
:103CA00075480078401C0FE06079064366710E4845
:103CB000C07800280DD028060BD140203043607119
:103CC00000986D4909784018E07000206A49087032
:103CD00002E0280600D071E700F0D8FD002005B012
:103CE000F0BD00006C010020802E0020F0B5C5B0B2
:103CF00000216A4691706149C8710FE004AC6846C2
:103D0000C078022802DB002000F0C2FC5C48C26AD6
:103D1000100003D068460188200090475848016E83
:103D2000080001D001208847694600A8C01C03F0A4
:103D300071FD040009D15248006E002803D0002014
:103D40004F49096E884745B0F0BD6079C10932D04E
:103D5000A27913062FD55006400E4A49897902F000
:103D6000C1FF684601800288E11D04A8FFF74AFEF2
:103D700044480079022801DA0B2020704048006E88
:103D8000002803D000203E49096E884768468078A5
:103D90000028B3D068460088401E694608806846FF
:103DA0000188C9B204A8401C03F084FE6946097C5E
:103DB00088425DD0C7E7C006C00E0390002908D036
:103DC00031480399890040588079022801D10120A7
:103DD00000E000206946887068460088029000254F
:103DE0000DE00B200199087026480079022804DABA
:103DF000012E02D10B20019908706D1CEDB26846AE
:103E0000C678B542BAD00027002D24D1022E22DB7D
:103E10001C488079841E022700201B49039A5219EE
:103E2000D206520E89580191E4B22200C919891DA7
:103E300004AB144FBF796F43DB191818FFF7E2FD8D
:103E40000298001B80B20290019840798009C00757
:103E5000C7D51520C6E70B4881790298884201DA58
:103E600002F040FF0C00002DD6D00120C043D4E763
:103E700004A8441C43E70000413000200802002051
:103E80006C010020802E0020A82D0020F0B585B008
:103E90000700B1480078032805D0386A03F0C4FF52
:103EA000002800D1FDE10120AC498871AC480078C0
:103EB000000724D4B88C801EB88404F018F90028B8
:103EC0000DD004F006F9002809D0386AC178CA0676
:103ED000D20EB98C0839C9B2001D04F089F8A14A84
:103EE000B98C083989B2386A001D03F0B5FD396A0A
:103EF000BA8C8918091F0988814200D0D1E19A4CF7
:103F0000A068401CA06000F0D9FBA06BE061934862
:103F1000C078401C9549904A9278895CC3B2994216
:103F200000D208008D49C8701020205E0821795EFB
:103F3000814201DA002000E0081A694608716846EB
:103F400000798649487038892083A07C4100081890
:103F50006946097940188010A0747F4800780328CA
:103F600000D19CE1386AC01C00902000843003908E
:103F700003F026FA002079490871A06A0178142913
:103F800002D1764909780170002501260099097847
:103F9000CA0900D1ECE0009A52786B465A716A4621
:103FA0005279120600D5E3E06A465279092A4DD8C3
:103FB00001A39B5C5B009F440495DB4A5ADB5D7F59
:103FC000958C0278102A41D1C906C90E4079C006E5
:103FD000C00E81423AD120006C3003F0F1F920216B
:103FE0006554A06AC178002904D1A18A491CA18224
:103FF00008210170E07C4100081800998979401877
:104000008010E0740098007AA7490870810602D5F4
:10401000C021014301E08106890E0F020098C0799A
:104020000743380406D000F049FBA06B3FB2C0192B
:1040300000F05AFB28020099891949784518761C26
:10404000052EF7DB2900A06A03F094FC4AE0007813
:10405000102847D120006C3003F0B2F920216554BC
:104060000820A16A0870A08A401CA0823AE003F0F0
:1040700036FC37E00098801C00F06AFE002831D042
:10408000082003F03DFA05002CD00620A871072275
:104090000098811CE81DFFF7B5FC00980078C00669
:1040A000C00E6979E0220A40104368718021014303
:1040B00069711320287015E0606E010012D000991C
:1040C0008978DE290ED10099C978AD290AD18047B7
:1040D00008E004220098811C02A8FFF793FC0298D4
:1040E00000F002FB009800788009C00733D500205B
:1040F00003F0FAFA00282ED1082003F001FA002874
:1041000029D00321817100994978C1710021017280
:104110004172817269460979C172218A6A390173D3
:1041200062490978624A12788918624A12789206BE
:10413000920E8918417300990978C906C90E42790F
:10414000E02313401943417180220A434271002148
:1041500041701321017060E0802E002008020020D1
:10416000A72E0020FFFF00006C0100205045000832
:10417000B88CC11FC9B2009803F036FB002810D1DB
:10418000B98C0839C9B20098007803F0E9F9050044
:1041900077D0B88CC21F0099681DFFF733FC072049
:1041A0002870009800788009C00736D5002003F0F9
:1041B0009BFA002831D1082003F0A2F905002CD089
:1041C00003F0EEFA0021A971010EE971010C2972C8
:1041D000010A6972A87268460079E872208A6A3812
:1041E00028733248007832490978401831490978F3
:1041F0008906890E401868736879E0210140207BA8
:10420000C006C00E08436871802101436971002017
:1042100068701320287000F039FB00980078602146
:1042200001402029A06A017813D1142903D0224A21
:10423000117014210170214821498978890043585F
:10424000012220490398FFF777FA01201A490871E3
:1042500004E0142902D11849097801701648C07980
:10426000002801D1FFF742FD009800788009C007BF
:1042700001D400F0C1FB03F099F9002802D000F04E
:1042800005FB0EE00E480078012808D10A49487164
:104290009C4B0122C34920007830FFF74DFA03F010
:1042A00054FE05B0F0BD00003802002036020020A8
:1042B00035020020A22E00200802002080460008BF
:1042C000802E002091460008F1B582B08E4800781B
:1042D000042805D103F039FE03F00BFB8B4B0BE1F7
:1042E0008B4C8C4DB5480078B5490978014300D016
:1042F000ABE0AD4EA86A0078102802D0142821D077
:1043000030E02020285C00281BD103F013FF7E49F9
:1043100089788900AB4A7C4B5B789B00D218503A75
:1043200012687358D618A84A515802F0DEFC731868
:104330000122A64928006C30FFF7FEF90120202158
:1043400068548BE020790028FBD16F48807880008A
:10435000335801229E4928008430FFF7EDF90120EF
:1043600020717BE003F022F907006BD078780028F9
:104370002FD06548007803282BD079798909C9079F
:1043800025D5002825D0022800D024D2102038704E
:1043900003F0D0FE5C498978890000BF5EA25A4BC9
:1043A0005B789B00D218503A12687358D61800BF39
:1043B00063A2515802F099FC731801228349280026
:1043C0006C30FFF7B9F901202021685403E0062082
:1043D00000E005203870AF627879010609D5400603
:1043E00007D403F0E3F8002803D0787920210143B3
:1043F00079717879C0090FD0B87908280CD100F00C
:104400005DF9A86B009078798021014379710422CD
:104410006946F81DFFF7F6FA6079002805D00020FC
:1044200060712800783002F0CBFF380003F01EFDE9
:104430003878052812D1380003F0F6F820000C3047
:10444000A8620BE003F081FD08E00120696D884758
:10445000696B884201D3002900D16863A84E307887
:10446000012833D1A1780A2922DB0820205E02F03E
:1044700039FC00212181A1700A22A25E01B2914281
:1044800000DD11006181E178491EE17009061DD14E
:104490000A21615E9522D243914200D00800288211
:1044A000002060812AA018498978405CE0700DE006
:1044B0004020FEF7EDFA218940B208189149002208
:1044C0008956401A2081A078401CA0700E480078C0
:1044D000022810DA03F06AF800280CD13748007877
:1044E00037490978014306D103F02FFD30780028C1
:1044F00001D1854B00E03223012200210298FFF711
:104500001BF9F7BDB80B0000802E002030750000AD
:10451000080200206C01002030750000307500009A
:104520003075000088130000881300008813000015
:10453000E8030000E8030000F4010000F4010000BB
:10454000204E0000204E0000204E0000204E0000B3
:104550001408050538B501256C4CA06A407980091E
:10456000284206D103F022F8002802D000F08EF98C
:1045700031BDA06A4079800928420DD16448007895
:10458000012809D163484571634B01220549200088
:104590007830FFF7D1F801E000F02EFA03F0D5FCF7
:1045A00031BD0000AD4500088046000880B5002000
:1045B0005849487103F0C9FC01BD00007802002091
:1045C000790200201845000840450008D54500083C
:1045D00091460008F8B54E4CA71CAB490978002954
:1045E00009D000BF26A13A7892008B580122AB492E
:1045F000FFF7A2F8F1BD454D28006C3002F0E0FE57
:10460000002620202E54A86A0078102837D1E88A86
:10461000401CE882012000F01DFBA86A8178491C3B
:104620008170A86AFA78C9B28A4224D2092101703D
:104630004179C90907D08179062904D103F03CF8F2
:1046400000F0FEFC19E002212722A25C0A4214D1EC
:10465000A44A1278A44B1B78134302D103F02CF820
:1046600002E08670A86A017000F012FD00210020AF
:1046700000F016FB01E00321017000F007F9F1BD25
:10468000409C0000409C0000409C0000409C0000BA
:1046900010B51E4C2000843002F092FE1D4800210F
:1046A0000171A16A0A78142A01D10078087002F019
:1046B0007DFF002801D000F0E9F810BD10B5134CC3
:1046C000A06D010002D08047A06310BDAA48006819
:1046D000800AA16E884201D3411A00E0091AA26B38
:1046E0005118A163A06610BD10B50400FFF7E6FFE6
:1046F000A2488463C16D0A0001D02046884710BDDE
:104700007A02002006000020102700006C01002023
:10471000802E002008020020204E0000F0B583B05B
:10472000FFF7CCFF964F954C608C002805D103F025
:1047300001FDB98C02F0D6FA61843A7820009030FD
:104740009049914B042A03D10122FEF7F5FFF7BDF2
:10475000022A01DBFA239B000122FEF7EDFF608CA9
:10476000401C6084390026310191002680B2B98C4A
:10477000491C884251DB01206084019800780100C7
:10478000E5D0FF2802D0401E01990870012002F0F8
:10479000ABFF002877D1082002F0B2FE050072D0EE
:1047A0000120A871EE71616B96204000814201D317
:1047B000802000E0002000900800642102F095FABB
:1047C00000984018287266630020616D88476872FF
:1047D000A07CA872E07CE872208A6A3828732220C4
:1047E000385C68736168C806C00E491C61606979ED
:1047F000E0220A40104368718021014369713878D2
:10480000002808D0F878002801D0012068700846F8
:1048100040210143697102202870019840784007C7
:1048200019D4206B3978022901DA3C3000E0401CB1
:104830002063206B5549096988420CD326630821FF
:10484000002000F02DFA0921002000F029FA0A21A9
:10485000002000F025FA01984078C00613D538787A
:10486000022810DAA08C411CA1841E2102F03AFA21
:10487000002908D146480078002804D100230022EE
:10488000332003F00EFDF7BD7802002080B505232C
:10489000012240494048FEF74FFF01BDD5450008C1
:1048A00070B58EB004003D4D354E06D004203070FA
:1048B00003F01FF803F067FD11E0287800280ED000
:1048C000684600F015FC6846007830700021002032
:1048D00000F0E6F9002003F021F8FFF7D7FF2C7075
:1048E0000EB070BD310200203202002070B52C499C
:1048F0000920FDF7EBFF00F0CBFB00200021294A47
:104900008B00D050491C4029FADB0021264A8B003D
:10491000D050491C2029FADB03F00CFC174D1B4931
:104920000969224A8C189621890002F0DBF9601A85
:104930002863134CA01CE36A20214256C17F0078F3
:1049400003F0AFFC2E0090360E4D2720205C400671
:1049500004D50120FFF7A4FF0B4B05E003F0F5FAA7
:10496000FFF794FFFA239B00012229003000FEF795
:10497000E3FE002070BD0000882F00206C010020A5
:10498000802E00201D47000860EA00001C02002065
:1049900078020020C9420008083000203A040020B4
:1049A00001820008202C0020A82D0020D4FEFFFF4B
:1049B000A649A74AC30708D5887C9178032901DA5C
:1049C00053A20AE01A2815DB12E0800712D5C87C32
:1049D000517802290ADA00BF4CA251184A780978A6
:1049E000511AC9B20F31814204DA01E01A2801DB01
:1049F000012070470020704770B5954C934DA74833
:104A000041781D291AD0E97C40A26378D25C8A18CB
:104A1000AA762821D2B2292A00DBA976AA7E92089A
:104A2000AA76AA7C3AA3A6789B5DD218EA76D2B27F
:104A3000292A00DBE976E97E8908E97601780029F0
:104A400062D02721415CC9075ED4C07800285BD0C2
:104A5000A84800680078032856D0102854D014289D
:104A600052D00020A179002903D0A97C0F2900DAB7
:104A7000A0716179002903D0A97C0B2900DB60714A
:104A800080260220FFF794FF00280DD00120FFF7B9
:104A90008FFF002808D00121032000F03BF80028F8
:104AA00032D100F0D7F818E00220FFF781FF00288C
:104AB00008D00121022000F02DF8002824D100F0B8
:104AC000C9F870BD0120FFF773FF002807D001214E
:104AD000012000F01FF8002816D1A67170BDE87CF7
:104AE0000A2808DA012000F0B5F8002803D10021D7
:104AF000022000F00FF8A87C0A2805DA4020607137
:104B00000021012000F006F870BD0000000912002D
:104B100000040E19F1B582B00D004D4CA378684623
:104B2000437060786946087000216E46367AF60751
:104B300019D5704E36683678032E14D0102E12D048
:104B4000142E10D0012D08D1267AB609F60704D507
:104B50005B1CDBB2042B00DB03232E0003D15B1EA6
:104B60001E0600D50023A370A378E3180193022347
:104B70006E46377A1F4225D0012D1DD1267AF609BF
:104B80001AD0401CC0B2032800DB0220019B1E7C0F
:104B9000330007D101E0401E0121C0B223181B7B66
:104BA000152BF8D1012E07D101E0401E0121C0B222
:104BB00023181B7B182BF8D12B0003D1401E0306B2
:104BC00000D5002060700198067C344F78786278B8
:104BD000A218127B904205D1B878B04202D10800E9
:104BE00032D030E03422390020001430FEF70AFFC2
:104BF00068464078207168460078E0706078201838
:104C0000007B7870B878B04201D1002D1BD0BE7007
:104C10000021012000F044F8002803D100F010FA30
:104C20000020FEBD094869464978A278914202D227
:104C3000817C0A398174694609786278914202D28E
:104C4000C17C0A39C1740120FEBD00006C01002046
:104C500030020020F0B5284A517989061CD4002181
:104C600051560B00254CE67C254D012805D1C91C69
:104C7000F61C687A4FB2B84204E0C91EF61E287AC4
:104C80004DB2854200DA41B2E67411700020105630
:104C9000984201D00120F0BD0020F0BD802E002000
:104CA00070B505000C00082002F02AFC060001D1B6
:104CB000002070BD0620B071F471F01D00F048F8BE
:104CC0007079E02101400D480079C006C00E08430C
:104CD0007071802101437171002D06D00948C078A0
:104CE0007070707940210143717113203070012080
:104CF00070BD000094010020A22E00206C01002055
:104D00001C020020802E002010B5002306E0D41ADB
:104D10000419641E2478CC545B1CDBB29342F6D198
:104D200010BD00001EB5684606A11CC91CC00020AD
:104D3000694603E080183038C0B2491C0A78130075
:104D4000F8D11EBD31363A31323A3132000000001E
:104D5000F0B583B00500B94C20002130019020004F
:104D60002430009000262878800906D0012800D140
:104D7000BBE0032800D1B6E026E0FF220621681C34
:104D800003F09AFBB94F28788006800E102800D9CE
:104D9000EDE002A1095C49008F4400BF091C2124F9
:104DA0002B303A4A54606C987A9BA0894200207854
:104DB00068702079A8706078E870A07828710198F0
:104DC000407868716079A871287880210143297042
:104DD0000120FEBDE07868702079A870F4E7A07922
:104DE0006870F1E70422691C20001830FFF78CFF7F
:104DF000EAE70422691C20001C30F7E7019840789C
:104E000068702020205CA87001980078E870DBE7CB
:104E1000A019C079A9194870761C032ED4D0F7E7E1
:104E2000A019407BA9194870761C032ECCD0F7E757
:104E300000988078687000980088000AA870009830
:104E40000088E3E7A7488019007BA9194870761C01
:104E5000F6B2032EB8D0062EF4DBB5E7A1488019D0
:104E6000007CA9194870761CF6B2042EACD0062E30
:104E7000F4DBA9E7042068700120A870FFF752FF57
:104E8000E8709948817A2971C17A6971007B9AE743
:104E90000222691C3800FFF737FF0222E91C3800A4
:104EA0000830FFF731FFB87C6871F87C8BE7B87E7B
:104EB0006870F87EA8700222E91C38001430FFF7F1
:104EC00023FF0222691D380016308FE70098C07852
:104ED00086E70422691C2000283087E70422691C29
:104EE00020002C3082E700F0D3F8342221007F48E4
:104EF000FEF79CFD032728788006800E102800D935
:104F000098E002A1095C49008F4400BF09333C3F8F
:104F10005059697994949485948990947100687833
:104F2000FF2800D02070A878FF2800D02071E878F2
:104F3000FF2801D000F0FEF82879FF2803D000F008
:104F400017F97B4807706879FF2801D001994870EC
:104F5000A879FF2800D0607128788009032800D044
:104F600032E700F0DBF800210020FFF799FE002077
:104F7000FEBD6878FF2800D0E070A878FF28EBD04D
:104F80002071E9E76878A071E6E704222100183172
:104F9000681CFFF7B9FE6879FF2801D001994870B5
:104FA000A879FF28D8D020216054D5E70422210019
:104FB0001C31681CFFF7A8FE5D480770CCE76878D5
:104FC000FF2801D001994870A878FF2801D020213E
:104FD0006054E878FF28BFD001990870ECE7A81961
:104FE0004078A119C871761C032EB5D0F7E7A8192F
:104FF0004078A1194873761C032EADD0F7E7687886
:1050000000998870A878000200990880E978401813
:1050100000990880A0E768780099C8709CE704228E
:1050200021002831681CFFF76FFE95E7042221005C
:105030002C31F7E72B48067099E70000802E0020FE
:1050400038B5614C614D3422290014312000FEF73F
:10505000D9FCE87868702879A8702078002800D1F9
:10506000E07000210020FFF71BFE31BD6C01002025
:1050700010B55548002101741B4A93784374547845
:1050800084741278C27481828372C472027310BDF8
:1050900010B5002000F02CF8FFF7EAFF00240021F3
:1050A00049484218937AD371491C0329F9D1017CEC
:1050B000427C4A40817C5140C27C4A40017D514043
:1050C000407D484003F022FA4148448205488470FC
:1050D000447084713F4800680178102901D109218A
:1050E000017010BD300200201C020020440200208C
:1050F00010B5040000D1344C37480168080006D0D0
:10510000200088476078FF2801D0002805D1334867
:105110000168080001D02000884710BD30480168B0
:10512000080000D1704780B52748884701BD0000BE
:105130007A02002020B5244927228A5CD20701D5B3
:10514000487020BD0022214B9D182D7B854204D044
:10515000521CD2B2032A0AD0F6E7032A07D04870BD
:105160005878904203D05A700F201949C87420BD56
:1051700020B5154927228A5CD20701D5887020BD49
:105180000022124B9D182D7C854204D0521CD2B2B5
:10519000042A0AD0F6E7042A07D08870987890424B
:1051A00003D09A700F200A49887420BD10B5010001
:1051B0000C4C20001422FEF739FC6068002801D056
:1051C00002F0A6FF10BD0000802E0020300200205B
:1051D0006C01002094010020B8010020B4010020DF
:1051E000BC0100201C02002080B52C48016801226F
:1051F0000A4302604168802252050A43426000224D
:1052000001210420C043FEF7C9FA00220121012038
:10521000C043FEF7C3FA002201210020C043FEF77D
:10522000BDFA01BD00681E49884205D11D480168CC
:10523000802212060A430260704700681A498842B9
:1052400000D0704780B5194801688022D2020A4315
:105250000260002200210220FEF7A0FA0220FEF7E1
:10526000A1FA01BD00681249884200D0704700B51C
:1052700085B00A480168820C0A4302600D4800901C
:1052800002200190002002900321039104906946BE
:10529000A020C005FEF7C2FA05B000BD34100240E0
:1052A000007C0040381002400028004050100240AE
:1052B00000300140E080000080B5064801684022CF
:1052C0000A430260012003F031F9FFF78DFF00204F
:1052D00002BD000000200240874908607047FBB50E
:1052E00083B085480168202A04D103980088C978D2
:1052F000890091E08868002820D14B68C4001C19FF
:1053000023789A4216D36578954213D36068D21AEF
:10531000002812D01206920D801800906846007D79
:10532000002873D000226846008A4007400F6B4671
:1053300018720DE0401C0428DFD370E04B789A42CD
:105340006DD38C7894426AD3D21AE3E7521CD2B25E
:1053500000980078824259DA002303E06840207008
:105360005B1CDBB20C78A342F0DA03980088851846
:10537000ADB26E46368AF608F618F601AE19B6B228
:10538000802D21DA8020C00086421DD2C868844664
:10539000009847882000504338180019C41A604606
:1053A0000019401E00786C46247AE040534CA41942
:1053B0000194019C24786F463F7D012F01D1204349
:1053C00000E06040019C20708036B6B2802DC7DAC4
:1053D0008020C0008642C3D20C78CD6800984788F0
:1053E0002000504338180019C01A2818401E0078B1
:1053F00008246D462D7A641BA040404CA4192578E2
:105400006E46367D012EA9D12843A8E7039800886F
:10541000009A1278C978511840180399088006B08C
:10542000F0BDF3B581B014001F00089E30000AD112
:105430002278100035D0641C3B006846018901A821
:10544000FFF74DFFF4E7250000206946088005E0DE
:105450006D1C002368460189FFF741FF2A78100080
:10546000F6D1022E04D168460088400869460880BB
:105470006846808869460988401A6946888006E03F
:10548000641C3B006846018901A8FFF728FF2278C9
:105490001000F5D16846808869460988401A694637
:1054A0008880F7BD80B502008021C900134803F051
:1054B00003F801BD802800DB704710B540291ADAD7
:1054C0000E4CCB08DB01C018201801230724490724
:1054D000490F611A8B40012A02D101780B4309E080
:1054E000002A03D101789943017010BD022A02D12C
:1054F00001784B40037010BD303000204024002064
:10550000FDB50E0068460478089F0CE03A002900BB
:105510002000FFF7CFFF6D1CEDB26846007A30180F
:105520008542F3DB641CE4B2684600786946097979
:105530004018844201DA3500EEE7F7BDFEB50700FA
:105540000E003C00089D0EE02A0031002000FFF70D
:10555000B1FF2A006846007A3018411EC9B2200007
:10556000FFF7A8FF641CE4B268460079381884424B
:10557000EADB34000EE02A0021003800FFF79AFF32
:105580002A002100684600793818401EC0B2FFF793
:1055900091FF641CE4B26846007A30188442EADB6A
:1055A000F7BD80B503F050F801BD80B502F0FBFFF8
:1055B00003F04AF801BDFEE73548C078C007C00FC8
:1055C00008E03348C178022002E03148C178042065
:1055D0000140080000D00120704738B52C4CE0781D
:1055E000207100251021A020C005FEF7E1F9002858
:1055F0000DD12078401C20700A2003F063F8207839
:10560000062809DBE07801210143E17004E0E0783D
:10561000FE210140E1702570802189011D48FEF7BF
:10562000C7F900280DD16078401C60700A2003F093
:1056300049F86078062809DBE07802210143E1702F
:1056400004E0E078FD210140E1706570802112489E
:10565000FEF7AEF900280DD1A078401CA0700A20FA
:1056600003F030F8A078062809DBE0780421014334
:10567000E17004E0E078FB210140E170A570E07882
:105680002179814202D02071012032BD002032BD3B
:1056900028300020000800500004005080B50100B0
:1056A000A020C005002901D0002200E00122012134
:1056B000FEF784F901BDFEE770B582B000200090CE
:1056C00001239AA29A49FFF7ACFE002422A60020EB
:1056D00000900123E00032580019401D81B21420CF
:1056E000FFF79FFE641C032CF1D3924C0020009026
:1056F000012391A26078C1000818401D81B20A20E0
:10570000FFF78FFE8D4DFFF757FF00280BD00121CB
:10571000280000F083FE6078401CC0B2032101F035
:10572000E4FA617003E00021280000F077FECB4D21
:10573000FFF747FF002809D00121280000F090FE64
:105740006078C00030184068E06073BD0021280018
:1057500000F086FE73BD00001CE3000871570008CE
:1057600024E30008C95B000830E30008815E0008FC
:10577000F8B500200090012327A26D49FFF751FEE4
:105780000027002427A600970123E00032580019C3
:10579000401D81B21420FFF744FE641C032CF2D399
:1057A000644C0097012364A2A078C1000818401D32
:1057B00081B20A20FFF735FE604DFFF7FDFE00289D
:1057C0000BD00121280000F029FEA078401CC0B2B7
:1057D000032101F08AFAA17003E00021280000F003
:1057E0001DFE9E4DFFF7EDFE002809D00121280087
:1057F00000F036FEA078C00030184068E06003E09A
:105800000021280000F02CFEFFF7DFFE002802D068
:10581000A7709348E060F1BD2E2E2F54657374730A
:105820000000000038E300083D58000840E300088D
:105830007D59000848E30008A55A000838B5002043
:10584000009001233EA23A49FFF7EBFD00200090B3
:10585000012300BF3FA205211420FFF7E2FD002035
:105860000090012340A20E211420FFF7DAFD314CF5
:1058700000200090012330A2E078C1000818401DEC
:1058800081B20A20FFF7CDFD2C4DFFF795FE0028D1
:1058900009D00121280000F0C1FDE078401CC107BB
:1058A000C90FE17003E00021280000F0B7FD6B4D47
:1058B000FFF787FE002813D00121280000F0D0FD5B
:1058C000E078002802D0012804D00DE00821200053
:1058D000303002E0512120003830FEF729F903E092
:1058E0000021280000F0BCFD0020009001239B4A0D
:1058F00024210A20FFF795FD01F0AEFE020098A1D9
:105900002000103002F0EAFE012000900123220066
:10591000103224217F20FFF784FDFFF756FE002878
:1059200003D00020E0708F48E06031BD2E2E2F00A4
:10593000FAFF0000E00000203E000000605F000869
:105940002E2E2F54657374732F4E4246692054587F
:105950000000000053656E642073686F72742070DD
:1059600061636B657400000053656E64206C6F6E3C
:1059700067207061636B657400000000F8B500205B
:105980000090012337A27849FFF74BFD00200090DB
:10599000012300BF38A205210220FFF742FD0024A9
:1059A0003AA7724D07E0A9680A5D3900281810303F
:1059B00002F094FE641C2878844202DA6000172802
:1059C000F1DB0020009001232A0010320F21022079
:1059D000FFF727FD00200090012300BF2DA2192111
:1059E0000220FFF71EFD002461A607E0A868025D03
:1059F00031002819103002F071FE641C28788442AE
:105A000001DA172CF2DB0020009001232A0010326B
:105A100023210220FFF705FD00200090012300BF95
:105A20001EA22D210220FFF7FCFC52481821425EE5
:105A300051492800103002F051FE0120009001234E
:105A40002A0010322D217F20FFF7EBFCFFF7BDFD70
:105A5000002801D04348E860F1BD0000685F0008FD
:105A6000B95600082E2E2F54657374732F4E42467C
:105A700069205258000000004C6173742072656305
:105A80006569766564204845583A000025303278CB
:105A90000000000041534349493A00005253534922
:105AA0003A00000038B5314C2079002802D0012896
:105AB00005D01BE00090012331A2052113E0002056
:105AC0000090012331A205210A20FFF7AAFC002241
:105AD00031A12000103002F001FE002000900123CF
