:020000040800F2
:1000000040120020B51D0108691A01086B1A010889
:1000100000000000000000000000000000000000E0
:100020000000000000000000000000006F1A01083E
:100030000000000000000000711A0108731A010896
:10004000FB200108FD2001087F1A0108FF2001089C
:10005000012101088D1A0108032101080521010869
:100060000000000007210108092101080B210108F7
:100070000D210108093F00080F2101081121010885
:1000800013210108152101081721010800000000B3
:10009000192101081B2101081D2101081F21010848
:1000A0002121010823210108252101082721010818
:1000B000292101082B210108000000000000000098
:1000C00080B52C480178212003F082FD2948417831
:1000D000222003F07DFD27488178232003F078FD5E
:1000E0002448C178252003F073FD2248C088010010
:1000F00089B2090AC9B2B520400003F069FD1D4864
:10010000C188C9B2FF206C3003F062FD1948017943
:10011000B220400003F05CFD17480078002801D1B0
:1001200000F03AFF012801D101F09AF9022801D12B
:1001300001F0FAFB032801D101F058FE15281DD06B
:10014000162801D100F028FF182800D170E21928E4
:1001500001D101F085F91A2801D100F0C3FC1B2858
:1001600001D101F0E1FB1D2801D101F03FFE02F0B9
:1001700063F800BFC02E0020203000200421102092
:1001800003F026FD0321112003F022FD0621122099
:1001900003F01EFD0121262003F01AFD01216E202F
:1001A00003F016FD01218020400003F011FDFC2129
:1001B000FF20801C03F00CFD7F218120400003F014
:1001C00007FD0021FF20001D03F002FD7F2182209A
:1001D000400003F0FDFCF321FF20801D03F0F8FC3C
:1001E00000218320400003F0F3FC0021FF200830B1
:1001F00003F0EEFC00218420400003F0E9FC8021A4
:10020000FF200A3003F0E4FC00218520400003F0C9
:10021000DFFC0021FF200C3003F0DAFC0021FF207E
:10022000163003F0D5FCF421FF20183003F0D0FC89
:10023000E9219020400003F0CBFC8421FF202230F4
:1002400003F0C6FCF9219220400003F0C1FC842198
:10025000FF20263003F0BCFC03219320400003F074
:10026000B7FC4621FF20283003F0B2FC0A2194207D
:10027000400003F0ADFC1F21FF202A3003F0A8FC52
:100280001F219520400003F0A3FC0621FF202C3005
:1002900003F09EFC00219620400003F099FC002111
:1002A000FF202E3003F094FC0021FF20303003F0BB
:1002B0008FFCE9219820400003F08AFC8421FF2074
:1002C000323003F085FC00219920400003F080FCCF
:1002D0000021FF20343003F07BFCF7219A204000FE
:1002E00003F076FC8321FF20363003F071FC0321FC
:1002F0009B20400003F06CFC4621FF20383003F0C7
:1003000067FC0A219C20400003F062FC1F21FF20B3
:100310003A3003F05DFC1F219D20400003F058FCA3
:100320000621FF203C3003F053FC00219E204000BA
:1003300003F04EFC0021FF203E3003F049FC162163
:100340009F20400003F044FC0021FF20403003F0D8
:100350003FFCFF21A820400003F03AFC8421FF204D
:10036000523003F035FC0021A920400003F030FC9E
:100370000021FF20543003F02BFCF621AA2040007E
:1003800003F026FC8221FF20563003F021FC0321DC
:10039000AB20400003F01CFC4621FF20583003F046
:1003A00017FC0A21AC20400003F012FC1F21FF20A3
:1003B0005A3003F00DFC1F21AD20400003F008FC73
:1003C0000621FF205C3003F003FC0021AE2040003A
:1003D00003F0FEFB0021FF205E3003F0F9FB162145
:1003E000AF20400003F0F4FB0021FF20603003F059
:1003F000EFFB0021FF20623003F0EAFB0021B12077
:10040000400003F0E5FB0021FF20643003F0E0FB37
:100410000021FF20663003F0DBFB0021B320400009
:1004200003F0D6FB8121FF20683003F0D1FB992136
:10043000C020400003F0CCFB0421FF20843003F0F7
:10044000C7FB0F21C420400003F0C2FB7721FF202F
:100450008A3003F0BDFB80218020800003F0B8FBD0
:100460000021554803F0B4FB8821544803F0B0FB49
:10047000C821534803F0ACFBFF218420800003F027
:10048000A7FB00214F4803F0A3FB00214E4803F0D7
:100490009FFB00214D4803F09BFB07218520800036
:1004A00003F096FB07214A4803F092FBFF218620C8
:1004B000800003F08DFBFF21464803F089FB0A21F1
:1004C0008720800003F084FB0A21434803F080FB6F
:1004D0003E218820800003F07BFB31213F4803F060
:1004E00077FB3E213E4803F073FB312189208000D9
:1004F00003F06EFB00213B4803F06AFB7F213A4882
:1005000003F066FB03218A20800003F061FB1221C7
:10051000364803F05DFBCB21354803F059FB002141
:10052000344803F055FB0D218C20800003F050FB74
:100530002021314803F04CFB0021304803F048FBF8
:100540000021CC20800003F043FB00212C4803F065
:100550003FFB03212B4803F03BFB0421F12000016A
:1005600003F036FB0021284803F032FB072127481F
:1005700003F02EFB6821264803F02AFBFF212548C3
:1005800003F026FB8421244803F022FB9821234812
:1005900003F01EFB0821224803F01AFB1221214818
:1005A00003F016FB2521204803F012FBE1211F4830
:1005B00003F00EFB01F040FE010200000202000009
:1005C00003020000110200001202000013020000EA
:1005D00016020000190200001E02000021020000A5
:1005E0002302000025020000260200002A0200006B
:1005F0002D0200002F020000330200003103000032
:10060000320300000D0F0000110F00001C0F00004E
:10061000210F0000220F0000230F0000260F000012
:10062000340F0000350F0000440F00005F0F000082
:100630000421102003F0CCFA0321112003F0C8FAA2
:100640000621122003F0C4FA0121262003F0C0FA8B
:1006500001216E2003F0BCFA00218020400003F04D
:10066000B7FAFC21FF20801C03F0B2FA662181203A
:10067000400003F0ADFA0021FF20001D03F0A8FAAE
:1006800027218220400003F0A3FAD421FF20801DFF
:1006900003F09EFA00218320400003F099FA002124
:1006A000FF20083003F094FA00218420400003F07A
:1006B0008FFA8021FF200A3003F08AFA002185207A
:1006C000400003F085FA0021FF200C3003F080FA8F
:1006D0000021FF20163003F07BFAF421FF201830B0
:1006E00003F076FAD7219020400003F071FA8421BC
:1006F000FF20223003F06CFA98219220400003F092
:1007000067FAA221FF20263003F062FAC32193206A
:10071000400003F05DFA4621FF20283003F058FA2C
:100720000A219420400003F053FA1F21FF202A30B1
:1007300003F04EFA1F219520400003F049FA0621EC
:10074000FF202C3003F044FA00219620400003F0F3
:100750003FFA0021FF202E3003F03AFA0021FF205B
:10076000303003F035FAD7219820400003F030FAFA
:100770008421FF20323003F02BFA00219920400021
:1007800003F026FA0021FF20343003F021FA9621ED
:100790009A20400003F01CFAA121FF20363003F01C
:1007A00017FAC3219B20400003F012FA4621FF20D4
:1007B000383003F00DFA0A219C20400003F008FABB
:1007C0001F21FF203A3003F003FA1F219D20400033
:1007D00003F0FEF90621FF203C3003F0F9F9002177
:1007E0009E20400003F0F4F90021FF203E3003F08A
:1007F000EFF916219F20400003F0EAF90021FF20C5
:10080000403003F0E5F9FF21A820400003F0E0F9B3
:100810008421FF20523003F0DBF90021A9204000A1
:1008200003F0D6F90021FF20543003F0D1F99521CF
:10083000AA20400003F0CCF9A021FF20563003F09D
:10084000C7F9C321AB20400003F0C2F94621FF20C5
:10085000583003F0BDF90A21AC20400003F0B8F98C
:100860001F21FF205A3003F0B3F91F21AD204000B3
:1008700003F0AEF90621FF205C3003F0A9F9002156
:10088000AE20400003F0A4F90021FF205E3003F009
:100890009FF91621AF20400003F09AF90021FF20B4
:1008A000603003F095F90021FF20623003F090F9E9
:1008B0000021B120400003F08BF90021FF206430BB
:1008C00003F086F90021FF20663003F081F904214E
:1008D000B320400003F07CF90821FF20683003F0CA
:1008E00077F99921C020400003F072F90421FF201C
:1008F000843003F06DF90F21C420400003F068F943
:100900007721FF208A3003F063F980218020800066
:1009100003F05EF90021554803F05AF98821544844
:1009200003F056F9FE21534803F052F9FF218420C9
:10093000800003F04DF900214F4803F049F90021F0
:100940004E4803F045F900214D4803F041F90721D5
:100950008520800003F03CF907214A4803F038F96C
:10096000FF218620800003F033F9FF21464803F081
:100970002FF90A218720800003F02AF90A21434831
:1009800003F026F93E218820800003F021F931216F
:100990003F4803F01DF93E213E4803F019F931218B
:1009A0008920800003F014F900213B4803F010F97E
:1009B0007F213A4803F00CF903218A20800003F0DC
:1009C00007F91221364803F003F9DD21354803F019
:1009D000FFF80021344803F0FBF80D218C20800043
:1009E00003F0F6F82021314803F0F2F800213048F6
:1009F00003F0EEF80021CC20800003F0E9F800219C
:100A00002C4803F0E5F803212B4803F0E1F804211A
:100A1000F120000103F0DCF80021284803F0D8F8A9
:100A20000721274803F0D4F86821264803F0D0F8BE
:100A3000FF21254803F0CCF88421244803F0C8F8AE
:100A40009821234803F0C4F80821224803F0C0F895
:100A50001121214803F0BCF82521204803F0B8F803
:100A6000E1211F4803F0B4F801F0E6FB01020000A9
:100A70000202000003020000110200001202000046
:100A80001302000016020000190200001E020000FE
:100A900021020000230200002502000026020000BF
:100AA0002A0200002D0200002F0200003302000085
:100AB00031030000320300000D0F0000110F000091
:100AC0001C0F0000210F0000220F0000230F000068
:100AD000260F0000340F0000350F0000440F000007
:100AE0005F0F00000421102003F072F80321112091
:100AF00003F06EF80621122003F06AF80121262087
:100B000003F066F801216E2003F062F803218020D3
:100B1000400003F05DF85C21FF20801C03F058F8D2
:100B20000C218120400003F053F80021FF20001D1C
:100B300003F04EF82A218220400003F049F85121A9
:100B4000FF20801D03F044F800218320400003F0C3
:100B50003FF80021FF20083003F03AF800218420FC
:100B6000400003F035F88021FF200A3003F030F810
:100B700000218520400003F02BF80021FF200C30DD
:100B800003F026F80021FF20163003F021F8F421AD
:100B9000FF20183003F01CF8A4219020400003F03F
:100BA00017F88421FF20223003F012F8A8219220A8
:100BB000400003F00DF8A221FF20263003F008F8D2
:100BC000C3219320400003F003F84621FF20283082
:100BD00002F0FEFF0A219420400002F0F9FF1F21DD
:100BE000FF202A3002F0F4FF1F219520400002F080
:100BF000EFFF0621FF202C3002F0EAFF00219620B3
:100C0000400002F0E5FF0021FF202E3002F0E0FF5F
:100C10000021FF20303002F0DBFFA42198204000AB
:100C200002F0D6FF8421FF20323002F0D1FF0021F4
:100C30009920400002F0CCFF0021FF20343002F068
:100C4000C7FFA6219A20400002F0C2FFA121FF2089
:100C5000363002F0BDFFC3219B20400002F0B8FFF8
:100C60004621FF20383002F0B3FF0A219C204000CB
:100C700002F0AEFF1F21FF203A3002F0A9FF1F2132
:100C80009D20400002F0A4FF0621FF203C3002F02E
:100C90009FFF00219E20400002F09AFF0021FF20CC
:100CA0003E3002F095FF16219F20400002F090FF99
:100CB0000021FF20403002F08BFFFF21A8204000E0
:100CC00002F086FF8421FF20523002F081FF0021D4
:100CD000A920400002F07CFF0021FF20543002F0E8
:100CE00077FFA521AA20400002F072FFA021FF207B
:100CF000563002F06DFFC321AB20400002F068FFC8
:100D00004621FF20583002F063FF0A21AC2040004A
:100D100002F05EFF1F21FF205A3002F059FF1F2111
:100D2000AD20400002F054FF0621FF205C3002F0AD
:100D30004FFF0021AE20400002F04AFF0021FF20BB
:100D40005E3002F045FF1621AF20400002F040FF68
:100D50000021FF20603002F03BFF0021FF206230C5
:100D600002F036FF0021B120400002F031FF0021E7
:100D7000FF20643002F02CFF0021FF20663002F0DB
:100D800027FF2021B320400002F022FF4421FF2052
:100D9000683002F01DFF9921C020400002F018FFCA
:100DA0000421FF20843002F013FF0F21C4204000F3
:100DB00002F00EFF7721FF208A3002F009FF802128
:100DC0008020800002F004FF0021554802F000FF5F
:100DD0008821544802F0FCFEC821534802F0F8FE76
:100DE000FF218420800002F0F3FE00214F4802F032
:100DF000EFFE00214E4802F0EBFE00214D4802F0CC
:100E0000E7FE07218520800002F0E2FE07214A4824
:100E100002F0DEFEFF218620800002F0D9FEFF21D5
:100E2000464802F0D5FE0A218720800002F0D0FE5D
:100E30000A21434802F0CCFE3E218820800002F0C7
:100E4000C7FE31213F4802F0C3FE3E213E4802F07A
:100E5000BFFE31218920800002F0BAFE00213B480C
:100E600002F0B6FE7F213A4802F0B2FE03218A204A
:100E7000800002F0ADFE1221364802F0A9FEE32107
:100E8000354802F0A5FE0021344802F0A1FE0D21F4
:100E90008C20800002F09CFE2021314802F098FE58
:100EA0000021304802F094FE0021CC20800002F0A6
:100EB0008FFE00212C4802F08BFE03212B4802F00C
:100EC00087FE0421F120000102F082FE0021284863
:100ED00002F07EFE0721274802F07AFE68212648AC
:100EE00002F076FEFF21254802F072FE842124489C
:100EF00002F06EFE9821234802F06AFE0821224883
:100F000002F066FE1121214802F062FE25212048F0
:100F100002F05EFEE1211F4802F05AFE01F08CF95A
:100F200001020000020200000302000011020000A2
:100F30001202000013020000160200001902000055
:100F40001E02000021020000230200002502000012
:100F5000260200002A0200002D0200002F020000DD
:100F60003302000031030000320300000D0F0000C7
:100F7000110F00001C0F0000210F0000220F0000C5
:100F8000230F0000260F0000340F0000350F000073
:100F9000440F00005F0F00000421102002F018FE33
:100FA0000021112002F014FE6421122002F010FE34
:100FB0003321182002F00CFE0121262002F008FE49
:100FC00001216E2002F004FE01218020400002F089
:100FD000FFFDF821FF20801C02F0FAFD7F21812017
:100FE000400002F0F5FD0021FF20001D02F0F0FDA1
:100FF0007F218220400002F0EBFDF321FF20801DC5
:1010000002F0E6FD00218320400002F0E1FD002116
:10101000FF20083002F0DCFD00218420400002F0B7
:10102000D7FD8021FF200A3002F0D2FD002185206B
:10103000400002F0CDFD0021FF200C3002F0C8FD81
:101040000021FF20163002F0C3FDF421FF201830EC
:1010500002F0BEFDE9219020400002F0B9FD84219C
:10106000FF20223002F0B4FDF9219220400002F06E
:10107000AFFD8421FF20263002F0AAFD032193203A
:10108000400002F0A5FD4621FF20283002F0A0FD1F
:101090000A219420400002F09BFD1F21FF202A30EE
:1010A00002F096FD1F219520400002F091FD0621DF
:1010B000FF202C3002F08CFD00219620400002F031
:1010C00087FD0021FF202E3002F082FD0021FF204D
:1010D000303002F07DFDE9219820400002F078FDDB
:1010E0008421FF20323002F073FD0021992040005E
:1010F00002F06EFD0021FF20343002F069FDF7217F
:101100009A20400002F064FD8321FF20363002F077
:101110005FFD03219B20400002F05AFD4621FF2085
:10112000383002F055FD0A219C20400002F050FDAD
:101130001F21FF203A3002F04BFD1F219D2040006F
:1011400002F046FD0621FF203C3002F041FD002167
:101150009E20400002F03CFD0021FF203E3002F0C6
:1011600037FD16219F20400002F032FD0021FF20B4
:10117000403002F02DFDFF21A820400002F028FDA4
:101180008421FF20523002F023FD0021A9204000DD
:1011900002F01EFD0021FF20543002F019FDF6215F
:1011A000AA20400002F014FD8221FF20563002F0F8
:1011B0000FFD0321AB20400002F00AFD4621FF2075
:1011C000583002F005FD0A21AC20400002F000FD7D
:1011D0001F21FF205A3002F0FBFC1F21AD204000F0
:1011E00002F0F6FC0621FF205C3002F0F1FC002149
:1011F000AE20400002F0ECFC0021FF205E3002F047
:10120000E7FC1621AF20400002F0E2FC0021FF20A5
:10121000603002F0DDFC0021FF20623002F0D8FCDB
:101220000021B120400002F0D3FC0021FF206430F7
:1012300002F0CEFC0021FF20663002F0C9FC002144
:10124000B320400002F0C4FC8121FF20683002F08E
:10125000BFFC0421FF20843002F0BAFC0F21C4201F
:10126000400002F0B5FC7721FF208A3002F0B0FC8C
:1012700081218020800002F0ABFC80215A4802F0DE
:10128000A7FC0021594802F0A3FCF021584802F0C5
:101290009FFCAA218420800002F09AFCCC215548B2
:1012A00002F096FCAA21544802F092FCCC2153484B
:1012B00002F08EFC7E218620800002F089FC7E21D7
:1012C0004F4802F085FC8A218720800002F080FCD4
:1012D0000A214C4802F07CFC3E218820800002F06C
:1012E00077FC3121484802F073FC3E21474802F068
:1012F0006FFC31218920800002F06AFC0021444803
:1013000002F066FC7F21434802F062FC03218A2040
:10131000800002F05DFC17213F4802F059FCDD21FE
:101320003E4802F055FC00213D4802F051FC0D21E1
:101330008C20800002F04CFC20213A4802F048FC4E
:101340000021394802F044FC0021CC20800002F04A
:101350003FFC0021354802F03BFC0321344802F0F9
:1013600037FC0421F120000102F032FC0021314859
:1013700002F02EFC0721304802F02AFC68212F4899
:1013800002F026FCFF212E4802F022FC84212D4889
:1013900002F01EFC98212C4802F01AFC12212B4866
:1013A00002F016FC25212A4802F012FCE12129480E
:1013B00002F00EFC28480078002809D09921C020AE
:1013C000400002F005FC0821244802F001FC08E07E
:1013D0009721C020400002F0FBFB28211F4802F0AB
:1013E000F7FB00F029FF00BF01020000020200002D
:1013F00003020000110200001202000013020000AC
:10140000190200001E020000210200002302000059
:1014100025020000260200002A0200002D02000022
:101420002F020000330200003103000032030000ED
:101430000D0F0000110F00001C0F0000210F000015
:10144000220F0000230F0000260F0000350F0000C0
:10145000440F00005F0F000021300020340F000017
:101460000421102002F0B4FB0021112002F0B0FB97
:101470006421122002F0ACFB3321182002F0A8FBFB
:101480000121262002F0A4FB01216E2002F0A0FB26
:1014900001218020400002F09BFBF821FF20801CEE
:1014A00002F096FB7F218120400002F091FB002199
:1014B000FF20001D02F08CFB33218220400002F04F
:1014C00087FB2E21FF20801D02F082FB002183205C
:1014D000400002F07DFB0021FF20083002F078FB85
:1014E00000218420400002F073FB8021FF200A309D
:1014F00002F06EFB00218520400002F069FB002114
:10150000FF200C3002F064FB0021FF20163002F0B7
:101510005FFBF421FF20183002F05AFBE8219020F5
:10152000400002F055FB8421FF20223002F050FBE6
:10153000C8219220400002F04BFBC221FF20263040
:1015400002F046FB83219320400002F041FB46213C
:10155000FF20283002F03CFB0A219420400002F0DA
:1015600037FB1F21FF202A3002F032FB1F2195207C
:10157000400002F02DFB0621FF202C3002F028FB5A
:1015800000219620400002F023FB0021FF202E3096
:1015900002F01EFB0021FF20303002F019FBE82191
:1015A0009820400002F014FB8421FF20323002F02A
:1015B0000FFB00219920400002F00AFB0021FF20D0
:1015C000343002F005FBC6219A20400002F000FBF7
:1015D000C121FF20363002F0FBFA83219B2040001E
:1015E00002F0F6FA4621FF20383002F0F1FA0A2123
:1015F0009C20400002F0ECFA1F21FF203A3002F05C
:10160000E7FA1F219D20400002F0E2FA0621FF20A8
:101610003C3002F0DDFA00219E20400002F0D8FAB2
:101620000021FF203E3002F0D3FA16219F20400017
:1016300002F0CEFA0021FF20403002F0C9FAFF216B
:10164000A820400002F0C4FA8421FF20523002F0AA
:10165000BFFA0021A920400002F0BAFA0021FF20C1
:10166000543002F0B5FAC521AA20400002F0B0FAC9
:10167000C021FF20563002F0ABFA8321AB2040009E
:1016800002F0A6FA4621FF20583002F0A1FA0A2102
:10169000AC20400002F09CFA1F21FF205A3002F0DB
:1016A00097FA1F21AD20400002F092FA0621FF2098
:1016B0005C3002F08DFA0021AE20400002F088FA82
:1016C0000021FF205E3002F083FA1621AF20400097
:1016D00002F07EFA0021FF20603002F079FA00214A
:1016E000FF20623002F074FA0021B120400002F0C5
:1016F0006FFA0021FF20643002F06AFA0021FF2017
:10170000663002F065FA0121B320400002F060FA71
:101710004321FF20683002F05BFA0421FF2084306F
:1017200002F056FA0F21C420400002F051FA77214E
:10173000FF208A3002F04CFA81218020800002F0E4
:1017400047FA80215A4802F043FA0021594802F032
:101750003FFAF021584802F03BFAAA218420800089
:1017600002F036FACC21554802F032FAAA21544848
:1017700002F02EFACC21534802F02AFA7E2186206C
:10178000800002F025FA7E214F4802F021FA8A21DA
:101790008720800002F01CFA0A214C4802F018FA57
:1017A0003E218820800002F013FA3121484802F0DF
:1017B0000FFA3E21474802F00BFA312189208000C0
:1017C00002F006FA0021444802F002FA7F21434861
:1017D00002F0FEF903218A20800002F0F9F91721B6
:1017E0003F4802F0F5F9DD213E4802F0F1F9002111
:1017F0003D4802F0EDF90D218C20800002F0E8F95F
:1018000020213A4802F0E4F90021394802F0E0F9D9
:101810000021CC20800002F0DBF90021354802F0E5
:10182000D7F90321344802F0D3F90421F120000153
:1018300002F0CEF90021314802F0CAF90721304800
:1018400002F0C6F968212F4802F0C2F9FF212E48A4
:1018500002F0BEF984212D4802F0BAF998212C48F3
:1018600002F0B6F912212B4802F0B2F925212A48DC
:1018700002F0AEF9E121294802F0AAF928480078DF
:10188000002809D09921C020400002F0A1F90821C8
:10189000244802F09DF908E09721C020400002F0A2
:1018A00097F928211F4802F093F900F0C5FC00BF0A
:1018B0000102000002020000030200001102000009
:1018C0001202000013020000190200001E020000B4
:1018D0002102000023020000250200002602000071
:1018E0002A0200002D0200002F0200003302000037
:1018F00031030000320300000D0F0000110F000043
:101900001C0F0000210F0000220F0000230F000019
:10191000260F0000350F0000440F00005F0F00008D
:1019200021300020340F00000421102002F050F973
:101930000021112002F04CF96421122002F048F934
:101940003321182002F044F90121262002F040F949
:1019500001216E2002F03CF900218020400002F0BD
:1019600037F9FC21FF20801C02F032F92021812070
:10197000400002F02DF90021FF20001D02F028F99F
:1019800028218220400002F023F9A021FF20801DA1
:1019900002F01EF900218320400002F019F9002115
:1019A000FF20083002F014F900218420400002F0EA
:1019B0000FF98021FF200A3002F00AF9002185206A
:1019C000400002F005F90021FF200C3002F000F980
:1019D0000021FF20163002F0FBF8F421FF20183020
:1019E00002F0F6F8C5219020400002F0F1F88421C1
:1019F000FF20223002F0ECF8A8219220400002F0F3
:101A0000E7F8A221FF20263002F0E2F8C32193205C
:101A1000400002F0DDF84621FF20283002F0D8F81F
:101A20000A219420400002F0D3F81F21FF202A3021
:101A300002F0CEF81F219520400002F0C9F80621DF
:101A4000FF202C3002F0C4F800219620400002F064
:101A5000BFF80021FF202E3002F0BAF80021FF204D
:101A6000303002F0B5F8C5219820400002F0B0F8FF
:101A70008421FF20323002F0ABF800219920400091
:101A800002F0A6F80021FF20343002F0A1F8A621D0
:101A90009A20400002F09CF8A121FF20363002F08D
:101AA00097F8C3219B20400002F092F84621FF20C6
:101AB000383002F08DF80A219C20400002F088F8AE
:101AC0001F21FF203A3002F083F81F219D204000A3
:101AD00002F07EF80621FF203C3002F079F8002168
:101AE0009E20400002F074F80021FF203E3002F0FA
:101AF0006FF816219F20400002F06AF80021FF20B5
:101B0000403002F065F8FF21A820400002F060F8A4
:101B10008421FF20523002F05BF80021A920400010
:101B200002F056F80021FF20543002F051F8A521B0
:101B3000AA20400002F04CF8A021FF20563002F00D
:101B400047F8C321AB20400002F042F84621FF20B5
:101B5000583002F03DF80A21AC20400002F038F87D
:101B60001F21FF205A3002F033F81F21AD20400022
:101B700002F02EF80621FF205C3002F029F8002147
:101B8000AE20400002F024F80021FF205E3002F079
:101B90001FF81621AF20400002F01AF80021FF20A4
:101BA000603002F015F80021FF20623002F010F8DA
:101BB0000021B120400002F00BF80021FF2064302A
:101BC00002F006F80021FF20663002F001F80C2137
:101BD000B320400001F0FCFF9A21FF20683001F0A3
:101BE000F7FF0421FF20843001F0F2FF0F21C42011
:101BF000400001F0EDFF7721FF208A3001F0E8FF7F
:101C000081218020800001F0E3FF8021594801F00C
:101C1000DFFF0021584801F0DBFFF021574801F0B9
:101C2000D7FFAA218420800001F0D2FFCC215448A4
:101C300001F0CEFFAA21534801F0CAFFCC2152483F
:101C400001F0C6FF7E218620800001F0C1FF7E21C9
:101C50004E4801F0BDFF8A218720800001F0B8FFC7
:101C60000A214B4801F0B4FF3E218820800001F09A
:101C7000AFFF3121474801F0ABFF3E21464801F05C
:101C8000A7FF31218920800001F0A2FF00214348F5
:101C900001F09EFF7F21424801F09AFF03218A2034
:101CA000800001F095FF17213E4801F091FFDD21F2
:101CB0003D4801F08DFF00213C4801F089FF0D21D6
:101CC0008C20800001F084FF2021394801F080FF42
:101CD0000021384801F07CFF0021CC20800001F079
:101CE00077FF0021344801F073FF0321334801F0EE
:101CF0006FFF0421F120000101F06AFF002130484C
:101D000001F066FF07212F4801F062FF68212E488D
:101D100001F05EFFFF212D4801F05AFF84212C487D
:101D200001F056FF98212B4801F052FF11212A485B
:101D300001F04EFF2521294801F04AFFE121284802
:101D400001F046FF27480078002809D09921C020DB
:101D5000400001F03DFF0821234801F039FF08E071
:101D60009721C020400001F033FF28211E4801F0D8
:101D70002FFF61E2010200000202000003020000E6
:101D800011020000120200001302000019020000FC
:101D90001E020000210200002302000025020000B4
:101DA000260200002A0200002D0200002F0200007F
:101DB0003302000031030000320300000D0F000069
:101DC000110F00001C0F0000210F0000220F000067
:101DD000230F0000260F0000350F0000440F000005
:101DE0005F0F000021300020340F0000042110207C
:101DF00001F0EEFE0021112001F0EAFE6421122024
:101E000001F0E6FE3321182001F0E2FE0121262038
:101E100001F0DEFE01216E2001F0DAFE0B218020B0
:101E2000400001F0D5FED121FF20801C01F0D0FE42
:101E300002218120400001F0CBFE0021FF20001D87
:101E400001F0C6FE38218220400001F0C1FE6C2165
:101E5000FF20801D01F0BCFE00218320400001F026
:101E6000B7FE0021FF20083001F0B2FE00218420DF
:101E7000400001F0ADFE8021FF200A3001F0A8FEF5
:101E800000218520400001F0A3FE0021FF200C303E
:101E900001F09EFE0021FF20163001F099FEF42192
:101EA000FF20183001F094FE83219020400001F0C3
:101EB0008FFE8421FF20223001F08AFEE82192204B
:101EC000400001F085FEE221FF20263001F080FE77
:101ED00083219320400001F07BFE4621FF20283023
:101EE00001F076FE0A219420400001F071FE1F21CE
:101EF000FF202A3001F06CFE1F219520400001F0E8
:101F000067FE0621FF202C3001F062FE00219620A2
:101F1000400001F05DFE0021FF202E3001F058FE50
:101F20000021FF20303001F053FE83219820400033
:101F300001F04EFE8421FF20323001F049FE0021E5
:101F40009920400001F044FE0021FF20343001F0D0
:101F50003FFEE6219A20400001F03AFEE121FF20F9
:101F6000363001F035FE83219B20400001F030FE29
:101F70004621FF20383001F02BFE0A219C20400032
:101F800001F026FE1F21FF203A3001F021FE1F2123
:101F90009D20400001F01CFE0621FF203C3001F096
:101FA00017FE00219E20400001F012FE0021FF20BC
:101FB0003E3001F00DFE16219F20400001F008FE8A
:101FC0000021FF20403001F003FEFF21A820400047
:101FD00001F0FEFD8421FF20523001F0F9FD0021C7
:101FE000A920400001F0F4FD0021FF20543001F051
:101FF000EFFDE521AA20400001F0EAFDE021FF20ED
:10200000563001F0E5FD8321AB20400001F0E0FDFA
:102010004621FF20583001F0DBFD0A21AC204000B2
:1020200001F0D6FD1F21FF205A3001F0D1FD1F2104
:10203000AD20400001F0CCFD0621FF205C3001F016
:10204000C7FD0021AE20400001F0C2FD0021FF20AD
:102050005E3001F0BDFD1621AF20400001F0B8FD5B
:102060000021FF20603001F0B3FD0021FF2062302D
:1020700001F0AEFD0021B120400001F0A9FD0021DA
:10208000FF20643001F0A4FD0021FF20663001F044
:102090009FFD9121B320400001F09AFD3021FF20E7
:1020A000683001F095FD0421FF20843001F090FD9F
:1020B0000F21C420400001F08BFD7721FF208A30E2
:1020C00001F086FD81218020800001F081FD8021CA
:1020D0005A4801F07DFD0021594801F079FDF021B9
:1020E000584801F075FDAA218420800001F070FDA0
:1020F000CC21554801F06CFDAA219A4801F068FDF9
:10210000CC21994801F064FD7E218620800001F0F9
:102110005FFD7E21954801F05BFD8A2187208000CC
:1021200001F056FD0A21924801F052FD3E2188201F
:10213000800001F04DFD31218E4801F049FD3E2126
:102140008D4801F045FD31218920800001F040FDDE
:1021500000218A4801F03CFD7F21894801F038FDCB
:1021600003218A20800001F033FD1721854801F00A
:102170002FFDE821844801F02BFD0021834801F068
:1021800027FD0D218C20800001F022FD00218048D8
:1021900001F01EFD00217F4801F01AFD0021CC2036
:1021A000800001F015FD00217B4801F011FD0321A5
:1021B0007A4801F00DFD0421F120000101F008FD35
:1021C0000021AC4801F004FD0721AB4801F000FDFF
:1021D0006821AA4801F0FCFCFF21B04801F0F8FC9E
:1021E0008421AF4801F0F4FC9821AE4801F0F0FCE6
:1021F0001121AD4801F0ECFC2521AC4801F0E8FCD0
:10220000E121AB4801F0E4FCAA480078002809D09D
:102210009921C020400001F0DBFC0821A64801F014
:10222000D7FC08E09721C020400001F0D1FC282114
:10223000A14801F0CDFCFFE701BD00000102000054
:1022400002020000030200001102000080B500211C
:10225000C220400001F0BCFC0F21F020000101F081
:10226000B7FC0621B84801F0B3FC9248007800287A
:102270002DD0B6480078002802280ED9C01E19D0EB
:102280001238012809D9C01E012806D9801E11D094
:10229000401E02D0801E0DD018E00721302001F032
:1022A00097FC1221312001F093FC2021322001F013
:1022B0008FFC55E00921302001F08AFC02213120F9
:1022C00001F086FC2021322001F082FC48E09F488A
:1022D0000078002802282AD9C01E35D012380CD028
:1022E000401E24D0801E08D0401E20D0401E11D099
:1022F000401E1CD0801E27D032E00721302001F084
:1023000067FC1221312001F063FC2021322001F012
:102310005FFC25E00921302001F05AFC0221312028
:1023200001F056FC2021322001F052FC18E00B2174
:10233000302001F04DFC1021312001F049FC242116
:10234000322001F045FC0BE00921302001F040FC77
:102350000221312001F03CFC2421322001F038FC24
:1023600001BD00001202000013020000190200006B
:102370001E020000210200002302000025020000CE
:10238000260200002A0200002D0200002F02000099
:102390003302000031030000320300000D0F000083
:1023A00080B544480078002810D00721302001F083
:1023B0000FFC0821312001F00BFC2021322001F01C
:1023C00007FC0621604801F003FC47E05F48007805
:1023D0000028022821D9C01E30D012380CD0401E4F
:1023E0001BD0801E08D0401E17D0401E04D0401EB7
:1023F00013D0801E22D031E00721302001F0E8FB0D
:102400000821312001F0E4FB2021322001F0E0FB23
:1024100006214D4801F0DCFB20E00B21302001F0CB
:10242000D7FB1021312001F0D3FB2421322001F011
:10243000CFFB0221444801F0CBFB0FE00921302003
:1024400001F0C6FB0121312001F0C2FB2421322022
:1024500001F0BEFB02213C4801F0BAFB0021C22082
:10246000400001F0B5FB0F21F020000101F0B0FBAE
:1024700001BD0000110F00001C0F0000210F000023
:1024800080B50021324801F0A3FB0021314801F062
:102490009FFB0021304801F09BFB01BD220F000093
:1024A000230F0000260F0000350F0000440F00002E
:1024B0005F0F000021300020340F000080B5FF21A5
:1024C000FF20183001F084FB0021AE20400001F015
:1024D0007FFB0021FF205E3001F07AFB1B48007873
:1024E000002812D0401E22D0401E1AD0401E12D00A
:1024F0001238012809D9C01E012818D9801E1CD005
:10250000401E0ED0801E06D01CE0E921A82040000D
:1025100001F05EFB16E0A521A820400001F058FB69
:1025200010E0E721A820400001F052FB0AE0E8217A
:10253000A820400001F04CFB04E0C621A820400088
:1025400001F046FB01BD0000180F00002030002004
:1025500027020000290200003102000000B502003D
:10256000002A4CD41100C9B2A52359430800111206
:10257000C9B230235943401811000914C9B2E823E5
:1025800059434018000A1100C9B2002359434018AA
:102590001112C9B2A5235943401811000914C9B238
:1025A0003023594340181116C9B2E8235943401843
:1025B0001112C9B20023594309024018110009142D
:1025C000C9B2A5235943090240181116C9B23023D4
:1025D00059430902401811000914C9B20023594394
:1025E000090440181116C9B2A5235943090440181B
:1025F0001116C9B200235943090640184EE0514252
:102600000A001100C9B2A52359434B421800111208
:10261000C9B230235943401A11000914C9B2E82342
:102620005943401A00121100C9B200235943401AFD
:102630001112C9B2A5235943401A11000914C9B295
:1026400030235943401A1116C9B2E8235943401A9E
:102650001112C9B2002359430902401A110009148A
:10266000C9B2A52359430902401A1116C9B2302331
:1026700059430902401A11000914C9B200235943F1
:102680000904401A1116C9B2A52359430904401A76
:102690001116C9B2002359430906401A00BD0100B2
:1026A0008911080089104018C91040188910401875
:1026B000704738B504000D0013480078002803283F
:1026C00011D915380CD0401E0DD0801E08D0401EE8
:1026D00009D0401E04D0401E05D0801E03D011E05A
:1026E000280080B20FE00022D243290089B22000E6
:1026F00001F09AFB2749884201D0002003E028001E
:1027000080B200E0002032BD2030002070B504000F
:102710000D001F4800780028032811D915380CD067
:10272000401E0DD0801E08D0401E09D0401E04D08F
:10273000401E05D0801E03D027E0280080B225E08F
:102740000020C04306003200290089B2200001F0B9
:102750006BFB0600ADB264193000C0B2C1432170FA
:10276000641C300AC0B2C1432170641C3000000CEC
:10277000C0B2C1432170641C300EC0B2C14321708D
:10278000641C2D1D280080B200E0002070BD0000F8
:1027900020300020E320BBDE00B560480078002830
:1027A00000D1E5E1012800D1C2E3022801D100F007
:1027B00099FD032801D100F06FFF152813D01628CA
:1027C00000D1D5E118280ED0192800D1B0E31A287D
:1027D00009D01B2801D100F085FD1D2801D100F092
:1027E0005BFF01F051F801207D4908707D480078B9
:1027F0007D4908707D4800787D49087000200128D7
:1028000009DA7C490422424389587B4A0423434322
:10281000D150401CF3E70020012805DA7749095C14
:10282000774A1154401CF7E70020012805DA754962
:10283000095C754A1154401CF7E7744800787449E4
:1028400008707448006874490860744800787449D6
:1028500008707448007874490870744800787449A6
:102860000870744800887449088074480078744976
:102870000870744800787449087074480078744986
:102880000870744800887449088074480088744946
:102890000880744800887449088074480088744926
:1028A0000880744800787449087074480078744946
:1028B0000870744800787449087074480078744946
:1028C0000870744800787449087074480078744936
:1028D0000870744800787449087074480078744926
:1028E0000870744800787449087074480078744916
:1028F0000870744800787449087074480078744906
:10290000087074480078744908700020042807DAB9
:102910007249095C724A1154401CF7E720300020CC
:1029200070480078704908707048007870490870E5
:102930007048006870490860704800687049086015
:1029400070480078704908707048007870490870C5
:102950007048007870490870704800887049088095
:1029600070480068704908607048006870490860E5
:1029700070480068704908607048006870490860D5
:102980007048006870490860704800887049088085
:102990007048007870490870704800787049087075
:1029A0000020032809DA6F490422424389586E4AFD
:1029B00004234343D150401CF3E70020032809DAE5
:1029C0006A49042242438958D04A04234343D150E0
:1029D000401CF3E7CE480068CE49086000F054FF81
:1029E0003C0200202C210108DA2F00202D210108B3
:1029F000DB2F0020CC1F0108F42E00202E2101081F
:102A0000DC2F00202F210108DD2F002030210108BC
:102A1000E02F0020D01F0108F82E002031210108EE
:102A2000E12F002032210108E22F0020332101088C
:102A3000E32F0020523E0008BC2F00203421010863
:102A4000E42F002035210108E52F00203621010860
:102A5000E62F0020F24F0008BE2F00200E7800085D
:102A6000C02F002082790008C22F0020DAB40008AD
:102A7000C42F002037210108E72F0020382101084A
:102A8000E82F002039210108E92F00203A21010810
:102A9000EA2F00203B210108EB2F00203C210108F8
:102AA000EC2F00203D210108ED2F00203E210108E0
:102AB000EE2F00203F210108EF2F002040210108C8
:102AC000F02F002041210108F12F002042210108B0
:102AD000F22F002043210108F32F0020D41F01080A
:102AE000FC2E002044210108F42F0020452101087C
:102AF000F52F0020D81F0108002F0020DC1F01083F
:102B0000042F002046210108F62F0020472101084C
:102B1000F72F002048210108F82F002002B50008F7
:102B2000C62F0020E01F0108082F0020E41F010825
:102B30000C2F0020E81F0108102F0020EC1F0108B7
:102B4000142F0020F01F0108182F0020DECD0008F0
:102B5000C82F002049210108F92F00204A2101082F
:102B6000FA2F0020C41D0108482E0020D01D0108A6
:102B7000012083490870834800788349087083489E
:102B80000078834908708348007883490870834837
:102B90000068834908608348007883490870834847
:102BA0000078834908708348007883490870834817
:102BB00000888349088083480078834908708348E7
:102BC00000788349087083480078834908708348F7
:102BD00000888349088083480088834908808348A7
:102BE0000088834908808348008883490880834897
:102BF00000788349087083480078834908708348C7
:102C000000788349087083480078834908708348B6
:102C100000788349087083480078834908708348A6
:102C20000078834908708348007883490870834896
:102C30000078834908708348007883490870834886
:102C40000078834908708348007883490870834876
:102C50000078834908700020042805DA8149095C5E
:102C6000814A1154401CF7E7804800788049087079
:102C70008048007880490870804800688049086072
:102C80008048007880490870804800788049087042
:102C90008048008880490880804800688049086032
:102CA0008048006880490860804800688049086062
:102CB0008048006880490860804800688049086052
:102CC00080480088804908808048007880490870E2
:102CD00080480078804908700020032809DA7F497D
:102CE0000422424389587E4A04234343D150401C66
:102CF000F3E7002003280FDA7A4904224243895877
:102D0000024A04234343D150401CF3E7542E0020D1
:102D1000F41F01081C2F00207348006873490860E5
:102D200073480078002814D072480068724908601F
:102D300072480078724908707248007872490870C9
:102D400072480068724908607248007872490870D9
:102D500013E0724800686849086071480078684963
:102D6000087070480078684908706F4800686849C2
:102D700008606E4800786849087000F085FD00BF63
:102D80003C0200204B210108DA2F00204C210108D1
:102D9000DB2F002051210108E02F00200020010836
:102DA000F82E002052210108E12F002053210108B4
:102DB000E22F002054210108E32F0020BEED00087F
:102DC000BC2F002055210108E42F002056210108C6
:102DD000E52F002057210108E62F0020EEEE000825
:102DE000BE2F0020BA010108C02F0020EA0301080D
:102DF000C22F00200E080108C42F0020582101080E
:102E0000E72F002059210108E82F00205A2101084E
:102E1000E92F00205B210108EA2F00205C21010836
:102E2000EB2F00205D210108EC2F00205E2101081E
:102E3000ED2F00205F210108EE2F00206021010806
:102E4000EF2F002061210108F02F002062210108EE
:102E5000F12F002063210108F22F002064210108D6
:102E6000F32F002004200108FC2E0020652101081A
:102E7000F42F002066210108F52F00201020010802
:102E8000042F002067210108F62F00206821010887
:102E9000F72F0020FE080108C62F0020142001088B
:102EA000082F0020182001080C2F00201C200108EA
:102EB000102F002020200108142F002024200108BA
:102EC000182F0020961A0108C82F00206B21010836
:102ED000F92F00206C210108FA2F0020DC1D0108C9
:102EE000482E0020E81D0108282001081C2F002082
:102EF00021300020FC1F0108F42E00205021010881
:102F0000DC2F00204F210108DD2F00200C200108BC
:102F1000002F00206A210108F82F0020F81F010867
:102F20004D2101084E2101080820010869210108EE
:102F300001207F4908707F4800787F4908707F48EA
:102F400000787F4908707F4800787F4908707F4883
:102F500000687F4908607F4800787F4908707F4893
:102F600000787F4908707F4800787F4908707F4863
:102F700000887F4908807F4800787F4908707F4833
:102F800000787F4908707F4800787F4908707F4843
:102F900000887F4908807F4800887F4908807F48F3
:102FA00000887F4908807F4800887F4908807F48E3
:102FB00000787F4908707F4800787F4908707F4813
:102FC00000787F4908707F4800787F4908707F4803
:102FD00000787F4908707F4800787F4908707F48F3
:102FE00000787F4908707F4800787F4908707F48E3
:102FF00000787F4908707F4800787F4908707F48D3
:1030000000787F4908707F4800787F4908707F48C2
:1030100000787F4908700020042805DA7D49095CA2
:103020007D4A1154401CF7E77C4800787C490870C1
:103030007C4800787C4908707C4800687C490860BE
:103040007C4800787C4908707C4800787C4908708E
:103050007C4800887C4908807C4800687C4908607E
:103060007C4800687C4908607C4800687C490860AE
:103070007C4800687C4908607C4800687C4908609E
:103080007C4800887C4908807C4800787C4908702E
:103090007C4800787C4908700020032809DA7B49C5
:1030A0000422424389587A4A04234343D150401CA6
:1030B000F3E70020032809DA7649042242438958BD
:1030C000754A04234343D150401CF3E7734800681A
:1030D0007349086073480078002814D0724800686B
:1030E0007249086072480078724908707248007826
:1030F0007249087072480068724908607248007826
:103100007249087013E072480068684908607148A5
:1031100000786849087070480078684908706F48FE
:103120000068684908606E48007868490870ABE339
:103130003C0200206D210108DA2F00206E210108D9
:10314000DB2F002073210108E02F0020342001082C
:10315000F82E002074210108E12F002075210108BC
:10316000E22F002076210108E32F0020A21B010896
:10317000BC2F002077210108E42F002078210108CE
:10318000E52F002079210108E62F0020AE1B010861
:10319000BE2F0020D0200108C02F0020D22001081F
:1031A000C22F0020D4200108C42F00207A2101085A
:1031B000E72F00207B210108E82F00207C21010857
:1031C000E92F00207D210108EA2F00207E2101083F
:1031D000EB2F00207F210108EC2F00208021010827
:1031E000ED2F002081210108EE2F0020822101080F
:1031F000EF2F002083210108F02F002084210108F7
:10320000F12F002085210108F22F002086210108DE
:10321000F32F002038200108FC2E00208721010810
:10322000F42F002088210108F52F002044200108F8
:10323000042F002089210108F62F00208A2101088F
:10324000F72F0020D6200108C62F002048200108B3
:10325000082F00204C2001080C2F002050200108CE
:10326000102F002054200108142F0020582001089E
:10327000182F0020D8200108C82F00208D21010818
:10328000F92F00208E210108FA2F0020F41D0108DB
:10329000482E0020001E0108542E00205C2001084A
:1032A0001C2F00202130002030200108F42E0020A7
:1032B00071210108DC2F002072210108DD2F002080
:1032C00040200108002F00208C210108F82F002049
:1032D0002C2001086F210108702101083C20010801
:1032E0008B21010801207F4908707F4800787F49C1
:1032F00008707F4800787F4908707F4800787F49D0
:1033000008707F4800687F4908607F4800787F49DF
:1033100008707F4800787F4908707F4800787F49AF
:1033200008707F4800887F4908807F4800787F497F
:1033300008707F4800787F4908707F4800787F498F
:1033400008707F4800887F4908807F4800887F494F
:1033500008807F4800887F4908807F4800887F492F
:1033600008807F4800787F4908707F4800787F494F
:1033700008707F4800787F4908707F4800787F494F
:1033800008707F4800787F4908707F4800787F493F
:1033900008707F4800787F4908707F4800787F492F
:1033A00008707F4800787F4908707F4800787F491F
:1033B00008707F4800787F4908707F4800787F490F
:1033C00008707F4800787F4908700020042805DADB
:1033D0007D49095C7D4A1154401CF7E77C48007820
:1033E0007C4908707C4800787C4908707C480068FB
:1033F0007C4908607C4800787C4908707C480078EB
:103400007C4908707C4800887C4908807C480068BA
:103410007C4908607C4800687C4908607C480068FA
:103420007C4908607C4800687C4908607C480068EA
:103430007C4908607C4800887C4908807C4800788A
:103440007C4908707C4800787C490870002003287B
:1034500009DA7B490422424389587A4A04234343C8
:10346000D150401CF3E70020032809DA76490422F2
:1034700042438958754A04234343D150401CF3E723
:10348000734800687349086073480078002814D0B6
:103490007248006872490860724800787249087082
:1034A0007248007872490870724800687249086072
:1034B000724800787249087013E0724800686849E1
:1034C0000860714800786849087070480078684959
:1034D00008706F480068684908606E48007868495D
:1034E0000870D1E13C0200208F210108DA2F002072
:1034F00090210108DB2F002095210108E02F0020FA
:1035000068200108F82E002096210108E12F0020F4
:1035100097210108E22F002098210108E32F0020C5
:10352000DA200108BC2F002099210108E42F002097
:103530009A210108E52F00209B210108E62F002099
:10354000DC200108BE2F0020DE200108C02F002053
:10355000E0200108C22F0020E2200108C42F002033
:103560009C210108E72F00209D210108E82F002061
:103570009E210108E92F00209F210108EA2F002049
:10358000A0210108EB2F0020A1210108EC2F002031
:10359000A2210108ED2F0020A3210108EE2F002019
:1035A000A4210108EF2F0020A5210108F02F002001
:1035B000A6210108F12F0020A7210108F22F0020E9
:1035C000A8210108F32F00206C200108FC2E002008
:1035D000A9210108F42F0020AA210108F52F0020BD
:1035E00078200108042F0020AB210108F62F0020CD
:1035F000AC210108F72F0020E4200108C62F00208D
:103600007C200108082F0020802001080C2F0020BA
:1036100084200108102F002088200108142F00208A
:103620008C200108182F0020E6200108C82F002058
:10363000AF210108F92F0020B0210108FA2F002046
:103640000C1E0108482E0020181E0108542E0020D0
:10365000902001081C2F0020213000206420010848
:10366000F42E002093210108DC2F00209421010872
:10367000DD2F002074200108002F0020AE2101085A
:10368000F82F0020602001089121010892210108F3
:1036900070200108AD21010801207C4908707C4898
:1036A00000787C4908707C4800787C4908707C4828
:1036B00000787C4908707C4800687C4908607C4838
:1036C00000787C4908707C4800787C4908707C4808
:1036D00000787C4908707C4800887C4908807C48D8
:1036E00000787C4908707C4800787C4908707C48E8
:1036F00000787C4908707C4800887C4908807C48B8
:1037000000887C4908807C4800887C4908807C4887
:1037100000887C4908807C4800787C4908707C4897
:1037200000787C4908707C4800787C4908707C48A7
:1037300000787C4908707C4800787C4908707C4897
:1037400000787C4908707C4800787C4908707C4887
:1037500000787C4908707C4800787C4908707C4877
:1037600000787C4908707C4800787C4908707C4867
:1037700000787C4908707C4800787C4908700020FB
:10378000042805DA7A49095C7A4A1154401CF7E7A3
:103790007948007879490870794800787949087043
:1037A0007948006879490860794800687949086073
:1037B0007948007879490870794800787949087023
:1037C00079480078794908707948008879490880F3
:1037D0007948006879490860794800687949086043
:1037E0007948006879490860794800687949086033
:1037F00079480068794908607948008879490880E3
:1038000079480078794908707948007879490870D2
:103810000020032809DA7849042242438958774A6C
:1038200004234343D150401CF3E70020032809DA66
:103830007349042242438958724A04234343D150B6
:10384000401CF3E7704800687049086070480078D1
:1038500000280CD06F4800686F4908606F480078F6
:103860006F4908706F4800786F4908700BE06F4827
:103870000068694908606E480078694908706D48B9
:10388000007869490870FFE700BD00003C02002095
:10389000B1210108DA2F0020B2210108DB2F00201E
:1038A000B3210108E02F002094200108F82E002009
:1038B000B4210108E12F0020B5210108E22F0020EA
:1038C000B6210108E32F0020E8200108BC2F0020CA
:1038D000B7210108E42F0020B8210108E52F0020BE
:1038E000B9210108E62F0020EA200108BE2F0020A0
:1038F000EC200108C02F0020EE200108C22F00207C
:10390000F0200108C42F0020BA210108E72F002071
:10391000BB210108E82F0020BC210108E92F00206D
:10392000BD210108EA2F0020BE210108EB2F002055
:10393000BF210108EC2F0020C0210108ED2F00203D
:10394000C1210108EE2F0020C2210108EF2F002025
:10395000C3210108F02F0020C4210108F12F00200D
:10396000C5210108F22F0020C6210108F32F0020F5
:1039700098200108FC2E0020C7210108F42F002008
:10398000C8210108F52F00209C200108002F0020ED
:10399000A0200108042F0020C9210108F62F0020D3
:1039A000CA210108F72F0020CB210108F82F0020A1
:1039B000F2200108C62F0020A4200108082F0020B3
:1039C000A82001080C2F0020AC200108102F002097
:1039D000B0200108142F0020B4200108182F002067
:1039E000F4200108C82F0020CC210108F92F002065
:1039F000CD210108FA2F0020241E0108482E0020A6
:103A0000301E0108542E0020B82001081C2F002071
:103A10002130002064200108F42E002093210108A9
:103A2000DC2F002094210108DD2F002060200108F8
:103A3000912101089221010800B5C0B200280FD0E1
:103A4000022813D00FD3042816D012D3062819D079
:103A500015D308281CD018D30A281FD01BD320E068
:103A6000504A11601DE0504A11601AE04F4A11603F
:103A700017E04F4A116014E04E4A116011E04E4ABF
:103A800011600EE04D4A11600BE04D4A116008E0F4
:103A90004C4A116005E04C4A116002E04B4A11604B
:103AA000FFE700BD80B50021022000F091F8012160
:103AB000022000F08DF801BD0020704780B5FFF7AF
:103AC000FBFFC0B2002801D0C0B206E000F03AF817
:103AD000002801D0032000E0002002BD10B58021A5
:103AE000022000F075F80021022000F071F800209B
:103AF00000F0A7F80400E4B2512C01D0012020E02E
:103B00005521012000F064F8012000F09AF804002B
:103B1000E4B2552C01D0022013E0AA21012000F0CC
:103B200057F8012000F08DF80400E4B2AA2C01D06F
:103B3000022006E000F006F8002801D0032000E093
:103B4000002010BD80B568460021018000F09AFA7F
:103B50000121242000F03CF816480068804769469F
:103B600008700021242000F033F8124800688047D4
:103B7000694648700321242000F02AF8684600783E
:103B8000002803D068464078002807D0022124206E
:103B900000F01EF800F071FA012002E000F06DFA6A
:103BA000002002BDC82E0020CC2E0020D02E0020E8
:103BB000D42E0020D82E0020DC2E0020E02E002065
:103BC000E42E0020E82E0020EC2E0020F02E002015
:103BD00030B587B004000D0000F054FA702C19D3F2
:103BE0002000E024E4010443002000F073FA200ADE
:103BF000802101436846017020006946487068468C
:103C00008570032203A9684600F059FA012000F0EC
:103C100061FA11E0002000F05DFA200080210143EC
:103C20006846017068464570022203A9684600F0A4
:103C300046FA012000F04EFA00F01FFA012007B00A
:103C400030BD10B586B0040000F01CFA702C1CD3F7
:103C50002000E024E4010443002000F03BFA200AA5
:103C600069460870200069464870002069468870DF
:103C7000032203A9684600F022FA012000F02AFA84
:103C800000F0FBF903A8807814E0002000F022FA8D
:103C9000200069460870002069464870022203A986
:103CA000684600F00CFA012000F014FA00F0E5F983
:103CB00003A8407806B010BD10B586B0040000F02F
:103CC000E1F9702C24D32000E024E4010443002017
:103CD00000F000FA200A6946087020006946487022
:103CE00000206946887000206946C870042203A934
:103CF000684600F0E4F9012000F0ECF900F0BDF9AD
:103D000003A88078000203A9C978084380B21CE0A8
:103D1000002000F0DFF920006946087000206946A5
:103D20004870002069468870032203A9684600F0A5
:103D3000C6F9012000F0CEF900F09FF903A8407801
:103D4000000203A98978084380B206B010BD10B5FF
:103D500086B0040000F096F9702C2AD32000E024ED
:103D6000E4010443002000F0B5F9200A6946087018
:103D70002000694648700020694688700020694626
:103D8000C870002069460871052203A9684600F042
:103D900096F9012000F09EF900F06FF903A88078F1
:103DA000000403A9C9780902014303A80079084364
:103DB00022E0002000F08EF9200069460870002003
:103DC0006946487000206946887000206946C870BE
:103DD000042203A9684600F072F9012000F07AF984
:103DE00000F04BF903A84078000403A98978090280
:103DF000014303A8C078084306B010BD10B5040005
:103E00002100C9B22620FFF7E3FE10BD80B50548AA
:103E10000068002805D0002000F06DF9012000F0B6
:103E20006AF901BDF02E002070B505000C001600E7
:103E3000A4B2002C01D130000AE02978300000F053
:103E4000A7FA06006D1C641EA4B2002CF5D1300048
:103E500070BD070080B5B748C449086082204000A3
:103E6000C24948600020C14988600020BF49C8603D
:103E70000020BE4908610020BC49486180208000C4
:103E8000BA4988610020B949C8610020B749086271
:103E90000020B64948620020B44988620720B3492F
:103EA000C862B24800F080FA002803D06621B44806
:103EB00000F012FDAD480068006840210143AB48A6
:103EC0000068016001BD80B5AE48BA4908600020B5
:103ED000B8494860A0200001B6498860B648B54995
:103EE00048610020B34908620020B24948620020BE
:103EF000B0498862AF4800F0F1FC002803D0772178
:103F00009F4800F0E9FC01BD80B5AA480068006840
:103F1000C00705D50120A7490968486000F085FD64
:103F200001BD38B5002213000C009BB2A4B2A3421D
:103F30002CD200238D4C2468E360FA239B006C464E
:103F400023808A4B1B689B68DB0707D46B461B8862
:103F50005C1E6D462C809BB2002BF2D1FA239B0095
:103F60006C462380814B1B689B681B0607D56B46FC
:103F70001B885C1E6D462C809BB2002BF2D17B4BC4
:103F80001B68DB6892B28354521CCCE731BD3CB550
:103F9000002213000C009BB2A4B2A34231D292B211
:103FA000835C724C2468E360FA239B006C46238098
:103FB0006E4B1B689B689B0707D46B461B885C1E77
:103FC0006D462C809BB2002BF2D1FA239B006C46ED
:103FD0002380664B1B689B681B0607D56B461B88B6
:103FE0005C1E6D462C809BB2002BF2D15F4B1B6890
:103FF000DB6801935D4B1B689B680193019B521C1E
:10400000C7E733BD78B500231C001500A4B2ADB2DC
:10401000AC422DD29BB2C45C544D2D68EC60FA24A6
:10402000A4006D462C80514C2468A468E40707D492
:104030006C462488651E6E463580A4B2002CF2D1F1
:10404000FA24A4006D462C80484C2468A4682406F9
:1040500007D56C462488651E6E463580A4B2002CB8
:10406000F2D1424C2468E4689BB2CC545B1CCBE791
:1040700071BD62B6704772B6704780B5052000F01A
:1040800050FE01BD80B5052000F052FE01BD80B597
:1040900001219F4800F06CFF02BD38B505000C00FF
:1040A000210089B22800FFF73CFF31BD38B505007B
:1040B0000C00210089B22800FFF769FF31BD70B5FF
:1040C00004000E0015002A0092B231002000FFF714
:1040D00099FF70BD10B50400E4B2002C05D0012298
:1040E00002218B4800F052FF04E0002202218848A0
:1040F00000F04CFF10BD70478649096889680122AD
:104100000A43844909688A60704782490968896856
:10411000012291437F4A12689160704789B27D4ABB
:1041200012685161704701007A480068406980B2A6
:10413000704700000030014000B501001D480068D4
:10414000C2691000744B1B8880B2984209D2724831
:10415000008892B2801A714B984202DA6E48008849
:1041600003E06D480280100080B200BDF82B0020F3
:1041700001006848006802681000C007C00F70475F
:1041800048190108007C004001210170704700219E
:104190000170704700210170704700B50021C9B25D
:1041A000342906D05E4AC9B2525CC9B24254491C95
:1041B000F5E700BD182D0020FFFF000070B50400DA
:1041C0003425584E2A003100200000F013FF70BD46
:1041D00038B5050000F03CFF002811D10024E4B2FE
:1041E000342C0BD0E4B22A5DE4B24E4821180020F2
:1041F00000F048FF002801D1641CF0E700F03AFF0E
:1042000031BD704700B585B0FFF75DFE46494148B6
:1042100000F0BAFBFFF71EFE44490020FFF70CFC3C
:1042200043490120FFF708FC42490220FFF704FC44
:1042300041490320FFF700FC40490420FFF7FCFB45
:104240003F490520FFF7F8FB3E490620FFF7F4FB46
:104250003D490720FFF7F0FB3C490820FFF7ECFB46
:104260003B490A20FFF7E8FB01220221284800F021
:104270008DFE2E49002000F0AFFB2D49012000F0FB
:10428000ABFB3449022000F0A7FB3349032000F0C8
:10429000A3FB3249042000F09FFB3149052000F0C8
:1042A0009BFB3049062000F097FB2F49072000F0C8
:1042B00093FB00F0E5FB2D49012000F025FF2C4980
:1042C000022000F021FF2B49032000F01DFF2A49A6
:1042D000042000F019FF2949062000F015FF2849A5
:1042E000072000F011FF2749052000F00DFF684668
:1042F0002549142200F092FE244800680090684688
:1043000002F00AFF002002F0A9F805B000BD00008D
:1043100000040050182D0020D82F00201027000086
:10432000001A010800140808FFFF0000734000088D
:10433000774000087B400008854000088F40000857
:104340009B400008AD400008BF400008D540000871
:10435000F7400008F94000080B4100081D41000823
:1043600027410008394100087141000889410008CF
:104370008F4100089541000803420008BD41000834
:10438000D14100089B410008A01C010880FF0108E2
:10439000020A044BC0B2C9B24140042041435858FC
:1043A000504070471010010810B50400002C01D1D6
:1043B00001203FE05120205C002805D10020502141
:1043C0006054200002F014FF022051216054206844
:1043D000006840218843216808606068A168014343
:1043E000E06808432169014360690843A1698022AC
:1043F000920011400143E0690843216A0143A06A29
:10440000084321680860A069000C04210840616A23
:10441000014320684160E06A216808612068C06942
:10442000054901402068C1610020606501205121DB
:104430006054002010BD0000FFF7FFFF0121BF4ABC
:1044400011707047704780B502F000FF00F028F847
:1044500000F07EF900F03EF900F09BF800F0BBF8A8
:1044600000F085F8FFF7CEFE03F0CBF9012003F052
:1044700075FA04F0D3F804F0C1F803F0E4F9AF4999
:1044800009780143C9B2002906D00020AB49087061
:1044900000F07CFB04F0B2F8012000F0CDFFECE767
:1044A00000B59BB0A6480068A649014080200001E5
:1044B0000843A349086004F031F9A3480068A14902
:1044C0000140A148016006200D90802040000F901F
:1044D00001201090102011900220169000201790BB
:1044E0008020C00218908020C00319900DA804F00D
:1044F0001FF9002803D0D721944800F0EDF90F20D0
:1045000000900320019000200290002003900020E2
:1045100004900121684604F0B5FB002803D0E52192
:104520008A4800F0D9F9A02005908020400206902A
:10453000C02000030C9005A804F04EFD002803D015
:10454000EE21824800F0C8F904F0DCFCFA21890071
:1045500004F05FFE00F0F3FB042000F0F6FB002205
:1045600001210020C04300F0D2FB1BB000BD80B58C
:1045700000220021052000F0CAFB052000F0D1FB3D
:10458000002201210D2000F0C2FB0D2000F0C9FB2C
:1045900001BD80B5C348C44908600020C2494860D5
:1045A000A0200001C0498860C048BF494861002080
:1045B000BD4908620020BC4948620020BA498862AF
:1045C000B94800F08BF9002804D08C2149005F48DD
:1045D00000F082F901BD00B591B0B548B549086059
:1045E0000020B44948607F20B2498860FF20B1496B
:1045F000C8600020AF4908610020AE494861002032
:10460000AC4988610020AB49C861AA4804F058FE53
:10461000002804D0FF213A314C4800F05DF9002019
:104620000BA9087000200BA9487000200BA9887006
:1046300000200E9000200F9000220BA99D4804F04E
:104640009BFE002804D0FF214631404800F044F989
:1046500001206946087001206946487001206946BA
:10466000887000206946C87000226946914804F0AD
:1046700051FF002804D0FF215031344800F02CF9BC
:10468000002069460871002001A94870002001A996
:104690008870002002900020049000200590864839
:1046A00006900020079000200890012001A92022F8
:1046B0008854802040000A90002201A97D4804F01F
:1046C000E3FF002804D0FF216231204800F004F904
:1046D00011B000BD80B5794879490860822040005A
:1046E0007749486000207649886000207449C86096
:1046F0000020734908610020714948618020C00290
:104700006F49886100206E49C86100206C490862C9
:1047100000206B4948620020694988620720684987
:10472000C8626748FFF740FE002804D0FF217A31B5
:10473000064800F0D1F801BD000000000A3000205A
:1047400000700040FFE7FFFF501002400819010809
:1047500000B587B05B4800680421014359480160F7
:1047600058480068042108400090009855480068A7
:10477000802101435348016052480068802108406D
:10478000009000984F480068012101434D480160A6
:104790004C4800680100C907C90F009100984948BA
:1047A0000068022101434748016046480068022131
:1047B00008400090009800220321434800F0E6FBE7
:1047C00001220121A020C00500F0E0FB00226E21A3
:1047D0003E4800F0DBFB012210213C4800F0D6FBF4
:1047E000802080010190002002900120039001A907
:1047F000374800F0CDFA03200190012002900020FC
:1048000003900020049001A92F4800F0C1FA012074
:10481000019001200290002003900020049001A943
:10482000A020C00500F0B4FA0C20019002200290F4
:1048300000200390032004900620059001A9A020E9
:10484000C00500F0A5FA1020019000200290012080
:10485000039001A9A020C00500F09AFA0120019060
:104860001C4802900020039001A9184800F090FA1B
:104870007E200190012002900020039000200490EF
:1048800001A9124800F084FAC020400001900020E5
:1048900002900120039001A90C4800F079FA07B0BA
:1048A00000BD0000007C0040E82C0020FFFF00005D
:1048B00000280040482D002080808080003001408A
:1048C000A02B00202C100240001C005000040050BF
:1048D000000800500000111000B5FEE738B50400D4
:1048E0000025002C01D1012047E0606801286069A3
:1048F000224988422E20205C002805D100202D214D
:104900006054200002F051FC02202E2160542068E7
:10491000C06805006068012801D11E2085436069D8
:104920001649884202D02800154D05402800154D33
:1049300005402A006068A1680143206A0843616A53
:104940000143A56A0D4315436068012804D129007D
:10495000E068256905430D4360690849884206D02F
:104960002A006069A1690143E5690D431543206888
:10497000C56001202E216054002032BDFFFF0000E1
:104980003F1FFFFFFEF119FF00B5020002202E239A
:10499000D054506801280AD0906A80231B049842A2
:1049A00005D11068C0680B4B03401068C3601068E5
:1049B0000069012303431068036110688161106876
:1049C0000069042303431068036101202E23D0549F
:1049D000002000BDFFF1FFFF00B5C0B200280BD0E2
:1049E00002280FD00BD3042812D00ED3062815D0DE
:1049F00011D3072815D017E0764A116014E0764AE3
:104A0000116011E0754A11600EE0754A11600BE00B
:104A1000744A116008E0744A116005E0734A11603D
:104A200002E0734A1160FFE700BD80B50020FFF788
:104A30006CFB00F06CF800F034F801BD10B5040018
:104A40000020FFF762FB00206A490860E4B2002CF6
:104A500005D000206849888000F059F80AE000205D
:104A6000FFF76AFB644988800020634908600020E2
:104A70006149886000F015F80020FFF73DFB10BD8C
:104A800080B50020FFF7DAFF01BD00B559490A687B
:104A9000002A03D108600023036001E01100F6E75B
:104AA00000BD38B554488068002822D052480068BC
:104AB000514989688968451A002D0AD44E4884688E
:104AC0004D48806800684C4988602000FFF7DDFF92
:104AD000E8E74A4885420CDB474880882900441AA9
:104AE000210089B20020FFF719FB0020FFF704FB2B
:104AF0000CE04148808880214901441A210089B294
:104B00000020FFF70BFB0020FFF7F6FA31BD10B5D0
:104B10000020FFF711FB04003748808836498C805D
:104B2000241AA4B2002C05D033480068A4B200199E
:104B30003149086010BD30B531490A68002A07D0F4
:104B400084689568641B2300002B01D41100F4E7EE
:104B50000A680260086030BD38B50020FFF7ECFA43
:104B600005000020FFF7DFFA281A0400A4B2802015
:104B70004001844201DA012007E00020FFF7F8FA43
:104B8000002801D0012000E0002032BD38B500240B
:104B9000FFF771FAFFF7BBFFFFF783FF15480568C2
:104BA000002D0BD0286813490860FFF762FA641CD7
:104BB000280069688847FFF75EFAEFE7FFF7CCFF48
:104BC0000500FFF756FAEDB2002DE1D12000C0B28A
:104BD00032BD0000982F00209C2F0020A02F002025
:104BE000A42F0020A82F0020AC2F0020B02F0020E1
:104BF000B42F0020942F0020C42D00200010FFFFB0
:104C0000CC2D0020F8B504000D0017001E00200078
:104C100004F02AFFA660FFB2002F04D004F014FFB6
:104C2000A1680818A0602800002800D06560200056
:104C300004F0E9FEF1BD0100002070470121C20629
:104C4000D20E91404B4A116070470121C206D20E2C
:104C50009140494A11607047F0B540B2002821D513
:104C6000464C40B20207120F083A950804225543F9
:104C7000424A40B203071B0F083B9B0804267343BC
:104C8000D258FF238607B60F08277E43B3409A43C6
:104C90008B01DBB28607B60F08277E43B340134370
:104CA00063511AE0364A40B2830804246343D25861
:104CB000FF238407A40F08256C43A3409A438B016C
:104CC000DBB28407A40F08256C43A34013432C4A8E
:104CD00040B2840804256C431351F0BD10B50400A4
:104CE000601E80214904884201D301200EE0601E2D
:104CF0002449086003210020C043FFF7ADFF0020D6
:104D000021490860072021490860002010BD70B5C6
:104D100004000D0016002900200040B2FFF79CFFA0
:104D200070BD10B50400200040B2FFF787FF10BD32
:104D300010B50400200040B2FFF787FF10BD10B58A
:104D400004002000FFF7CAFF10BD00B5042806D1FB
:104D50000E49096804220A430C490A6005E00B4920
:104D6000096804229143094A116000BD80B5FFF72C
:104D700069FB01BD00E100E080E100E01CED00E026
:104D800000E400E014E000E018E000E010E000E0E3
:104D9000F0B502000023002400250868D840002850
:104DA00000D1E2E0086801269E4006403400002C55
:104DB00000D1D8E04868022802D0486812281BD1E8
:104DC000D808042670431018006A05000F201E0042
:104DD0007607760F04277E43B040854308691E009E
:104DE0007607760F04277E43B04028430500D80895
:104DF00004267043101805624868012808D04868E6
:104E0000022805D04868112802D0486812281CD111
:104E10009068050003201E0002277E43B0408543B2
:104E2000C8681E0002277E43B040284305009560F5
:104E30005068050001209840854348680600F60642
:104E4000F60F9E402E433500556010680500032084
:104E50001E0002277E43B040854308798007800FFB
:104E60001E0002277E43B040284305001560D0682D
:104E7000050003201E0002277E43B040854388685A
:104E80001E0002277E43B04028430500D5604868D5
:104E9000C00068D5354800680126064333480660DF
:104EA00048489E0804277E43805905000F201E00B5
:104EB000B607B60F04277E43B0408543A020C00547
:104EC000824201D1002019E03F48824201D10120F5
:104ED00014E03E48824201D102200FE03C48824269
:104EE00001D103200AE03B48824201D1042005E0C1
:104EF0003948824201D1052000E006201E00B60795
:104F0000B60F04277E43B040284305002D489E0875
:104F100004277E438551314800680500A543486851
:104F2000C00300D525432D4805602D4800680500C5
:104F3000A5434868800300D52543294805602948D2
:104F400000680500A5434868C00200D525432548F0
:104F50000560254800680500A5434868800200D523
:104F60002543214805605B1C17E7F0BD3410024063
:104F700000B50200136989B20B40002B02D0012357
:104F8000180001E000231800C0B200BD00B5D2B285
:104F9000002A02D089B2816101E089B2816200BD3C
:104FA00010B5040011480068A4B22040002806D0C3
:104FB000A4B20E480460200080B200F019F810BDC1
:104FC00000000000080001400004005000080050EC
:104FD000000C005000100050001C00500004014064
:104FE00004040140080401400C0401401404014081
:104FF00070470000124207D08B0706D00B78491C7F
:105000000370401C521EF7D87047830706D00B78F8
:10501000491C0370401C521EF9D1704770B4103AFD
:1050200003D378C9103A78C0FBD2530701D318C90B
:1050300018C001D508C908C0D20704D30B88038063
:10504000891C801C002A01D50B78037070BC704746
:1050500000B507480068C00707D5254825490860FE
:10506000254824490860002000E0012000BD000020
:1050700004200240224800680121014320480160C9
:1050800000207047F8B504000F00150001261B48EA
:10509000007C012801D1022028E001201749087472
:1050A000184804F0F3FC0600F6B2002E19D10020D7
:1050B00012494861022C01D13D600BE0012C02D164
:1050C0002800388006E0002C02D12800387001E06A
:1050D00001200600F6B2002E03D00A4804F0D6FCE8
:1050E00006000020054908743000C0B2F2BD00007F
:1050F000EFCDAB890C20024005040302AC2D00204B
:105100000420024050C3000000B5C0B2012812D0F4
:1051100035D3032815D011D3052818D014D3072868
:105120001BD017D309281ED01AD30B2821D01DD38A
:105130000C2821D023E0B14A116020E0B04A116070
:105140001DE0B04A11601AE0AF4A116017E0AF4AA3
:10515000116014E0AE4A116011E0AE4A11600EE039
:10516000AD4A11600BE0AD4A116008E0AC4A116035
:1051700005E0AC4A116002E0AB4A1160FFE700BDF8
:10518000F1B584B00D0000266846C570402704F0D4
:1051900097FE381A69468870A44880792900C9B2F8
:1051A000884208D368468078A0490979C91C88429A
:1051B00001DA04201FE1EDB228009C49897904F04E
:1051C00025F8C01C69468978814201DA042012E181
:1051D000280096498979C0B288424ED22800401CE6
:1051E000C0B204F0FFFC0400002C01D1042002E155
:1051F00060798021014361716806400E8038A0719A
:10520000EDB204980190E71D2A0001993800FFF7DC
:10521000F1FE022020708548C078607084480079D3
:10522000C006C00E82494968491C814A51606179B3
:10523000E0220A40C006C00E104360717B48C0786F
:10524000002800D1D4E07A4840687849097903F011
:10525000E0FF00290BD1607940210143617175485D
:105260000078401CE070002072490870C0E071486E
:105270000078401C6F490870BAE000206946487009
:105280006A4880792900C9B2884211D2F6B2002E4C
:1052900001D1012000E000206946032250434870FC
:1052A0006846624989796A465278891A017001E034
:1052B0006846057068460078694649784018C0B26B
:1052C00004F090FC0400002C01D1042093E0F6B21D
:1052D000002E01D0012000E00020694609780191EC
:1052E0000499F6B2514A92797243C0B203235843EB
:1052F000101A08180290684640782018871D019AF5
:1053000002993800FFF776FE022020704748C078E7
:10531000607047480079C006C00E45494968491C7D
:10532000434A51606179E0220A40C006C00E104332
:105330006071684600782900C9B2884216D2607947
:10534000202101436171F6B2002E0FD160798021D6
:10535000014361710220A0716846C078401CE07171
:105360006846C178049805F00EF920726846007806
:105370002D1A761CEDB2002D20D1F6B2012E1DD1D2
:105380002A48C07800282FD0294840682749097941
:1053900003F03FFF00290BD1607940210143617187
:1053A00024480078401CE0700020224908701BE06F
:1053B00020480078401C1F49087015E060792021C2
:1053C000014361711948C07800280DD0EDB2002D5D
:1053D0000AD1607940210143617116480078301884
:1053E000E070002013490870EDB2002D00D044E7B2
:1053F00000F0EDFF002005B0F0BD0000482F0020B8
:105400004C2F0020502F0020382F0020542F002038
:10541000582F00205C2F0020602F0020642F0020D8
:10542000682F00206C2F0020702F0020502C0020AF
:10543000640000200C300020F1B5C6B000206946A1
:10544000487146A800789C4908709C48006800286C
:1054500003D0012099490968884700A9891C01A83F
:1054600004F09AFE02900298002808D19348006840
:10547000002803D0002091490968884719E1029863
:105480004079C0B2C009C0B2002824D00298807907
:10549000000620D5029880794006400E6946488073
:1054A000684640888649897903F0B0FE68464180A5
:1054B000684644880298C51D05AE220029003000C8
:1054C000FFF798FD7E480079022800DBBBE00B2047
:1054D00002990870B7E0684602994979C906C90E71
:1054E000017002984079C0B2C009C0B200280ED045
:1054F000744869460978C906C90E042251434058C8
:105500008079022803D101206946487102E0002019
:10551000694648716846448800252800694609792B
:10552000C0B2884200D18EE00026EDB2002D0BD132
:1055300068460079022807DB684661498979891E37
:1055400041700220060013E020005D49897980B295
:1055500089B2884204D3684659498979417007E085
:105560006F46A4B220005649897903F04FFE797046
:10557000EDB2002D01D0012000E0002069464978FD
:10558000049150496A461278EDB25219D206D20EF1
:1055900004235A438958F6B28919891D039105A934
:1055A000EDB2474A92796A438918C0B20122D243C8
:1055B00050430F18049A03993800FFF71BFD684603
:1055C0004078241A3F4869460978EDB24919C9065E
:1055D000C90E0422514340584079C0B280090100ED
:1055E000C907C90F00290CD0364869460978EDB2C1
:1055F0004919C906C90E04225143405815210170AA
:105600000BE0304869460978EDB24919C906C90E60
:105610000422514340580B21017029480079022887
:105620000FDA6846007901280BD1264869460978C7
:10563000EDB24919C906C90E0422514340580B2145
:1056400001706D1C69E71D480068002803D0002028
:105650001A490968884768464079002814D0684686
:105660004088401E6946488068464188C9B205A8FE
:10567000401C04F088FF6946097DC0B2884218D1F9
:1056800005A8401C040001E005A804006846007954
:10569000022802DB002000F037FD0B4800680028DC
:1056A00000D1D2E6684641882000074A1268904738
:1056B000CBE647B0F0BD0000133000206C2F002077
:1056C000502C0020202B0020382F0020F1B586B070
:1056D000BC480078032806D00698006A05F08EF9C9
:1056E000002800D19DE20120B7490870B748007832
:1056F00000072FD40698808C801E0699888405F0B8
:1057000090FB002811D005F07BFB00280DD00698F7
:10571000006AC078C206D20E0698818C0839C9B2D8
:105720000698006A001D05F0D3FAA94A0698818CF4
:10573000083989B20698006A001D04F097FE0699A0
:10574000096A069A928C8918091F098880B28142D9
:1057500000D066E2C8488068401CC749886000F0F5
:1057600014FDC549C861C5480078401CC34908708C
:10577000C34894498978405CC0490978884205D279
:10578000BF4890498978405CBC4908700698082158
:10579000405EB9491022895E884203DA00206946DA
:1057A000887006E0684606990989B34A128A891A00
:1057B000817068468078B349087006980089AE49C0
:1057C0000883AD48807C03214843694689784018A6
:1057D0008010A9498874002002907A480078032834
:1057E00002D105F0FBF91CE20698006AC71CA64826
:1057F00004F03AF90020A5490870A548006800782F
:10580000142804D1A3480078A1490968087000242D
:1058100001253878C0B2C009C0B2002800D13FE1EC
:105820007878000600D53BE17878002814D002286B
:1058300000D18EE0032874D0042800D186E005282A
:1058400000D186E0062800D184E0072800D1ABE033
:10585000092800D1BEE0CAE08D4800680078102811
:105860005ED13878C006C00E894909684979C906F1
:10587000C90E884254D1884804F0F6F800208749C0
:10588000087083480068C078002808D17A48808A68
:10589000401C7949888208207D490968087076484B
:1058A000C07C03214843B979401880107249C874FC
:1058B000387AD3490870D2480078800606D5684601
:1058C000CF490978C0220A43028005E06846CC49E6
:1058D00009788906890E01806846009909B2090293
:1058E00001806846009909B2FA7911430180009855
:1058F00000B2002806D000F048FC009909B2401818
:1059000000F049FC2002EDB27919497844186D1C69
:10591000EDB2052DF6DB21005D48006804F020FDA6
:1059200065E05B480068007810280ED15A4804F002
:105930009BF80020594908700820554909680870EB
:105940004D48808A401C4C49888250E004F0AAFCF3
:105950004DE0A5E0B81C01F0B1F8002823D00820E4
:1059600004F040F90600002E41D00620B071072057
:105970000590B81C0390F01D0190059A03990198B9
:10598000FFF738FB01983878C006C00E7179E02225
:105990000A40C006C00E1043707170798021014327
:1059A00071711320307022E09F480068002808D0F1
:1059B000B878DE2805D1F878AD2802D19A48006879
:1059C000804714E0502C002012300020772C00205B
:1059D000FFFF000004200190B81C039004AE019A60
:1059E00003993000FFF706FB049800F0D4FB3878E9
:1059F000C0B280090100C907C90F002900D1BAE06F
:105A0000002004F0D7FA002800D0B4E0082004F009
:105A1000E9F8002800D1AEE0032181717978C171E5
:105A2000002101720021417200218172694689784A
:105A3000C1721149098A6A3901737C4909787C4A23
:105A4000127889187B4A12789206920E891841734F
:105A50003978C906C90E4279E0231340C906C90E38
:105A600019434171417980220A43427100214170FA
:105A7000132101707FE000BF640000203D02002080
:105A8000BC2001080D300020902E00201030002096
:105A9000840000200B300020782E00200F300020E2
:105AA0000698808CC11FC9B2380004F055FB00284D
:105AB00019D10698818C0839C9B2387804F006F9F2
:105AC00002900298002800D1ABE00698808CC01F9D
:105AD00001900298461D019A39003000FFF78AFABA
